:100000000C94EF070C940C080C940C080C940C083E
:100010000C943C180C940C080C940C080C940C08D0
:100020000C940C080C940C080C940C080C940C0800
:100030000C940C080C940C080C940C080C940C08F0
:100040000C940C080C940C080C940C080C940C08E0
:100050000C940C0807800FC03FE038707070703847
:1000600070386038E038E038E038E038E038603840
:100070007038703070703CE01FE00F8006000300A5
:100080001F00FF00FF00C700070007000700070070
:100090000700070007000700070007000700070028
:1000A000070007007FF87FF80FC03FF03FF83038B7
:1000B000003800180018003800380038007000E0E0
:1000C00001C0038007000E001C00380070007FF89C
:1000D0007FF81F803FE03FF0207800380038007044
:1000E00000E01FC01FC01FF0003800380038003883
:1000F0000038003860F07FF07FC00E0001E001E0C2
:1001000003E003E006E00EE01CE018E030E070E001
:1001100060E0E0E0C0E0FFF8FFF8FFF800E000E09A
:1001200000E000E000E03FF83FF83FF8380038001A
:10013000380038003F803FE03FF00078003800385A
:10014000001800180018003870F07FF03FC00E0053
:1001500003C00FE01FF03C0070007000E000E7C03B
:10016000FFE0FFF0F078E038E038E038E038E038E1
:10017000707878703FE01FC00700FFF8FFF8FFF0CD
:1001800000700070006000E000C001C001C003808A
:1001900003800300070007000E000E001C001C0077
:1001A0001C0038000F803FE07FF07070E070E0705E
:1001B000707079E01FC01F803FE070F0E070E038A1
:1001C000C038E038E038F0F07FF03FC006001F8014
:1001D0003FC07FE0E070E070C030C038E038E078C9
:1001E000F0F87FF83FB8003000300070007000E099
:1001F00043E07FC07F001C00FFF8FFF8FFF8E03805
:10020000E038E038E038E038E038E038E038E0382E
:10021000E038E038E038E038E038E038FFF8FFF860
:10022000FFF80700070007000700070007000700A6
:100230000700070007000700070007000700070086
:10024000070007000700070007000700FFF8FFF896
:10025000FFF8003800380038003800380038FFF860
:10026000FFF8FFF8E000E000E000E000E000E00060
:10027000FFF8FFF8FFF8FFF8FFF8FFF80038003844
:100280000038003800380038FFF8FFF8FFF8003871
:1002900000380038003800380038FFF8FFF8FFF861
:1002A000E038E038E038E038E038E038E038E0388E
:1002B000E038FFF8FFF8FFF8003800380038003861
:1002C00000380038003800380038FFF8FFF8FFF831
:1002D000E000E000E000E000E000E000FFF8FFF8F0
:1002E000FFF8003800380038003800380038FFF8D0
:1002F000FFF8FFF8FFF8FFF8FFF8E000E000E0008B
:10030000E000E000E000FFF8FFF8FFF8E038E03838
:10031000E038E038E038E038FFF8FFF8FFF8FFF8A1
:10032000FFF8FFF80038003800380038003800388F
:1003300000380038003800380038003800380038FD
:100340000038003800380038FFF8FFF8FFF8E038D0
:10035000E038E038E038E038E038FFF8FFF8FFF840
:10036000E038E038E038E038E038E038FFF8FFF80F
:10037000FFF8FFF8FFF8FFF8E038E038E038E03841
:10038000E038E038FFF8FFF8FFF8003800380038B0
:10039000003800380038FFF8FFF8FFF83FE07FF042
:1003A000FFF8E038E038E038E038E038E038E038AE
:1003B000E038E038E038E038E038E038E038E0387D
:1003C000FFF87FF03FE007000F001F001F001F0035
:1003D00007000700070007000700070007000700E5
:1003E00007000700070007000700FFF8FFF8FFF805
:1003F0003FE07FF0FFF8E038003800380038003880
:1004000000383FF87FF0FFE0E000E000E000E000AF
:10041000E000E000FFF8FFF8FFF83FE07FF0FFF8B2
:10042000E038003800380038003800381FF01FE08E
:100430001FF000380038003800380038E038FFF886
:100440007FF03FE0E1C0E1C0E1C0E1C0E1C0E1C058
:10045000E1C0E1C0E1C0FFF8FFF8FFF801C001C052
:1004600001C001C001C001C001C001C001C0FFF84E
:10047000FFF8FFF8E000E000E000E000E000E0004E
:10048000FFE0FFF0FFF8003800380038003800388F
:10049000E038FFF87FF03FE0E000E000E000E0003F
:1004A000E000E000E000E000E000FFE0FFF0FFF827
:1004B000E038E038E038E038E038E038FFF87FF046
:1004C0003FE0FFF8FFF8FFF8003800380038003848
:1004D000003800380038003800380038003800385C
:1004E0000038003800380038003800383FE07FF02E
:1004F000FFF8E038E038E038E038E03870703FE08E
:100500001FC03FE07070E038E038E038E038E03895
:10051000FFF87FF03FE03FE07FF0FFF8E038E038A1
:10052000E038E038E038E038FFF87FF83FF800388E
:1005300000380038003800380038003800380038FB
:100540007C82828282828282827C103050101010E3
:10055000101010FE384482820408102040FE7C8275
:1005600002023C020282827C060C14244484FE04B3
:100570000404FE8080FC02020282827C7C828080F5
:10058000FC828282827C7E8202040810202020204D
:100590007C8282827C828282827C7C828282827E57
:1005A0000202827C407E887E4848FE0808087E421F
:1005B000427E42427E4246827E92BA92BA82BAAA73
:1005C000BA86087E547E5C405C5448960000000069
:1005D000FE00000000000000007E000000FF0000A0
:1005E000007E0000003C000000FFFFA9A9A9A9A906
:1005F000C781FF817E1010107C14141414FF301872
:1006000008FF0024246666C27F4141417F41414189
:10061000417F0000000000000000181800000000EA
:1006200000000000000002E2BFA2EAAAA2AAE602BD
:1006300038242442BD242424448C10FF3C243CFF55
:10064000813C2447203E40BE2AFF327E02044040C7
:1006500040F75555555750B05C14D476405C54540F
:1006600068567E5A7EFF7E427E7E42FF000000007A
:1006700000606000606010107E427E427E427E42DA
:10068000047E087E08FF080828180202BF623A228A
:100690007ABB224548487ED46254D448546210FE46
:1006A00092FE9292FE10121EFE040810FE10101010
:1006B0005030FE40507E5252525252A40000000070
:1006C0007E7E000000007E4141417E414141417EED
:1006D000414122140814222241414141412214087F
:1006E00008080808FE828282FE82828282FE845F7F
:1006F000C45F555F444E55BF08FF817E04FF080864
:1007000038082444FF4E55555F6544447C828282FC
:1007100082828282827C103050101010101010FEE5
:10072000384482820408102040FE7C8202023C028F
:100730000282827C060C14244484FE040404FE809D
:1007400080FC02020282827C7C828080FC82828227
:10075000827C7E8202040810202020207C828282FB
:100760007C828282827C7C828282827E0202827C85
:10077000407E887E4848FE0808087E42427E42420B
:100780007E4246827E92BA92BA82BAAABA86087E1F
:10079000547E5C405C54489600000000FE0000005F
:1007A00000000000007E000000FF0000007E00004E
:1007B000003C000000FFFFA9A9A9A9A9C781FF81EA
:1007C0007E1010107C14141414FF301808FF00243D
:1007D000246666C27F4141417F414141417F000023
:1007E00000000000000018180000000000000000D9
:1007F0000000FE8282828282828282FE10101010AD
:10080000101010101010FE02020202FE808080FE06
:10081000FE02020202FE020202FE8282828282FE48
:1008200002020202FE80808080FE020202FEFE8042
:10083000808080FE828282FEFE02020202020202AA
:100840000202FE82828282FE828282FEFE82828298
:1008500082FE020202FE80FE887E4848FE080808EA
:100860007E42427E42427E424246FE92BA92BA8224
:10087000BAAABA86DFD0101010101010101F000096
:100880000000FE0000000000007C000000000000EE
:1008900000FEFE0000007C00000000FEFEAAAAAAE6
:1008A000AAEE828282FEFE202020FC24242424FE44
:1008B000201010FE4444444444447E4242427E425E
:1008C0004242427E000000000000000018180000B4
:1008D00000000000000000007C828282828282820E
:1008E000827C103050101010101010FE7C8202021A
:1008F000027C808080FE7C820202027C0202827C7A
:100900008888888888FE08080808FE80808080FC27
:100910000202827C8080808080FC8282827CFE0257
:1009200002020202020202027C828282827C8282B3
:10093000827C7C828282827E02020202407E887EEB
:100940004848FE0808087E42427E42427E42468275
:100950007E92BA92BA82BAAABA86BC42404040405D
:100960004040423C00000000FE000000000000008B
:10097000007E000000FF0000007E0000003C000040
:1009800000FFFFA9A9A9A9A9C781FF817E101010A6
:100990007C14141414FF2010FE0044444444448288
:1009A0007E4242427E424242427E000000000000FF
:1009B00000001818000000000000000000000840BF
:1009C00049402A400884FFFE19082C884A8810886C
:1009D000FE902250222014501888250E4204020056
:1009E00001003FFC200440081FE00040008001049B
:1009F000FFFE0100010001000100050002000008E7
:100A000004087E08440847FE440844087C8844489B
:100A10004448440844087C0844480028001010203A
:100A2000102010201C2421FE21247D249124112437
:100A3000FDFC112410201420182010200020000498
:100A40007FFE44084808482851F849284928452885
:100A50004528452869E851284008402840100200F0
:100A600002000208FFFC0400090011083FFC5108C5
:100A7000910811081108112811100100010002004D
:100A8000020002107FF8421042107FF04210421024
:100A90007FF0421002000204020401FC000000008A
:100AA0003FF000100020004001800104FFFE010023
:100AB000010001000100010001000500020001F039
:100AC0002110111011100110020EF40013F811087A
:100AD0001110109010A0144018B0130E0C043FF821
:100AE00024483FF801007FFC01001FF010101FF0A8
:100AF00010101FF010101FF01014FFFE0000004037
:100B0000404437FE104007FC0444F44417FC1444EE
:100B100010E0115812481440284647FC000001001C
:100B200000843FFE222022283FFC222023E02000D8
:100B30002FF022202140208043608C1E30040108C9
:100B40007FFC00101FF8101010101FF000007FFE37
:100B500040228FF40820082008221022601E00087E
:100B600004087E08440847FE440844087C8844483A
:100B70004448440844087C084448002800102004E5
:100B80001BFE080440244FF44824482448244FE422
:100B90004824482448244FE44824401440080800CE
:100BA00008081FFC1100210041101FF8110011005E
:100BB0001104FFFE0100010001000100010000100E
:100BC0000FF80810081008100FF00810081008108F
:100BD0000FF00810081010101010205040200010C6
:100BE0001FF8101010101010101010101FF010101F
:100BF00010101010101010101FF0101000000080C6
:100C00000480044008400820101020084FEE84247F
:100C10000420042004200420082011402080042007
:100C20000E207820082008A8FEA608A21D201A245D
:100C30002824282848108820084008800B00082015
:100C40000920092011101210320E54049BF01110CB
:100C50001110111011101210121014A010400008E1
:100C60003FFC20083FF820083FF8010021083FFC26
:100C700021004110BFF801000104FFFE0000220422
:100C8000227E22447F4422443E7C22443E4422442D
:100C9000227CFFC4004424442284411482080008BA
:100CA0003FFC210821482FE8210821283FF820484F
:100CB00027E824482448244847C884280010010015
:100CC000020004101FF8101010101FF01010101068
:100CD00010101FF01010101010101FF01010001046
:100CE00000F87F00010001103FF80100010001043D
:100CF000FFFE0100010001000100050002000040AC
:100D000008407C40004405FEFE441044104420444A
:100D100024444284FE844104010402280410020099
:100D200001003FFC200440081FE000400080010457
:100D3000FFFE01000100010001000500020010801B
:100D40001080108020882FFC62A0A2A02490249004
:100D500028882BEE30842080208020802080104046
:100D60001020100413FEFC00108831063A8A5488C3
:100D700050509050102010501088130E1C0410007A
:100D800010001004127EFF44124412441244124414
:100D900022442244224422444A7C8444000000101D
:100DA0004018301417FE041004100DD0141425D46C
:100DB000E5542554255825D0252A084610821000D0
:100DC00010081FFC20105FF8121011101014FFFE05
:100DD0001210211020103FF8002000A00040100445
:100DE00009FE7F20224414FE7F8444944894529448
:100DF00044A448A452A444A4484890862102040074
:100E0000040007F0082008481FFC28884888088844
:100E10000FF8080808000802080207FE000010107A
:100E2000082004483FFC210821083FF82108210838
:100E30003FF821000104FFFE010001000100100045
:100E4000100823FC20204420F820102020204020DF
:100E5000FC20402000201C20E02447FE0000100859
:100E600013FC200821F84408FFFE10402244414CA6
:100E7000F95000E001501A48E44E4144008004401B
:100E800004503FF804400444FFFE01101FF8111005
:100E90001FF011101FF01000046018186004020009
:100EA00001043FFE200020702F80288028882FFC1E
:100EB0002880288028404A404DA48894000C0008CF
:100EC0004FFC2100211007F80210E2143FFE200021
:100ED000200827FC24082C08340827F804080200FE
:100EE00001103FF8082004200444FFFE00101FF802
:100EF000101010101FF0101010101FF0101010081C
:100F000011FC11081108FD281110150019F83108FD
:100F1000D190115011201150118E51042100000860
:100F20007FFC0100010001000100111011F8110007
:100F300011001100110011001104FFFE000001005A
:100F4000111009207FFE40028FE408200FE00110FD
:100F50001FF8111011101110115001200100100084
:100F6000100010041FFE24444444844408440884B0
:100F7000088410841104210442040428081010403D
:100F8000105010481040FC4413FE1440186030A06C
:100F9000D0A010A010A011221122521E2400101067
:100FA0000818042004487FFC010001000104FFFE32
:100FB00001000280028004400830300EC00420048A
:100FC0001BFE0804408440A45FF4408441844284B2
:100FD000448448845084408442844114400811244D
:100FE0001FBECFE5D4E0DEBFCDBF10E0A0E6B0E08D
:100FF000ECEEF1E302C005900D92A438B107D9F7E9
:1010000012E0A4E8B0E001C01D92A83BB107E1F7EF
:101010000E9489170C94F5180C94000006C020E07B
:1010200000002F5F2930E1F701970097C1F708957D
:10103000CF93DF93EC0105C080E197E20E940E0898
:1010400021972097C9F7DF91CF9108958FB78093AB
:101050009000F8948F9A97988CE390E00E940E0885
:10106000979A8F9885E090E00E940E0880B382E303
:1010700090E00E940E088091900087FF01C0789454
:1010800008950F931F938FB780939000F89408E012
:1010900010E016958F9A979881E090E00E940E08D4
:1010A000979A8F9881E090E00E940E0887991068C7
:1010B00083E090E00E940E08015059F78091900063
:1010C00087FF01C07894812F90E01F910F910895C0
:1010D0000F931F93182F8FB780939000F89408E018
:1010E0008F9A979881E090E00E940E0810FD979AE1
:1010F00084E090E00E940E08979A015011F0169536
:10110000EFCF8091900087FF01C078941F910F91DD
:1011100008950E9426088CEC0E94680884E40E94CE
:1011200068080895EF92FF920F931F93CF93DF9378
:10113000CDB7DEB722970FB6F894DEBF0FBECDBF96
:101140000E9426088CEC0E9468088EEB0E946808BA
:101150008E010F5F1F4FE3E0EE2EF12CEC0EFD1E13
:101160000E944108F80181938F01EE15FF05C1F738
:101170008A8190E0F82FEE27898190E0E82BF92B07
:10118000CF018070907F8050904F11F040E004C0FC
:10119000F095E195FF4F41E0CF01880F991F9F0126
:1011A00053E0220F331F5A95E1F7820F931F24E07B
:1011B000969587952A95E1F768EE73E00E94CD1821
:1011C0009C01413021F48EE080936F0006C064E6FC
:1011D00070E00E94CD1860936F00C90164E670E072
:1011E0000E94CD186AE070E00E94CD1860937000F4
:1011F000EF70F07081E792E09C01E29FC001E39FF5
:10120000900DF29F900D112468EE73E00E94CD18AE
:101210006093710022960FB6F894DEBF0FBECDBF6B
:10122000DF91CF911F910F91FF90EF900895F89467
:101230008CB390E0DC01A270B07081FD4AC08CECF0
:10124000082E0E94E91880917200A1E0B0E0082EFB
:101250000E94E91880917300A2E0B0E0082E0E947D
:10126000E91880917400A3E0B0E0082E0E94E9180C
:1012700080917500A4E0B0E0082E0E94E9188091EA
:101280007600A5E0B0E0082E0E94E9188091770072
:10129000A6E0B0E0082E0E94E91880917800A7E04F
:1012A000B0E0082E0E94E91880917A00A8E0B0E032
:1012B000082E0E94E91880917B00A9E0B0E0082E7A
:1012C0000E94E91880917C00A0E1B0E0082E0E9405
:1012D000E91878940895F8948CB390E0DC01A2703A
:1012E000B07081FD4DC00E94E118802D8C3C09F04A
:1012F0003FC0A1E0B0E00E94E118802D8093720011
:10130000A2E0B0E00E94E118802D80937300A3E07A
:10131000B0E00E94E118802D80937400A5E0B0E059
:101320000E94E118802D80937600A6E0B0E00E9434
:10133000E118802D80937700A7E0B0E00E94E118CB
:10134000802D80937800A8E0B0E00E94E118802D05
:1013500080937A00A9E0B0E00E94E118802D80938C
:101360007B00A0E1B0E00E94E118802D80937C001A
:101370008091730029E1829FC001112489518CBFA3
:1013800078940895BB9AB89AB99ABA9ABC9A8C9AEA
:101390008D9AD19AD29AD39AD49A8A9A8B9A109289
:1013A0009B0210929A0210929F0210928F0010924C
:1013B0008E0008951F939091B5002091BD0030914B
:1013C000C5004091B4005091BC006091C400709180
:1013D000FD00E0910501F0910D01A091FC00B0919C
:1013E000040110910C01882319F1906C9093B500C1
:1013F000206C2093BD00306C3093C5004160409359
:10140000B40051605093BC0061606093C400706C84
:101410007093FD00E06CE0930501F06CF0930D011A
:10142000A160A093FC00B160B0930401116022C0E0
:101430009F739093B5002F732093BD003F7330933B
:10144000C5004E7F4093B4005E7F5093BC006E7F1A
:101450006093C4007F737093FD00EF73E093050108
:10146000FF73F0930D01AE7FA093FC00BE7FB0939D
:1014700004011E7F10930C011F910895CF93DF93F9
:10148000E42FF0E025E0EE0FFF1F2A95E1F7E2548C
:10149000F64FA62FB0E093E0AA0FBB1F9A95E1F795
:1014A000A80FB11DAF56BF4F90E084918C93319639
:1014B0008491ED0189839F5F319618969031A9F749
:1014C000DF91CF9108959AE0499F90011124205C0B
:1014D0003A4FA62FB0E043E0AA0FBB1F4A95E1F7B1
:1014E000A80FB11DAF56BF4F90E0F90184918C93C6
:1014F0009F5F2F5F3F4F18969A30B9F70895CF93AB
:10150000DF93982F80917B008823E9F48AE0489F3D
:1015100090011124245F384FA62FB0E073E0AA0F8A
:10152000BB1F7A95E1F7A90FB11DAF56BF4F90E0F1
:10153000F90184918C939F5F2F5F3F4F58969A30AB
:1015400009F43BC0F5CF70E0A92FB0E08130D9F4A9
:101550008AE0489F900111242E50384FEB0163E040
:10156000CC0FDD1F6A95E1F7CA0FDB1FCF56DF4FA7
:1015700090E0F901849188839F5F2F5F3F4F6896C9
:101580009A30D9F0F6CF8AE0489F90011124285272
:10159000374FEB0153E0CC0FDD1F5A95E1F7CA0F2F
:1015A000DB1FCF56DF4F90E0F901849188839F5F66
:1015B0002F5F3F4F68969A30B9F7DF91CF9108952A
:1015C0001F93CF93DF93982F80917B008823A9F5F9
:1015D00085E1489FF0011124EE0FFF1FEC5AFF4FE9
:1015E000A92FB0E0AF56BF4F10E070E048E050E0E8
:1015F000461B570B249130E0C901062E02C0959579
:1016000087950A94E2F78C933196849190E0062EA8
:1016100002C0959587950A94E2F7042E02C0220F26
:10162000331F0A94E2F7822BED0189831F5F319605
:101630001896153109F46AC0DDCF292F30E08130CA
:1016400099F585E1489FF0011124EE0FFF1FE85046
:10165000FE4FD901AF56BF4F10E070E048E050E0B8
:10166000461B570B249130E0C901062E02C0959508
:1016700087950A94E2F78C933196849190E0062E38
:1016800002C0959587950A94E2F7042E02C0220FB6
:10169000331F0A94E2F7822BED0189831F5F319695
:1016A0001896153199F1DECF85E1489FF00111249C
:1016B000EE0FFF1FE456FC4FD901AF56BF4F10E0AD
:1016C00070E048E050E0461B570B249130E0C90120
:1016D000062E02C0959587950A94E2F78C93319671
:1016E000849190E0062E02C0959587950A94E2F7C2
:1016F000042E02C0220F331F0A94E2F7822BED0161
:1017000089831F5F319618961531F9F6DF91CF91D5
:101710001F910895CF93DF9380917B00882331F54B
:1017200090916C008AE0989FF0011124E45FF84FDB
:10173000C6E8D2E09E01849189933196D90182E076
:10174000C039D807C1F790916D008AE0989FF001E9
:101750001124E45FF84F8491ED018A873196119648
:1017600082E0A039B80709F44AC0F5CF90916C0027
:10177000813019F58AE0989FF0011124EE50F84F5E
:10178000C6E8D2E09E01849189933196D90182E026
:10179000C039D807C1F790916D008AE0989FF00199
:1017A0001124EE50F84F8491ED018A8731961196FD
:1017B00082E0A039B80719F1F6CF8AE0989FF001CE
:1017C0001124E852F74FC6E8D2E09E018491899334
:1017D0003196D90182E0C039D807C1F790916D00E8
:1017E0008AE0989FF0011124E852F74F8491ED01AF
:1017F0008A873196119682E0A039B807B9F7DF9150
:10180000CF910895CF93DF9320918E0030918F0078
:101810002F5F3F4F30938F0020938E0040917400D4
:1018200089E090E0841B9109AC0173E0440F551FDF
:101830007A95E1F7880F991F840F951F82179307F8
:1018400068F410928F0010928E0080919F028F5F3B
:1018500080939F02813C10F010929F029298809199
:101860009B02863008F458C080917500882309F0E7
:1018700053C090919F0230919B0280919B02482F10
:1018800050E023E0440F551F2A95E1F7292F2695B4
:101890002695269588E1389FF0011124E20FF11D6D
:1018A000EF54FF4FC6E8D0E09770A92FB0E068E092
:1018B00070E06A1B7B0B218130E0062E02C035955B
:1018C00027950A94E2F7819190E00A2E02C0880FD2
:1018D000991F0A94E2F7282B299380E0CC38D80787
:1018E00051F7DA01AF56BF4F80918B00887F80930C
:1018F0008B00E0919B02F0E0E058FD4F80818093E7
:101900008C00E0919B02F0E0EA57FD4F84818093C8
:101910008D00FE01369716C080919B02A82FB0E083
:1019200093E0AA0FBB1F9A95E1F7AF56BF4F809186
:101930009B02E82FF0E083E0EE0FFF1F8A95E1F7AE
:10194000EF5EFE4F80917A00882309F4A5C129C07B
:1019500094989598D998DA98DB98DC988C9190E0D7
:10196000022E02C0959587950A94E2F780FD949A1D
:10197000808190E0022E02C0959587950A94E2F747
:1019800080FD959A9398939A215030408FEF2F3F86
:101990003807F1F64F5F483009F41BC111963196B4
:1019A0007CC1813051F57CC194989598D998DA988A
:1019B000DB98DC988C9190E0022E02C0959587957B
:1019C0000A94E2F780FDD99A808190E0022E02C04D
:1019D000959587950A94E2F780FDDA9A9398939A01
:1019E000215030408FEF2F3F3807F1F64F5F4830DE
:1019F00009F4EFC01196319654C1823071F554C18B
:101A000094989598D998DA98DB98DC988C9190E026
:101A1000022E02C0959587950A94E2F780FF02C0D6
:101A2000949AD99A808190E0022E02C0959587956C
:101A30000A94E2F780FF02C0959ADA9A9398939AF3
:101A4000215030408FEF2F3F3807D1F64F5F48309D
:101A500009F4BFC01196319628C1833051F528C1D1
:101A600094989598D998DA98DB98DC988C9190E0C6
:101A7000022E02C0959587950A94E2F780FDDB9AC5
:101A8000808190E0022E02C0959587950A94E2F736
:101A900080FDDC9A9398939A215030408FEF2F3F2E
:101AA0003807F1F64F5F483009F493C0119631962C
:101AB00000C1843071F500C194989598D998DA984E
:101AC000DB98DC988C9190E0022E02C0959587956A
:101AD0000A94E2F780FF02C0D99ADB9A808190E0F5
:101AE000022E02C0959587950A94E2F780FF02C006
:101AF000DA9ADC9A9398939A215030408FEF2F3FD7
:101B00003807D1F64F5F483009F463C0119631961B
:101B1000D4C0853069F5D4C094989598D998DA984E
:101B2000DB98DC988C9190E0022E02C09595879509
:101B30000A94E2F780FF02C0949ADB9A808190E0D9
:101B4000022E02C0959587950A94E2F780FF02C0A5
:101B5000959ADC9A9398939A215030408FEF2F3FBB
:101B60003807D1F64F5F4830A1F111963196A9C0E0
:101B7000863079F5A9C094989598D998DA98DB9829
:101B8000DC988C9190E0022E02C0959587950A947E
:101B9000E2F780FF03C0949AD99ADB9A808190E0A3
:101BA000022E02C0959587950A94E2F780FF03C044
:101BB000959ADA9ADC9A9398939A215030408FEF55
:101BC0002F3F3807C1F64F5F483019F01196319614
:101BD0007CC0929A80919B02873099F1883070F492
:101BE000833039F1843028F48130E1F08230E0F440
:101BF00017C0853011F1863010F51DC08B3059F1BA
:101C00008C3028F4893011F18A3018F51CC08D30E1
:101C100049F18D3018F18E3049F18F3079F529C0B6
:101C2000C49812C0C49813C0C498C298C19AC098EE
:101C300027C0C49811C0C49812C0C49814C0C498D6
:101C400016C0C49817C0C49AC2980AC0C49AC29851
:101C50000BC0C49AEACFC49AC2980DC0C49AC29A63
:101C6000C198E5CFC49AC29AC19806C0C49AC29AD4
:101C7000DDCFC49AC29AC19AC09A02C010929B0248
:101C800080919B028F5F80939B0280919B028031A9
:101C9000F9F410929B021CC040E027E030E058CEDF
:101CA00040E027E030E080CE40E027E030E0A8CE02
:101CB00040E027E030E0D4CE40E027E030E0FCCE4A
:101CC00040E027E030E028CF40E027E030E053CF8D
:101CD000DF91CF91089516BE84E680B911B812B88D
:101CE00084E086BF089584EA86BF06B607FEFDCF6E
:101CF000089583B984E886BF06B607FEFDCF0000CD
:101D000081B190E0887F9070089584EC86BF06B61C
:101D100007FEFDCF83B190E0089584E986BF089562
:101D2000FC0102C0119261506623E1F708951F93F0
:101D3000CF93DF93EC01162F84EA86BF06B607FE29
:101D4000FDCF8D2F9927880F8E550E94790E8831EF
:101D500039F48C2F0E94790E812F0E94790E03C0D6
:101D600081E08093AA0284E986BFDF91CF911F9121
:101D70000895EF92FF921F93CF93DF93EC017B01C5
:101D8000142F84EA86BF06B607FEFDCF8D2F992754
:101D9000880F8E550E94790E883171F48C2F0E9425
:101DA000790E07C0F70181917F010E94790E000032
:101DB00011501123B9F703C081E08093AA0284E98E
:101DC00086BFDF91CF911F91FF90EF900895EF9222
:101DD000FF920F931F93CF93DF93EC017B01142F9E
:101DE000892F9927082F000F84EA86BF06B607FEC1
:101DF000FDCF802F8E550E94790E883121F48C2FD3
:101E00000E94790E03C081E08093AA0284EA86BF13
:101E100006B607FEFDCF802F8D550E94790E8831C2
:101E200021F48C2F0E94790E0EC081E08093AA02CB
:101E30000AC084EC86BF06B607FEFDCF83B1F7016A
:101E400081937F0111501123A1F7DF91CF911F9151
:101E50000F91FF90EF90089568E080EB92E00E9470
:101E6000900E68E080EA92E00E94900E60E280E0CE
:101E700090E00E94970E60E080E090E00E94970E54
:101E8000089547E06DE770E082E090E00E94E70E81
:101E900080917D00982F9F7790937D0020917E0008
:101EA000422F4F7740937E0050917F00752F7F73B4
:101EB00070937F00E0918000AE2FAF73A0938000FD
:101EC000F0918100F770F093810030918200632FD0
:101ED0006F71609382008F7080936D0092959F70F8
:101EE00090936C002F7020936B0042954F7040933D
:101EF0006A005F705093690072957F7070936800FC
:101F0000EF70E0936700A295AF70A09366003F70FA
:101F10003093650062956F706093640080918300D8
:101F2000982F9F709093630082958F7080936200CA
:101F3000FF5FF0936E000895CF93DF93CDB7DEB7C8
:101F400027970FB6F894DEBF0FBECDBF60916A0031
:101F50006295607F80916B00682B5091680052956C
:101F6000507F80916900582B409166004295407FD8
:101F700080916700482B70916E0071503091640021
:101F80003295307F80916500382B20916200229538
:101F9000207F80916300282B80916C008295807F48
:101FA00090916D00892B89836A835B834C837D8349
:101FB0003E832F8347E0BE016F5F7F4F82E090E05A
:101FC0000E94B90E27960FB6F894DEBF0FBECDBFA4
:101FD000DF91CF9108951F9380916600882309F0C7
:101FE0004AC010916700113009F045C08091680027
:101FF000882309F040C0809169008330E1F5809129
:102000006A008330A1F580916B008823A1F580914F
:10201000760090917900882369F0992361F52091E9
:102020007800225E809177003AE0839FC0011124FE
:10203000280F0DC09923F9F4809177002AE0829F40
:10204000C00111242EE1281B80917800281B822FCB
:102050006AE00E94C11880936A00822F0E94C11812
:1020600090936B000E949C0F1093790004C0853000
:1020700011F4109279001F910895AA9AA298A39A38
:10208000A49A08959091AF029B3009F432C19C301C
:1020900058F5953009F4AAC0963098F4923009F4B6
:1020A00058C0933038F4992309F449C0913009F0AD
:1020B000E5C148C0933009F45DC0943009F0DEC139
:1020C00082C0983009F4CBC0993038F4963009F4C6
:1020D000A0C0973009F0D2C1B3C0993009F4DAC07A
:1020E0009A3009F0CBC1F2C0913109F489C1923123
:1020F00098F49E3009F437C19F3038F49C3009F4CD
:102100000FC19D3009F0BAC11AC19F3009F446C110
:10211000903109F0B3C157C1943109F49EC1953192
:1021200038F4923109F47AC1933109F0A7C186C11C
:10213000943609F498C1953609F0A0C197C1109260
:10214000AB02089589E18093850290939C0282E01E
:102150000EC080919C02882309F090C19A9B8EC189
:1021600086E18093850281E080939C0283E08093E6
:10217000AF02089580919C02882309F07FC19A9B49
:102180007DC1809168002AE0829FC00111242091C6
:102190006900280F2730A8F0822F8750863010F46E
:1021A0008CE10AC0822F8D50863010F48DE104C07E
:1021B0002351253030F48EE18093850281E08093B5
:1021C0009C0284E0D4CF80919C02882309F056C100
:1021D0009A9B54C180916800823030F08F5F809369
:1021E000850281E080939C0285E0C1CF80919C02B2
:1021F000882309F043C19A9B41C1809168008823DC
:1022000031F08BE08093850281E080939C0286E030
:10221000AECF80919C02882309F030C19A9B2EC1D9
:1022200090916900992321F480916800882331F40A
:102230009F5F9093850281E080939C0287E097CF17
:1022400080919C02882309F019C19A9B17C18DE0E7
:102250008093850281E080939C0288E088CF809102
:102260009C02882309F00AC19A9B08C180916A00E8
:10227000882331F480916B00882351F48AE103C0F4
:10228000823030F08F5F8093850281E080939C02E2
:1022900089E06DCF80919C02882309F0EFC09A9B62
:1022A000EDC080916A00882329F480916B00882317
:1022B00031F40AC08BE08093850281E003C081E0A5
:1022C0008093850280939C028AE051CF80919C028A
:1022D000882309F0D3C09A9BD1C080916B008823DA
:1022E00031F08F5F8093850281E080939C028BE0C8
:1022F0003ECF80919C02882309F0C0C09A9BBEC04B
:1023000080916A00882321F480916B00882331F04A
:102310008EE08093850281E080939C028CE027CF41
:1023200080919C02882309F0A9C09A9BA7C088EEDF
:1023300093E09093A9028093A8028DE018CF80913A
:10234000A8029091A90201979093A9028093A802F4
:10235000892B09F093C087E18093850281E0809307
:102360009C028EE004CF80919C02882309F086C0F5
:102370009A9B84C090916F00892F8250883020F4FE
:102380009F5F9093850205C09B3030F08FE1809372
:10239000850281E080939C028FE0E9CE80919C02CF
:1023A000882309F06BC09A9B69C080916F008823D5
:1023B00041F08E3031F08BE08093850281E0809394
:1023C0009C0280E1D4CE80919C02882309F056C003
:1023D0009A9B54C080917000882329F08F5F80936E
:1023E000850281E009C080916F00882311F08E3052
:1023F00029F481E08093850280939C0281E1B7CE2D
:1024000080919C028823D1F59A9B38C08DE08093FF
:10241000850281E080939C0282E1A9CE80919C029A
:10242000882361F59A9B2AC0809171008F5F809309
:10243000850281E080939C0283E199CE80919C0289
:102440008823E1F49A9B1AC094E19093850281E07D
:1024500080939C029093AF02089580919C02882300
:1024600069F49A9B0BC01092AF02089580919C0270
:10247000882321F49A9B02C01092AF0208958091A4
:102480009C02823011F1833030F4882361F0813076
:1024900009F049C00EC0843089F1843010F18530D4
:1024A00009F041C037C082E08093AC02AC98AB9891
:1024B0000895AC98AB9A8091AC0281508093AC02A5
:1024C000882389F5AB9882E022C080918502882319
:1024D00029F081E08093AC0283E019C010929C0245
:1024E0000895AC988091AC0281508093AC0288230F
:1024F000D1F481E08093AC0284E009C0AC9A809171
:10250000AC0281508093AC02882369F485E080930B
:102510009C020895AC988091850281508093850239
:1025200082E080939C020895AE9AA698AF9AA798ED
:10253000909A8898919A89980895CF92DF92EF9215
:10254000FF920F931F93CF93DF93D82EC62EEA01ED
:1025500079019E9927C080E29EE40197F1F79E9948
:102560001FC084E68093AF0210929E0210929D02DB
:102570008881F90130813F5F2AE0829FC0011124E8
:10258000380FD31608F4362F832F6AE00E94C11843
:102590008883832F0E94C118F7019083F801099561
:1025A0009E9BFECF9F9929C080E29EE40197F1F7A0
:1025B0009F9921C084E68093AF0210929E021092F0
:1025C0009D028881F701308131502AE0829FC0014D
:1025D0001124380FD31610F03C1508F43D2D832F2D
:1025E0006AE00E94C1188883832F0E94C118F701F6
:1025F0009083F80109959F9BFECFDF91CF911F91AA
:102600000F91FF90EF90DF90CF90089516B880E47F
:1026100087B987ED86B9089524B185B190E0982FE8
:10262000882730E0822B932B9695879583976CE3D0
:1026300070E00E94CD1898E0892F861B809373006C
:10264000893018F09093730005C0882319F481E055
:10265000809373008091730029E1829FC00111244F
:1026600089518CBF089513BE12BE89E783BF809144
:102670007200893040F48091730029E1829FC0018B
:102680001124895101C084E68CBF089515BC12BC89
:1026900083E884BD82E883BD89B7806489BF84E014
:1026A00085BD0895D79A089540E051E06FEF70E03E
:1026B00081E990E00E94BA18089580E091E0E1E994
:1026C000F0E011920197E9F70895F89415BE1BBE4A
:1026D0000E94C2090E9494120E943D100E9433136E
:1026E0000E9446130E942C0FD79A109284021092D7
:1026F0008302109282021092810210929E02109226
:102700009D020E9426080E945D1378940895CF933D
:10271000DF938CE18093750040E060E080E00E94F0
:102720003E0A41E060E082E00E943E0A42E060E052
:1027300084E00E943E0A43E060E086E00E943E0A98
:1027400044E060E180E00E943E0A45E060E182E012
:102750000E943E0A46E060E184E00E943E0A47E0B3
:1027600060E186E00E943E0AC0E0D0E00E94020CD8
:102770008AE090E00E940E08219683E1C838D807CD
:10278000A9F70E945D1310927500DF91CF91089513
:102790000E945D134091680060E080E00E94E00AC2
:1027A0004091690060E082E00E94E00A40916A0086
:1027B00063E084E00E94E00A40916B0063E086E001
:1027C0000E94E00A4091600067E180E00E947F0A79
:1027D0004091610067E181E00E947F0A40916200C0
:1027E00067E182E00E947F0A4091630067E183E035
:1027F0000E947F0A4AE067E184E00E947F0A4091DC
:10280000640067E185E00E947F0A4091650067E10E
:1028100086E00E947F0A4BE067E187E00E947F0A22
:102820004091660068E180E00E947F0A4091670065
:1028300068E181E00E947F0A44E168E182E00E9451
:102840007F0A4CE068E184E00E947F0A40916E00BC
:10285000435F68E185E00E947F0A40916F0068E174
:1028600087E00E947F0A4091700069E180E00E9449
:102870007F0A45E169E181E00E947F0A4091710091
:1028800069E182E00E947F0A4DE069E183E00E94F5
:102890007F0A08950E945D134DE160E080E00E9490
:1028A0003E0A4DE060E180E00E943E0A4AE166E1B6
:1028B00086E00E94630A4BE066E187E00E94630ABB
:1028C00080917600882311F04BE101C041E266E17E
:1028D00082E00E94630A4091770060E083E00E94FA
:1028E000E00A4091780060E085E00E94E00A48E15B
:1028F0006BE087E00E94630A08950E945D1348E040
:1029000060E080E00E943E0A49E060E082E00E94D0
:102910003E0A4BE160E180E00E943E0A4CE160E14A
:1029200082E00E943E0A4EE166E184E00E94630A72
:1029300043E060E085E00E94E00A08950E945D1394
:1029400048E060E080E00E943E0A49E060E082E00A
:102950000E943E0A4CE060E180E00E943E0A4BE0AB
:1029600060E182E00E943E0A4EE166E184E00E945E
:10297000630A80917200882311F049E101C048E1A7
:1029800060E086E00E943E0A4AE160E186E00E9443
:102990003E0A08950E945D1380917200882301F120
:1029A00048E060E080E00E943E0A49E060E082E0AA
:1029B0000E943E0A4CE060E180E00E943E0A4BE04B
:1029C00060E182E00E943E0A4EE166E184E00E94FE
:1029D000630A4091730060E085E00E94E00A089578
:1029E0000E949E1408950E945D1348E260E080E01A
:1029F0000E943E0A49E260E082E00E943E0A4AE20A
:102A000060E180E00E943E0A4DE060E182E00E94C9
:102A10003E0A4EE166E184E00E94630A80917C00F8
:102A2000882339F44BE260E086E00E943E0A4CE2E3
:102A30000FC0813039F44DE260E086E00E943E0A2A
:102A40004EE206C04FE260E086E00E943E0A40E3AC
:102A500060E186E00E943E0A08950E945D1348E00E
:102A600060E080E00E943E0A49E060E082E00E946F
:102A70003E0A4AE060E180E00E943E0A4BE060E1ED
:102A800082E00E943E0A4EE166E184E00E94630A11
:102A90004091740060E085E00E94E00A08950E9481
:102AA0005D1348E060E080E00E943E0A49E060E09B
:102AB00082E00E943E0A45E160E180E00E943E0A19
:102AC00046E160E182E00E943E0A4EE166E184E078
:102AD0000E94630A40916E0060E085E00E94E00A77
:102AE0000895DF92EF92FF920F931F938C017B0169
:102AF000D42E0E945D1348E060E080E00E943E0A10
:102B000049E060E180E00E943E0AF801408160E017
:102B100082E00E94E00AF701408160E084E00E94C8
:102B2000E00A4D2D60E186E00E943E0A1F910F9160
:102B3000FF90EF90DF9008958BE690E042E1BC01BA
:102B400001970E947115089589E690E04DE0BC015F
:102B500001970E947115089587E690E041E1BC015C
:102B600001970E947115089585E690E040E1BC014F
:102B700001970E947115089583E690E04FE0BC0133
:102B800001970E94711508950F931F93CF93DF93C0
:102B9000CDB7DEB721970FB6F894DEBF0FBECDBF1D
:102BA000809175008823A9F08B3199F08A3189F0E2
:102BB00080919D0290919E028950924550F0109212
:102BC00075000E949C0F0E9417090E945D130E94CD
:102BD000C813809175008A51823068F48091AD02EB
:102BE0009091AE02855F914030F0109275000E9486
:102BF00017090E94C813819916C080E29EE40197CC
:102C0000F1F781990EC081E08093AF0280917A0044
:102C10008F5F80937A00873010F010927A000E94C4
:102C20001709819BFECF80917500882329F08B3195
:102C300019F08A3109F04DC09E992AC080E29EE4C5
:102C40000197F1F79E9922C084E68093AF028091AC
:102C50007200882391F0809173008F5F80937300DE
:102C6000893018F081E0809373008091730029E12E
:102C7000829FC001112489518CBF8BE18093750024
:102C80001092AE021092AD020E94CA149E9BFECF1B
:102C90009F99D2C080E29EE40197F1F79F9916C0F8
:102CA00084E68093AF02809174008F5F80937400FC
:102CB000893018F081E0809374008AE18093750078
:102CC0001092AE021092AD020E942D159F99B4C0D1
:102CD000FDCF813049F40CEB15E123E630E042E60C
:102CE00050E060E083E6A6C0823049F404EB15E1D1
:102CF00025E630E044E650E061E08CE09BC08330A4
:102D000049F40CEA15E127E630E046E650E061E0E0
:102D10008FE190C0843049F404EA15E129E630E0FF
:102D200048E650E060E087E185C0853049F40CE971
:102D300015E12BE630E04AE650E060E08BE37AC034
:102D4000863059F419820FE415E12EE630E0AE0129
:102D50004F5F5F4F61E087E06DC0873059F41982A3
:102D60000EE914E122E730E0AE014F5F5F4F60E013
:102D700081E060C0883031F419820DE714E12BE75F
:102D800030E053C0893009F049C09E9929C080E2E3
:102D90009EE40197F1F79E9921C010929E02109235
:102DA0009D0284E68093AF02309178003F5F80916E
:102DB00077002AE0829FC0011124380F353108F0D6
:102DC00030E0832F6AE00E94C11880937700832F40
:102DD0000E94C118909378000E944A149E9BFECFD7
:102DE0009F992AC080E29EE40197F1F79F9913C052
:102DF00010929E0210929D0284E68093AF02809111
:102E00007600882319F01092760003C081E0809349
:102E100076000E944A149F990FC0FDCF8A3061F45A
:102E2000198203EF14E12CE730E0AE014F5F5F4FF2
:102E300060E082E00E949D12809960C080E29EE482
:102E40000197F1F7809958C084E68093AF02109201
:102E50009E0210929D02809175008F5F8093750095
:102E60008B3010F01092750080917500853099F1CB
:102E7000863070F4823031F1833028F48823B1F049
:102E80008130D1F51CC0833001F18430A9F520C018
:102E9000883051F1893028F4863001F1873061F5AE
:102EA00020C0893021F18A3039F524C00E949C0F5E
:102EB0000E9417090E945D130E94C8131DC00E9442
:102EC000BC151AC00E94B41517C00E94AC1514C0DE
:102ED0000E94A41511C00E949C150EC00E944F159F
:102EE0000BC00E949E1408C00E947D1405C00E9461
:102EF0004A1402C00E94F314809BFECF21960FB6A5
:102F0000F894DEBF0FBECDBFDF91CF911F910F911F
:102F10000895FF920F931F930E9465130E948908E2
:102F200086E090E00E9418080E94920880991CC0D8
:102F300080E29EE40197F1F7809916C081E08093CA
:102F40007200809373008093740010927500109249
:102F50007600109277001092780010927A0010920A
:102F60007B001CBE0E9417090E946B090E948713F8
:102F70000E94410F0E94C81381E08093AF0211E0CC
:102F8000FF2400E080917500882309F070C00023C1
:102F900019F0DF9A00E002C0DF9801E00E94410FC3
:102FA0000E948A0B80916C00882359F480916D00F7
:102FB000882339F4112329F00E94EB0F0E94C813D3
:102FC00010E080916C00853029F480916D0089308B
:102FD00009F411E080916D00F81629F081700E94CB
:102FE000DA09F0906D0040917C004423D1F4809187
:102FF0006A008823E1F580916B008823C1F58091F8
:103000006C008823A1F580916D008A3080F5809155
:10301000AB02882361F581E08093AB028093AF021D
:1030200026C0413021F580916900875020916800C9
:103030009AE0299F90011124820F8131C0F4809180
:103040006A008823A1F480916B00882381F4809129
:103050006C00882361F480916D008A3040F4809187
:10306000AB02882321F44093AB024093AF020E944D
:10307000020C0E94C41586CF1F920F920FB60F92BA
:1030800011242F933F934F935F936F937F938F936D
:103090009F93AF93BF93EF93FF930E943F120E94C1
:1030A000421080917500882309F03FC08091AF02E3
:1030B0008823D9F5809183029091840201969093A0
:1030C0008402809383028253984C11F40E948908F1
:1030D000809183029091840281569A4E30F00E9432
:1030E00092081092840210928302809172008823C9
:1030F000E1F4809181029091820201969093820284
:10310000809381022EE2803E920731F416B880E46B
:1031100087B987ED86B909C08D50904330F00E9481
:103120000C13109282021092810280919D02909164
:103130009E02019690939E0280939D028091AD0223
:103140009091AE0201969093AE028093AD0283E817
:1031500084BDFF91EF91BF91AF919F918F917F912E
:103160006F915F914F913F912F910F900FBE0F90F4
:103170001F901895DC0101C06D9341505040E0F75D
:103180000895991B79E004C0991F961708F0961BC3
:10319000881F7A95C9F780950895AA1BBB1B51E13A
:1031A00007C0AA1FBB1FA617B70710F0A61BB70BB7
:1031B000881F991F5A95A9F780959095BC01CD015C
:1031C0000895E199FECFBFBBAEBBE09A11960DB258
:1031D0000895E199FECFBFBBAEBB0DBA11960FB6F5
:0C31E000F894E29AE19A0FBE0895FFCF28
:1031EC0002000102000101070202010900000202B3
:1031FC0003040007010000000000000000405923F8
:04320C002905020886
:00000001FF
