:100000000C9433020C944E020C944E020C944E024B
:100010000C941A0D0C944E020C944E020C944E0249
:100020000C944E020C944E020C944E020C944E0210
:100030000C944E020C944E020C944E020C944E0200
:100040000C944E020C944E020C944E020C944E02F0
:100050000C944E020200038006001FFC1FFC180CCB
:100060001FFC1FFC180C1FFC1FFC180C1FFC1FFCA6
:10007000180C180C00083FFC3FFC018001803FFC7D
:100080001FF801807FFF7FFE0180018001800780D3
:1000900007800000000000303E303F3001FE01FECE
:1000A0007F367F3618761866366676E67EC639DE87
:1000B000039C000000006006700E700E781E781E13
:1000C0007C3E6C366E76666667C663C66186618600
:1000D000700E700E00003FFF3FFF30C300C000C035
:1000E00000C000C000C000C000C000C000C000C010
:1000F00007F807F8000003FC0FFE0E071C031807A3
:10010000180E001C0038007000E001C003800700DA
:100110001FFF1FFF7C82828282828282827C10305B
:1001200050101010101010FE384482820408102065
:1001300040FE7C8202023C020282827C060C142475
:100140004484FE040404FE8080FC02020282827C5D
:100150007C828080FC828282827C7E820204081003
:10016000202020207C8282827C828282827C7C820F
:100170008282827E0202827C407E887E4848FE081F
:1001800008087E42427E42427E4246827E92BA9277
:10019000BA82BAAABA86087E547E5C405C544896FD
:1001A00000000000FE00000000000000007E0000D3
:1001B00000FF0000007E0000003C000000FFFFA9DF
:1001C000A9A9A9A9C781FF817E1010107C1414145D
:1001D00014FF301808FF0024246666C27F414141A5
:1001E0007F414141417F00000000000000001818DD
:1001F0000000000000000000000002E2BFA2EAAA26
:10020000A2AAE60238242442BD242424448C10FFF0
:100210003C243CFF813C2447203E40BE2AFF327EE6
:100220000204404040F75555555750B05C14D47601
:10023000405C545468567E5A7EFF7E427E7E42FF6A
:100240000000000000606000606010107E427E428E
:100250007E427E42047E087E08FF080828180202BB
:10026000BF623A227ABB224548487ED46254D448C1
:10027000546210FE92FE9292FE10121EFE040810AE
:10028000FE1010105030FE40507E5252525252A476
:10029000000000007E7E000000007E4141417E4162
:1002A0004141417E414122140814222241414141F1
:1002B0004122140808080808FE828282FE82828297
:1002C00082FE07800FC03FE0387070707038703861
:1002D0006038E038E038E038E038E03860387038CE
:1002E000703070703CE01FE00F80060003001F00BC
:1002F000FF00FF00C7000700070007000700070016
:1003000007000700070007000700070007000700B5
:1003100007007FF87FF80FC03FF03FF83038003813
:1003200000180018003800380038007000E001C0E4
:10033000038007000E001C00380070007FF87FF873
:100340001F803FE03FF0207800380038007000E068
:100350001FC01FC01FF000380038003800380038B8
:10036000003860F07FF07FC00E0001E001E003E0A4
:1003700003E006E00EE01CE018E030E070E060E032
:10038000E0E0C0E0FFF8FFF8FFF800E000E000E088
:1003900000E000E03FF83FF83FF838003800380050
:1003A00038003F803FE03FF0007800380038001808
:1003B00000180018003870F07FF03FC00E0003C036
:1003C0000FE01FF03C0070007000E000E7C0FFE0AD
:1003D000FFF0F078E038E038E038E038E038707866
:1003E00078703FE01FC00700FFF8FFF8FFF00070D3
:1003F0000070006000E000C001C001C00380038005
:100400000300070007000E000E001C001C001C006B
:1004100038000F803FE07FF07070E070E070707027
:1004200079E01FC01F803FE070F0E070E038C03816
:10043000E038E038F0F07FF03FC006001F803FC09A
:100440007FE0E070E070C030C038E038E078F0F86D
:100450007FF83FB8003000300070007000E043E0EB
:100460007FC07F001C0011241FBECFE5D4E0DEBF9B
:10047000CDBF10E0A0E6B0E0ECE2FCE102C00590E8
:100480000D92A238B107D9F712E0A2E8B0E001C09E
:100490001D92AD39B107E1F70C94A30D0C94000047
:1004A000009741F02FE330E02450304037FFFCCF7D
:1004B0000197F6CF0895CF93DF93EC01892B31F0AC
:1004C00080E197E20E9450022197D1F7DF91CF910E
:1004D00008958FB780938E00F8948F9A97988CE345
:1004E00090E00E945002979A8F9885E090E00E94D9
:1004F000500280B382E390E00E94500280918E000F
:1005000087FF01C0789408951F93CF9310E08FB7B1
:1005100080938E00F894C8E016958F9A979881E0A2
:1005200090E00E945002979A8F9881E090E00E949C
:1005300050028799106883E090E00E945002C150F9
:1005400059F780918E0087FF01C07894812F9927F9
:10055000CF911F9108951F93CF93C82F8FB780938A
:100560008E00F89418E08F9A979881E090E00E94AE
:100570005002C0FD979A84E090E00E945002979A42
:10058000C695115081F780918E0087FF01C0789445
:10059000CF911F9108950E9469028CEC0E94AB02DA
:1005A00084E40E94AB020895CF92DF92EF92FF9213
:1005B0000F931F93CF93DF93CDB7DEB722970FB67C
:1005C000F894DEBF0FBECDBF0E9469028CEC0E9482
:1005D000AB028EEB0E94AB02EE24FF246E01089466
:1005E000C11CD11C87010C0D1D1D0E948402F80145
:1005F00080830894E11CF11CF2E0EF16F10470F323
:10060000F6018181E82EFF24FE2CEE2489819927B2
:10061000E82AF92AC7018070907F8050904F31F40A
:1006200041E0F094E194F108F39401C040E09701B7
:100630002F70307081E792E0289FB001299F700DE4
:10064000389F700D1124CB0168EE73E00E94EE0D0F
:100650009B01C70153E0880F991F5A95E1F78E0D52
:100660009F1D8E0D9F1D34E0969587953A95E1F775
:1006700068EE73E00E94EE0D7C0164E670E00E947B
:10068000EE0D413021F48EE08093760002C060933D
:100690007600C70164E670E00E94EE0D6AE070E04B
:1006A0000E94EE0D609377002093780022960FB69B
:1006B000F894DEBF0FBECDBFDF91CF911F910F9198
:1006C000FF90EF90DF90CF900895F8948CB3992726
:1006D000DC01A270B07081FD3CC08CEC082E0E9441
:1006E0000A0EA1E0B0E080917900082E0E940A0E67
:1006F000A2E0B0E080917A00082E0E940A0EA3E0EA
:10070000B0E080917B00082E0E940A0EA4E0B0E0C9
:1007100080917C00082E0E940A0EA5E0B0E0809136
:100720007D00082E0E940A0EA6E0B0E080917E00B7
:10073000082E0E940A0EA7E0B0E080917F00082EEC
:100740000E940A0EA8E0B0E080918100082E0E946D
:100750000A0E78940895F8948CB39927DC01A2705E
:10076000B07081FD46C00E94020E802D8C3C09F0C5
:1007700038C0A1E0B0E00E94020E802D8093790085
:10078000A2E0B0E00E94020E802D80937A00A3E0E8
:10079000B0E00E94020E802D80937B00A4E0B0E0C8
:1007A0000E94020E802D80937C00A5E0B0E00E94A4
:1007B000020E802D80937D00A6E0B0E00E94020E24
:1007C000802D80937E00A7E0B0E00E94020E802D75
:1007D00080937F00A8E0B0E00E94020E802D8093FD
:1007E000810090917A0089E1989FC001112488517D
:1007F0008CBF78940895BB9AB89AB99ABA9ABC9A61
:100800008C9A8D9ABE9ABF9A8A9A8B9A1092860277
:100810001092840210928302109285021092890233
:1008200010928D0010928C001092940210929302FC
:10083000089580E091E0EFE8F0E011920197E9F788
:10084000089540E051E06FEF70E08FE890E00E9483
:10085000D80D0895CF939091B3002091BB003091B3
:10086000C3004091B2005091BA006091C2007091F3
:10087000FB00E0910301F0910B01A091FA00B0910F
:100880000201C0910A01882319F1906C9093B30082
:10089000206C2093BB00306C3093C30041604093C8
:1008A000B20051605093BA0061606093C200706CF6
:1008B0007093FB00E06CE0930301F06CF0930B018C
:1008C000A160A093FA00B160B0930201C16022C0A0
:1008D0009F739093B3002F732093BB003F733093AB
:1008E000C3004E7F4093B2005E7F5093BA006E7F8C
:1008F0006093C2007F737093FB00EF73E09303017A
:10090000FF73F0930B01AE7FA093FA00BE7FB0930C
:100910000201CE7FC0930A01CF910895242F33277F
:10092000A62FBB27E3E0AA0FBB1FEA95E1F7A80FAC
:10093000B11DA157BF4F9FE075E0220F331F7A957D
:10094000E1F7A9014B5A5F4F2C5A3F4FF9018491AF
:100950008C93FA018491FD01818391502E5F3F4F6A
:100960004E5F5F4F189697FFF1CF08959AE0499F29
:10097000A0011124A62FBB27F3E0AA0FBB1FFA95F5
:10098000E1F7A80FB11DA157BF4F4C5E5E4F99E034
:10099000FA0184918C93189691504F5F5F4F97FFA7
:1009A000F7CF08959AE0499FA0011124A62FBB27F5
:1009B00093E0AA0FBB1F9A95E1F7A80FB11DA157AD
:1009C000BF4F4C5E5E4F99E0FA0184918C9358962C
:1009D00091504F5F5F4F97FFF7CF0895EF92FF92CF
:1009E0001F93CF93DF93242F3327A82FBB27462FA6
:1009F0005527C8E0D0E0C41BD50BA157BF4F85E1F8
:100A000090E0289FB001299F700D389F700D112430
:100A1000CB0114E1860F971FBC016D537D4F22EC73
:100A2000E22E22E0F22EE80EF91EF7018491282F23
:100A30003327C901042E02C0959587950A94E2F7E1
:100A40008C93FB0184910C2E02C0220F331F0A9459
:100A5000E2F79927042E02C0959587950A94E2F74C
:100A6000822BFD018183115082E090E0E80EF91E97
:100A7000680F791F189617FFD8CFDF91CF911F917C
:100A8000FF90EF900895DF92EF92FF920F931F93E4
:100A90008C017B01D42E0E9419044CE160E0862F6A
:100AA0000E94B6044DE160E081E00E94B6044EE190
:100AB00060E082E00E94B604F801408160E083E0DB
:100AC0000E94EE04F701408160E085E00E94EE04A0
:100AD0004D2D6BE087E00E94B6041F910F91FF90AF
:100AE000EF90DF9008954AE06AE670E089E690E0D2
:100AF0000E94430508954BE06CE670E08BE690E0C1
:100B00000E944305089544E16EE670E08DE690E0B2
:100B10000E944305089547E160E770E08FE690E0AA
:100B20000E944305089548E162E770E081E790E0A4
:100B30000E94430508950E9419044CE160E0862F4D
:100B40000E94B6044DE160E081E00E94B6044EE1EF
:100B500060E082E00E94B6044CE06BE083E00E941B
:100B6000B6044091750060E085E00E94EE040895AF
:100B70000E9419044CE160E0862F0E94B6044DE10A
:100B800060E081E00E94B60449E160E082E00E94FA
:100B9000B6044DE060E083E00E94B6044EE160E000
:100BA00084E00E94B60440917900411141E06CE07C
:100BB00083E00E948E0442E06CE085E00E948E0497
:100BC00008950E9419044CE160E0862F0E94B6044B
:100BD0004DE160E081E00E94B60442E26BE080E01B
:100BE0000E94B60447E16BE081E00E94B6044EE14A
:100BF0006BE082E00E94B6044AE166E186E00E9472
:100C0000B6044BE066E187E00E94B60480917D0067
:100C1000882311F04BE101C041E266E182E00E94CD
:100C2000B60440917E0060E083E00E94EE044091B3
:100C30007F0060E085E00E94EE0448E16BE087E021
:100C40000E94B60408950E94190440916F0060E06C
:100C5000862F0E94EE044091700060E082E00E94C6
:100C6000EE044091710063E084E00E94EE04409144
:100C7000720063E086E00E94EE044091670067E145
:100C800080E00E94D2044091680067E181E00E9408
:100C9000D2044091690067E182E00E94D204409151
:100CA0006A0067E183E00E94D2044AE067E184E0E1
:100CB0000E94D20440916B0067E185E00E94D2045B
:100CC00040916C0067E186E00E94D2044BE067E14E
:100CD00087E00E94D20440916D0068E180E00E94AC
:100CE000D20440916E0068E181E00E94D20444E1A8
:100CF00068E182E00E94D2044CE068E184E00E9456
:100D0000D20480917500835F482F68E185E00E94DE
:100D1000D2044091760068E187E00E94D2044091BD
:100D2000770069E180E00E94D20445E169E181E059
:100D30000E94D2044091780069E182E00E94D204CE
:100D40004DE069E183E00E94D2040895FF920F9381
:100D50001F93CF93DF9340918C0050918D004F5F94
:100D60005F4F50938D0040938C0080917B0029E071
:100D700030E0281B3109C90173E0880F991F7A956B
:100D8000E1F7820F931F820F931F8417950768F472
:100D900010928D0010928C00809189028F5F809359
:100DA0008902813C10F01092890220917C0022235C
:100DB000E9F48091830290918402019690938402D9
:100DC00080938302855E924088F010928402109294
:100DD000830280918502882321F020938502822F4F
:100DE00003C081E0809385020E942A0480918602DC
:100DF000863008F447C080917C00882309F042C007
:100E000090918902392F37702091860288E1289FBE
:100E1000F0011124969596959695E90FF11D809114
:100E20008602A82FBB2763E0AA0FBB1F6A95E1F7D4
:100E3000A157BF4F632F772748E050E0461B570B61
:100E400004E810E0E155FF4F57E0F52E8081282F90
:100E50003327062E02C0220F331F0A94E2F7818146
:100E60009927042E02C0959587950A94E2F7822B64
:100E7000E80189938E01FA943196F7FEE7CFE4E812
:100E8000F0E016C080918602A82FBB2743E0AA0F8E
:100E9000BB1F4A95E1F7A157BF4F80918602E82F0B
:100EA000FF2733E0EE0FFF1F3A95E1F7E15FFE4FBA
:100EB00080918100882349F5582F47E027E030E0F2
:100EC000949A959AC69AC79A8C919927022E02C035
:100ED000959587950A94E2F780FD949880819927EB
:100EE000022E02C0959587950A94E2F780FD9598A9
:100EF0009398939A41502150304047FFE1CF11968B
:100F000031965F5F5830C8F2AFC0813049F550E08C
:100F100047E027E030E0949A959AC69AC79A8C9158
:100F20009927022E02C0959587950A94E2F780FDD5
:100F3000C69880819927022E02C0959587950A94BC
:100F4000E2F780FDC7989398939A41502150304022
:100F500047FFE1CF119631965F5F5830C8F284C0E9
:100F6000823069F550E047E027E030E0949A959AA6
:100F7000C69AC79A8C919927022E02C0959587959B
:100F80000A94E2F780FF02C09498C698808199275E
:100F9000022E02C0959587950A94E2F780FF02C061
:100FA0009598C7989398939A41502150304047FFA5
:100FB000DDCF119631965F5F5830A8F255C083306F
:100FC00049F550E047E027E030E094989598C69ABC
:100FD000C79A8C919927022E02C0959587950A94FD
:100FE000E2F780FDC69880819927022E02C0959570
:100FF00087950A94E2F780FDC7989398939A415099
:101000002150304047FFE1CF119631965F5F583055
:10101000C8F22AC0843041F550E047E027E030E0D4
:10102000949A959AC698C7988C919927022E02C0D7
:10103000959587950A94E2F780FD94988081992789
:10104000022E02C0959587950A94E2F780FD959847
:101050009398939A41502150304047FFE1CF119629
:1010600031965F5F5830C8F29298929A80918602CA
:1010700099278730910509F442C088309105ACF476
:101080008330910581F1843091054CF481309105D4
:1010900031F1823091052CF5892BF9F04CC0853067
:1010A000910539F106974CF520C08B30910591F1EF
:1010B0008C30910534F48930910531F10A973CF573
:1010C00020C08D30910559F18D30910534F18E306D
:1010D000910539F10F9751F12EC0C49813C0C498EF
:1010E00014C0C49815C0C49816C0C498C29AC198B8
:1010F0001BC0C498C29AC1981CC0C49813C0C4989D
:1011000016C0C49AC298F3CFC49AC298F4CFC49AB6
:10111000C29809C0C49AC2980BC0C49AE7CFC49AB7
:10112000E9CFC49AC29AC19AC09807C0C49AC29A19
:10113000C19AC09A02C010928602809186028F5F87
:101140008093860280918602803111F4109286028B
:10115000DF91CF911F910F91FF900895CF93DF936F
:101160008CE180937C0043E060E081E00E948E048B
:1011700044E060E083E00E948E0445E060E0842F5C
:101180000E948E0443E264E180E00E94B60444E2DF
:1011900064E181E00E94B6044AE264E182E00E94D8
:1011A000B60445E264E183E00E94B60446E264E1ED
:1011B00084E00E94B60447E264E185E00E94B60440
:1011C00048E264E186E00E94B60449E264E187E017
:1011D0000E94B604C7E8D3E10E94A6068AE090E028
:1011E0000E9450022197D7FFF7CF0E941904109256
:1011F0007C00DF91CF91089516BE84E680B911B8C6
:1012000012B884E086BF089584EA86BF06B607FE5A
:10121000FDCF089583B984E886BF06B607FEFDCFEB
:10122000000081B19927887F9070089584EC86BF73
:1012300006B607FEFDCF83B19927089584E986BFDE
:101240000895FC01662319F011926150FBCF0895B7
:101250000F931F93CF93DF93EC01062F892F9927CC
:10126000182F110F0E940409812F8E550E940A0920
:10127000883139F48C2F0E940A09802F0E940A09B4
:1012800003C081E0809392020E941E09DF91CF91FA
:101290001F910F910895EF92FF920F931F93CF9399
:1012A000DF93EC017B01042F892F9927182F110F51
:1012B0000E940409812F8E550E940A09883169F421
:1012C0008C2F0E940A09002359F0F70181917F01B8
:1012D0000E940A0900000150F6CF81E0809392023B
:1012E0000E941E09DF91CF911F910F91FF90EF9007
:1012F0000895EF92FF920F931F93CF93DF93EC012A
:101300007B01042F892F9927182F110F0E940409A0
:10131000812F8E550E940A09883121F48C2F0E945A
:101320000A0903C081E0809392020E940409812F80
:101330008D550E940A09883121F48C2F0E940A09D8
:1013400003C081E080939202002339F00E941609C5
:10135000F70181937F010150C9F7DF91CF911F9170
:101360000F91FF90EF90089568E085E992E00E9468
:10137000210968E08AE892E00E94210960E280E0A9
:1013800090E00E94280960E080E090E00E94280937
:10139000089547E060E670E082E090E00E947909FD
:1013A00080916000982F9F7790936000209161005A
:1013B000422F4F774093610050916200752F7F73E9
:1013C00070936200E0916300AE2FAF73A09363004F
:1013D000F0916400F770F093640030916500632F22
:1013E0006F71609365008F708093740092959F7009
:1013F000909373002F702093720042954F7040932A
:1014000071005F705093700072957F7070936F00E1
:10141000EF70E0936E00A295AF70A0936D003F70E7
:1014200030936C0062956F7060936B0080916600E2
:10143000982F9F7090936A0082958F7080936900B7
:10144000FF5FF09375000895CF93DF93CDB7DEB7BC
:1014500027970FB6F894DEBF0FBECDBF8091730003
:10146000992764E0880F991F6A95E1F7209174002D
:10147000282B298380917100992754E0880F991FA8
:101480005A95E1F720917200282B2A8380916F00F2
:10149000992744E0880F991F4A95E1F72091700041
:1014A000282B2B8380916D00992734E0880F991F9A
:1014B0003A95E1F720916E00282B2C8380917500DE
:1014C00081508D8380916B00992724E0880F991FAC
:1014D0002A95E1F720916C00282B2E8380916900DA
:1014E0009927B4E0880F991FBA95E1F720916A0017
:1014F000282B2F8347E0BE016F5F7F4F82E090E093
:101500000E944B0927960FB6F894DEBF0FBECDBFE1
:10151000DF91CF910895CF9380916D00882309F0DA
:1015200062C0C0916E00C13009F05DC090916F0043
:10153000992309F058C080917000833009F053C09E
:1015400080917100833009F04AC080917200882335
:1015500009F049C080917D008823F9F02091800036
:101560002223D9F43AE0225E80917E00839FC0015D
:101570001124280F80917F00280F822F632F0E9453
:10158000E20D80937100822F0E94E20D9093720011
:101590000E94240AC093800026C0882321F58091F0
:1015A0008000882301F53AE02EE180917E00839F40
:1015B000C0011124281B80917F00281B822F632FDC
:1015C0000E94E20D80937100822F0E94E20D9093A1
:1015D00072000E94240A81E08093800004C085305C
:1015E00011F490938000CF910895AE9AA698AF9A87
:1015F000A798909A8898919A89980895CF92DF92A7
:10160000EF92FF920F931F93CF93DF93D82EC62EA6
:10161000EA0179019E9920C080E29EE40197F1F7EA
:101620009E9918C088813AE0839FC0011124F70178
:101630002081280F2F5FD21608F4262F822F632FC8
:101640000E94E20D8883822F0E94E20DF7019083B1
:10165000F80109959E9BFECF9F992EC080E29EE4E3
:101660000197F1F79F9926C088813AE0839FC001D6
:101670001124F7012081280F215080E090E0D2163C
:1016800010F481E090E040E050E02C1510F441E0CF
:1016900050E0842B952B892B09F02D2D822F632F61
:1016A0000E94E20D8883822F0E94E20DF701908351
:1016B000F80109959F9BFECFDF91CF911F910F916C
:1016C000FF90EF90DF90CF9008950F931F93CF93EB
:1016D000DF93CDB7DEB722970FB6F894DEBF0FBE0B
:1016E000CDBF80917C00882389F080918702909102
:1016F00088028950924550F010927C000E94240A82
:101700000E9465030E9419040E942306819913C058
:1017100080E29EE40197F1F781990BC080918100EE
:101720008F5F80938100853010F0109281000E94BD
:101730006503819BFECF80917C008823C9F5809151
:1017400079008823F1F09E991CC080E29EE4019705
:10175000F1F79E9914C080917A008F5F80937A0090
:10176000893018F081E080937A0090917A0089E1C5
:10177000989FC001112488518CBF0E9465039E9BD5
:10178000FECF9F99A4C080E29EE40197F1F79F9954
:101790000CC080917B008F5F80937B00893018F0B4
:1017A00081E080937B000E9465039F9BFECF8FC0EA
:1017B000813049F403E715E02AE630E049E650E0DD
:1017C00060E083E645C0823049F40BE715E02CE683
:1017D00030E04BE650E061E08CE03AC0833049F401
:1017E00003E815E02EE630E04DE650E061E08FE1E1
:1017F0002FC0843049F40BE815E020E730E04FE6D5
:1018000050E060E087E124C0853049F403E915E049
:1018100022E730E041E750E060E08BE319C086301A
:1018200059F419820BE915E025E730E0AE014F5F6E
:101830005F4F61E087E00CC0873069F41A8208EBE3
:1018400015E029E730E0AE014E5F5F4F6A8181E02D
:101850000E94FE0A3CC08830D1F59E9922C080E2E9
:101860009EE40197F1F79E991AC080917E003AE0BC
:10187000839FC001112420917F00280F2F5F253105
:1018800008F020E0822F632F0E94E20D80937E00FB
:10189000822F0E94E20D90937F000E94E1059E9BA3
:1018A000FECF9F9914C080E29EE40197F1F79F99C3
:1018B0000CC080917D00882319F010927D0003C038
:1018C00081E080937D000E94E1059F9BFECF80997F
:1018D0005EC080E29EE40197F1F780B399279C01F6
:1018E0002170307080FD51C03093880220938702B0
:1018F00080917C008F5F80937C00893010F0109283
:101900007C0080917C0099278430910581F185309D
:1019100091057CF48130910509F1823091051CF428
:10192000892B99F032C082309105D9F00397E1F00C
:101930002CC08630910509F186309105DCF08730A6
:101940009105F1F00897F9F020C00E94240A0E9446
:1019500065030E9419040E94230617C00E947305A4
:1019600014C00E947B0511C00E9483050EC00E9416
:101970008B050BC00E94930508C00E949B0505C003
:101980000E94B80502C00E94E105809BFECF22960E
:101990000FB6F894DEBF0FBECDBFDF91CF911F9180
:1019A0000F91089516B880E487B987ED86B9089538
:1019B00084B1282F332785B19927982F8827822B28
:1019C000932B9695879583976CE370E00E94EE0DBC
:1019D000CB0198E0292F281B20937A00921718F446
:1019E00090937A0005C0222319F481E080937A0055
:1019F00090917A0089E1989FC001112488518CBF91
:101A0000089513BE12BE89E783BF809179008930A3
:101A100040F490917A0089E1989FC0011124885187
:101A200001C084E68CBF089585E085BD89B78064D8
:101A300089BF08951F920F920FB60F9211242F9312
:101A40003F934F935F936F937F938F939F93AF9346
:101A5000BF93EF93FF9380917C008823D1F5809111
:101A6000810290918202019690938202809381027A
:101A70008253984C11F40E94CB0280918102909184
:101A8000820281569A4E30F00E94D4021092820255
:101A900010928102809179008823D9F480917F028D
:101AA0009091800201969093800280937F02843609
:101AB000910511F40E94D20C80917F0290918002D6
:101AC000893C910530F00E94D80C1092800210924F
:101AD0007F028091870290918802019690938802FC
:101AE0008093870214BCFF91EF91BF91AF919F91BA
:101AF0008F917F916F915F914F913F912F910F90B7
:101B00000FBE0F901F901895F89415BE1BBE0E9433
:101B1000FB030E94F50A0E94010D0E94140D0E9411
:101B2000B4091092820210928102109280021092E7
:101B30007F0210928802109287020E9469020E941E
:101B4000190478940895CFE5D4E0DEBFCDBF0E949C
:101B5000840D0E94AB030E94AE080E94CB0286E077
:101B600090E00E945B020E94D4020E94C9090E9478
:101B7000230680917C008823B1F40E94C9098091DA
:101B80009302909194020196909394028093930211
:101B90008151974240F00E948B0A0E9423061092C6
:101BA0009402109293020E94A6060E94650BE1CF58
:101BB000DC0140FF03C001C06D936D934250504063
:101BC000D8F70895991B79E004C0991F961708F07B
:101BD000961B881F7A95C9F780950895AA1BBB1B91
:101BE00051E107C0AA1FBB1FA617B70710F0A61B1D
:101BF000B70B881F991F5A95A9F780959095BC013E
:101C0000CD010895E199FECFBFBBAEBBE09A11961E
:101C10000DB20895E199FECFBFBBAEBB0DBA1196D0
:0C1C20000FB6F894E29AE19A0FBE089506
:101C2C0040592329050208020001020001010702A4
:101C3C000201090000020203040007010000000079
:021C4C00000096
:00000001FF
