:100000000C94EF070C940C080C940C080C940C083E
:100010000C94BA120C940C080C940C080C940C0858
:100020000C940C080C940C080C940C080C940C0800
:100030000C940C080C940C080C940C080C940C08F0
:100040000C940C080C940C080C940C080C940C08E0
:100050000C940C0807800FC03FE038707070703847
:1000600070386038E038E038E038E038E038603840
:100070007038703070703CE01FE00F8006000300A5
:100080001F00FF00FF00C700070007000700070070
:100090000700070007000700070007000700070028
:1000A000070007007FF87FF80FC03FF03FF83038B7
:1000B000003800180018003800380038007000E0E0
:1000C00001C0038007000E001C00380070007FF89C
:1000D0007FF81F803FE03FF0207800380038007044
:1000E00000E01FC01FC01FF0003800380038003883
:1000F0000038003860F07FF07FC00E0001E001E0C2
:1001000003E003E006E00EE01CE018E030E070E001
:1001100060E0E0E0C0E0FFF8FFF8FFF800E000E09A
:1001200000E000E000E03FF83FF83FF8380038001A
:10013000380038003F803FE03FF00078003800385A
:10014000001800180018003870F07FF03FC00E0053
:1001500003C00FE01FF03C0070007000E000E7C03B
:10016000FFE0FFF0F078E038E038E038E038E038E1
:10017000707878703FE01FC00700FFF8FFF8FFF0CD
:1001800000700070006000E000C001C001C003808A
:1001900003800300070007000E000E001C001C0077
:1001A0001C0038000F803FE07FF07070E070E0705E
:1001B000707079E01FC01F803FE070F0E070E038A1
:1001C000C038E038E038F0F07FF03FC006001F8014
:1001D0003FC07FE0E070E070C030C038E038E078C9
:1001E000F0F87FF83FB8003000300070007000E099
:1001F00043E07FC07F001C00FFF8FFF8FFF8E03805
:10020000E038E038E038E038E038E038E038E0382E
:10021000E038E038E038E038E038E038FFF8FFF860
:10022000FFF80700070007000700070007000700A6
:100230000700070007000700070007000700070086
:10024000070007000700070007000700FFF8FFF896
:10025000FFF8003800380038003800380038FFF860
:10026000FFF8FFF8E000E000E000E000E000E00060
:10027000FFF8FFF8FFF8FFF8FFF8FFF80038003844
:100280000038003800380038FFF8FFF8FFF8003871
:1002900000380038003800380038FFF8FFF8FFF861
:1002A000E038E038E038E038E038E038E038E0388E
:1002B000E038FFF8FFF8FFF8003800380038003861
:1002C00000380038003800380038FFF8FFF8FFF831
:1002D000E000E000E000E000E000E000FFF8FFF8F0
:1002E000FFF8003800380038003800380038FFF8D0
:1002F000FFF8FFF8FFF8FFF8FFF8E000E000E0008B
:10030000E000E000E000FFF8FFF8FFF8E038E03838
:10031000E038E038E038E038FFF8FFF8FFF8FFF8A1
:10032000FFF8FFF80038003800380038003800388F
:1003300000380038003800380038003800380038FD
:100340000038003800380038FFF8FFF8FFF8E038D0
:10035000E038E038E038E038E038FFF8FFF8FFF840
:10036000E038E038E038E038E038E038FFF8FFF80F
:10037000FFF8FFF8FFF8FFF8E038E038E038E03841
:10038000E038E038FFF8FFF8FFF8003800380038B0
:10039000003800380038FFF8FFF8FFF83FE07FF042
:1003A000FFF8E038E038E038E038E038E038E038AE
:1003B000E038E038E038E038E038E038E038E0387D
:1003C000FFF87FF03FE007000F001F001F001F0035
:1003D00007000700070007000700070007000700E5
:1003E00007000700070007000700FFF8FFF8FFF805
:1003F0003FE07FF0FFF8E038003800380038003880
:1004000000383FF87FF0FFE0E000E000E000E000AF
:10041000E000E000FFF8FFF8FFF83FE07FF0FFF8B2
:10042000E038003800380038003800381FF01FE08E
:100430001FF000380038003800380038E038FFF886
:100440007FF03FE0E1C0E1C0E1C0E1C0E1C0E1C058
:10045000E1C0E1C0E1C0FFF8FFF8FFF801C001C052
:1004600001C001C001C001C001C001C001C0FFF84E
:10047000FFF8FFF8E000E000E000E000E000E0004E
:10048000FFE0FFF0FFF8003800380038003800388F
:10049000E038FFF87FF03FE0E000E000E000E0003F
:1004A000E000E000E000E000E000FFE0FFF0FFF827
:1004B000E038E038E038E038E038E038FFF87FF046
:1004C0003FE0FFF8FFF8FFF8003800380038003848
:1004D000003800380038003800380038003800385C
:1004E0000038003800380038003800383FE07FF02E
:1004F000FFF8E038E038E038E038E03870703FE08E
:100500001FC03FE07070E038E038E038E038E03895
:10051000FFF87FF03FE03FE07FF0FFF8E038E038A1
:10052000E038E038E038E038FFF87FF83FF800388E
:1005300000380038003800380038003800380038FB
:100540007C82828282828282827C103050101010E3
:10055000101010FE384482820408102040FE7C8275
:1005600002023C020282827C060C14244484FE04B3
:100570000404FE8080FC02020282827C7C828080F5
:10058000FC828282827C7E8202040810202020204D
:100590007C8282827C828282827C7C828282827E57
:1005A0000202827C407E887E4848FE0808087E421F
:1005B000427E42427E4246827E92BA92BA82BAAA73
:1005C000BA86087E547E5C405C5448960000000069
:1005D000FE00000000000000007E000000FF0000A0
:1005E000007E0000003C000000FFFFA9A9A9A9A906
:1005F000C781FF817E1010107C14141414FF301872
:1006000008FF0024246666C27F4141417F41414189
:10061000417F0000000000000000181800000000EA
:1006200000000000000002E2BFA2EAAAA2AAE602BD
:1006300038242442BD242424448C10FF3C243CFF55
:10064000813C2447203E40BE2AFF327E02044040C7
:1006500040F75555555750B05C14D476405C54540F
:1006600068567E5A7EFF7E427E7E42FF000000007A
:1006700000606000606010107E427E427E427E42DA
:10068000047E087E08FF080828180202BF623A228A
:100690007ABB224548487ED46254D448546210FE46
:1006A00092FE9292FE10121EFE040810FE10101010
:1006B0005030FE40507E5252525252A40000000070
:1006C0007E7E000000007E4141417E414141417EED
:1006D000414122140814222241414141412214087F
:1006E00008080808FE828282FE82828282FE845F7F
:1006F000C45F555F444E55BF08FF817E04FF080864
:1007000038082444FF4E55555F6544447C828282FC
:1007100082828282827C103050101010101010FEE5
:10072000384482820408102040FE7C8202023C028F
:100730000282827C060C14244484FE040404FE809D
:1007400080FC02020282827C7C828080FC82828227
:10075000827C7E8202040810202020207C828282FB
:100760007C828282827C7C828282827E0202827C85
:10077000407E887E4848FE0808087E42427E42420B
:100780007E4246827E92BA92BA82BAAABA86087E1F
:10079000547E5C405C54489600000000FE0000005F
:1007A00000000000007E000000FF0000007E00004E
:1007B000003C000000FFFFA9A9A9A9A9C781FF81EA
:1007C0007E1010107C14141414FF301808FF00243D
:1007D000246666C27F4141417F414141417F000023
:1007E00000000000000018180000000000000000D9
:1007F0000000FE8282828282828282FE10101010AD
:10080000101010101010FE02020202FE808080FE06
:10081000FE02020202FE020202FE8282828282FE48
:1008200002020202FE80808080FE020202FEFE8042
:10083000808080FE828282FEFE02020202020202AA
:100840000202FE82828282FE828282FEFE82828298
:1008500082FE020202FE80FE887E4848FE080808EA
:100860007E42427E42427E424246FE92BA92BA8224
:10087000BAAABA86DFD0101010101010101F000096
:100880000000FE0000000000007C000000000000EE
:1008900000FEFE0000007C00000000FEFEAAAAAAE6
:1008A000AAEE828282FEFE202020FC24242424FE44
:1008B000201010FE4444444444447E4242427E425E
:1008C0004242427E000000000000000018180000B4
:1008D00000000000000000007C828282828282820E
:1008E000827C103050101010101010FE7C8202021A
:1008F000027C808080FE7C820202027C0202827C7A
:100900008888888888FE08080808FE80808080FC27
:100910000202827C8080808080FC8282827CFE0257
:1009200002020202020202027C828282827C8282B3
:10093000827C7C828282827E02020202407E887EEB
:100940004848FE0808087E42427E42427E42468275
:100950007E92BA92BA82BAAABA86BC42404040405D
:100960004040423C00000000FE000000000000008B
:10097000007E000000FF0000007E0000003C000040
:1009800000FFFFA9A9A9A9A9C781FF817E101010A6
:100990007C14141414FF2010FE0044444444448288
:1009A0007E4242427E424242427E000000000000FF
:1009B00000001818000000000000000000000840BF
:1009C00049402A400884FFFE19082C884A8810886C
:1009D000FE902250222014501888250E4204020056
:1009E00001003FFC200440081FE00040008001049B
:1009F000FFFE0100010001000100050002000008E7
:100A000004087E08440847FE440844087C8844489B
:100A10004448440844087C0844480028001010203A
:100A2000102010201C2421FE21247D249124112437
:100A3000FDFC112410201420182010200020000498
:100A40007FFE44084808482851F849284928452885
:100A50004528452869E851284008402840100200F0
:100A600002000208FFFC0400090011083FFC5108C5
:100A7000910811081108112811100100010002004D
:100A8000020002107FF8421042107FF04210421024
:100A90007FF0421002000204020401FC000000008A
:100AA0003FF000100020004001800104FFFE010023
:100AB000010001000100010001000500020001F039
:100AC0002110111011100110020EF40013F811087A
:100AD0001110109010A0144018B0130E0C043FF821
:100AE00024483FF801007FFC01001FF010101FF0A8
:100AF00010101FF010101FF01014FFFE0000004037
:100B0000404437FE104007FC0444F44417FC1444EE
:100B100010E0115812481440284647FC000001001C
:100B200000843FFE222022283FFC222023E02000D8
:100B30002FF022202140208043608C1E30040108C9
:100B40007FFC00101FF8101010101FF000007FFE37
:100B500040228FF40820082008221022601E00087E
:100B600004087E08440847FE440844087C8844483A
:100B70004448440844087C084448002800102004E5
:100B80001BFE080440244FF44824482448244FE422
:100B90004824482448244FE44824401440080800CE
:100BA00008081FFC1100210041101FF8110011005E
:100BB0001104FFFE0100010001000100010000100E
:100BC0000FF80810081008100FF00810081008108F
:100BD0000FF00810081010101010205040200010C6
:100BE0001FF8101010101010101010101FF010101F
:100BF00010101010101010101FF0101000000080C6
:100C00000480044008400820101020084FEE84247F
:100C10000420042004200420082011402080042007
:100C20000E207820082008A8FEA608A21D201A245D
:100C30002824282848108820084008800B00082015
:100C40000920092011101210320E54049BF01110CB
:100C50001110111011101210121014A010400008E1
:100C60003FFC20083FF820083FF8010021083FFC26
:100C700021004110BFF801000104FFFE0000220422
:100C8000227E22447F4422443E7C22443E4422442D
:100C9000227CFFC4004424442284411482080008BA
:100CA0003FFC210821482FE8210821283FF820484F
:100CB00027E824482448244847C884280010010015
:100CC000020004101FF8101010101FF01010101068
:100CD00010101FF01010101010101FF01010001046
:100CE00000F87F00010001103FF80100010001043D
:100CF000FFFE0100010001000100050002000040AC
:100D000008407C40004405FEFE441044104420444A
:100D100024444284FE844104010402280410020099
:100D200001003FFC200440081FE000400080010457
:100D3000FFFE01000100010001000500020010801B
:100D40001080108020882FFC62A0A2A02490249004
:100D500028882BEE30842080208020802080104046
:100D60001020100413FEFC00108831063A8A5488C3
:100D700050509050102010501088130E1C0410007A
:100D800010001004127EFF44124412441244124414
:100D900022442244224422444A7C8444000000101D
:100DA0004018301417FE041004100DD0141425D46C
:100DB000E5542554255825D0252A084610821000D0
:100DC00010081FFC20105FF8121011101014FFFE05
:100DD0001210211020103FF8002000A00040100445
:100DE00009FE7F20224414FE7F8444944894529448
:100DF00044A448A452A444A4484890862102040074
:100E0000040007F0082008481FFC28884888088844
:100E10000FF8080808000802080207FE000010107A
:100E2000082004483FFC210821083FF82108210838
:100E30003FF821000104FFFE010001000100100045
:100E4000100823FC20204420F820102020204020DF
:100E5000FC20402000201C20E02447FE0000100859
:100E600013FC200821F84408FFFE10402244414CA6
:100E7000F95000E001501A48E44E4144008004401B
:100E800004503FF804400444FFFE01101FF8111005
:100E90001FF011101FF01000046018186004020009
:100EA00001043FFE200020702F80288028882FFC1E
:100EB0002880288028404A404DA48894000C0008CF
:100EC0004FFC2100211007F80210E2143FFE200021
:100ED000200827FC24082C08340827F804080200FE
:100EE00001103FF8082004200444FFFE00101FF802
:100EF000101010101FF0101010101FF0101010081C
:100F000011FC11081108FD281110150019F83108FD
:100F1000D190115011201150118E51042100000860
:100F20007FFC0100010001000100111011F8110007
:100F300011001100110011001104FFFE000001005A
:100F4000111009207FFE40028FE408200FE00110FD
:100F50001FF8111011101110115001200100100084
:100F6000100010041FFE24444444844408440884B0
:100F7000088410841104210442040428081010403D
:100F8000105010481040FC4413FE1440186030A06C
:100F9000D0A010A010A011221122521E2400101067
:100FA0000818042004487FFC010001000104FFFE32
:100FB00001000280028004400830300EC00420048A
:100FC0001BFE0804408440A45FF4408441844284B2
:100FD000448448845084408442844114400811244D
:100FE0001FBECFE5D4E0DEBFCDBF10E0A0E6B0E08D
:100FF000E8E1F2E302C005900D92A438B107D9F7F9
:1010000012E0A4E8B0E001C01D92A83AB107E1F7F0
:101010000E944E180C940A190C940000089508952B
:101020008FB780939000F8948F9A9798979A8F989B
:1010300090B387FF01C0789408952FB72093900054
:10104000F89498E080E086958F9A9798979A8F9871
:10105000879980689150B9F727FF01C07894089567
:101060002FB720939000F89498E08F9A979880FD7E
:10107000979A979A915011F08695F7CF27FF01C064
:10108000789408950E9410088CEC0E94300884E443
:101090000E94300808951F930E9410088CEC0E9453
:1010A00030088EEB0E9430080E941D08182F0E9405
:1010B0001D08382F20E0E12FF0E0E22BF32BCF01C9
:1010C0008070907F8050904F11F040E004C0F09508
:1010D000E195FF4F41E0CF01880F991F9F0153E039
:1010E000220F331F5A95E1F7820F931F24E0969544
:1010F00087952A95E1F768EE73E00E94F6189C0147
:10110000413021F48EE080936F0006C064E670E009
:101110000E94F61860936F00C90164E670E00E94B7
:10112000F6186AE070E00E94F61860937000EF70A5
:10113000F07081E792E09C01E29FC001E39F900D77
:10114000F29F900D112468EE73E00E94F6186093F0
:1011500071001F910895F894E19997C0E199FECF2D
:101160001FBA1EBA8CEC8DBB0FB6F894E29AE19AC6
:101170000FBE20917200E199FECF81E090E09FBB0D
:101180008EBB2DBB0FB6F894E29AE19A0FBE209168
:101190007300E199FECF82E090E09FBB8EBB2DBB38
:1011A0000FB6F894E29AE19A0FBE20917400E1998B
:1011B000FECF83E090E09FBB8EBB2DBB0FB6F894B3
:1011C000E29AE19A0FBE20917500E199FECF84E08A
:1011D00090E09FBB8EBB2DBB0FB6F894E29AE19ACC
:1011E0000FBE20917600E199FECF85E090E09FBB95
:1011F0008EBB2DBB0FB6F894E29AE19A0FBE2091F8
:101200007700E199FECF86E090E09FBB8EBB2DBBBF
:101210000FB6F894E29AE19A0FBE20917800E19916
:10122000FECF87E090E09FBB8EBB2DBB0FB6F8943E
:10123000E29AE19A0FBE20917A00E199FECF88E010
:1012400090E09FBB8EBB2DBB0FB6F894E29AE19A5B
:101250000FBE20917B00E199FECF89E090E09FBB1B
:101260008EBB2DBB0FB6F894E29AE19A0FBE209187
:101270007C00E199FECF80E190E09FBB8EBB2DBB4F
:101280000FB6F894E29AE19A0FBE78940895F89414
:10129000E1996BC0E199FECF1FBA1EBAE09A8DB3F7
:1012A0008C3C09F05AC0E199FECF81E090E09FBBF1
:1012B0008EBBE09A8DB380937200E199FECF82E0FD
:1012C00090E09FBB8EBBE09A8DB380937300E19951
:1012D000FECF83E090E09FBB8EBBE09A8DB38093FE
:1012E0007400E199FECF85E090E09FBB8EBBE09A51
:1012F0008DB380937600E199FECF86E090E09FBBAE
:101300008EBBE09A8DB380937700E199FECF87E0A2
:1013100090E09FBB8EBBE09A8DB380937800E199FB
:10132000FECF88E090E09FBB8EBBE09A8DB38093A8
:101330007A00E199FECF89E090E09FBB8EBBE09AF6
:101340008DB380937B00E199FECF80E190E09FBB5D
:101350008EBBE09A8DB380937C008091730029E16D
:10136000829FC001112488518CBF78940895BB9A44
:10137000B89AB99ABA9ABC9A8C9A8D9AD19AD29AFA
:10138000D39AD49A8A9A8B9A1092890210928602E2
:10139000109285021092880210928D0210928F0096
:1013A00010928E0010929B0210929A020895882348
:1013B000D9F18091B500806C8093B5008091BD001B
:1013C000806C8093BD008091C500806C8093C500C7
:1013D0008091B40081608093B4008091BC008160F2
:1013E0008093BC008091C40081608093C400809190
:1013F000FD00806C8093FD0080910501806C8093DE
:10140000050180910D01806C80930D018091FC009D
:1014100081608093FC0080910401816080930401CD
:1014200080910C0181603AC08091B5008F738093E8
:10143000B5008091BD008F738093BD008091C50081
:101440008F738093C5008091B4008E7F8093B40029
:101450008091BC008E7F8093BC008091C4008E7F01
:101460008093C4008091FD008F738093FD00809174
:1014700005018F738093050180910D018F73809317
:101480000D018091FC008E7F8093FC00809104010F
:101490008E7F8093040180910C018E7F80930C01DC
:1014A0000895242F30E0F5E0220F331FFA95E1F77D
:1014B0002254364F70E0E3E0660F771FEA95E1F7BC
:1014C00090E0DB01A80FB91FAF56BF4F680F791F1F
:1014D0006F5E7E4FF90184918C932F5F3F4FF9012E
:1014E000849111968C9311972F5F3F4F1896A617F2
:1014F000B70781F708959AE0499F90011124205C75
:101500003A4F70E0A3E0660F771FAA95E1F790E0ED
:10151000DB01A80FB91FAF56BF4F680F791F6F517E
:101520007F4FF90184918C932F5F3F4F1896A61738
:10153000B707B9F70895282F80917B00882309F514
:101540008AE0489FA0011124445F584F862F90E005
:1015500073E0880F991F7A95E1F730E0DC01A20F64
:10156000B31FAF56BF4F280F391F2F573E4FFA01F9
:1015700084918C934F5F5F4F5896A217B307B9F7CA
:10158000089570E030E08130F9F48AE0489FA001CE
:1015900011244E50584FCB0163E0880F991F6A9574
:1015A000E1F7DC01A20FB31FAF56BF4F280F391F61
:1015B0002F573E4FFA0184918C934F5F5F4F58969F
:1015C000A217B307B9F708958AE0489FA001112434
:1015D0004852574FCB01B3E0880F991FBA95E1F7F6
:1015E000DC01A20FB31FAF56BF4F280F391F2F5773
:1015F0003E4FFA0184918C934F5F5F4F5896A2172C
:10160000B307B9F70895CF93DF93982F80917B00AC
:101610008823B1F58AE2489FF0011124EC5AFF4F6C
:10162000892F90E0DC01AF56BF4F70E048E050E0FA
:10163000461B570BEC01C75CDE4F249130E0C9011B
:10164000062E02C0959587950A94E2F78C93319601
:10165000849190E0062E02C0959587950A94E2F752
:10166000042E02C0220F331F0A94E2F7822B119638
:101670008C93119731961896AC17BD07F1F66BC095
:10168000292F30E08130A1F58AE2489FF001112432
:10169000E850FE4FD901AF56BF4F70E048E050E030
:1016A000461B570BE901C75CDE4F249130E0C901AE
:1016B000062E02C0959587950A94E2F78C93319691
:1016C000849190E0062E02C0959587950A94E2F7E2
:1016D000042E02C0220F331F0A94E2F7822B1196C8
:1016E0008C93119731961896AC17BD07F1F633C05D
:1016F0008AE2489FF0011124E456FC4FD901AF560D
:10170000BF4F70E048E050E0461B570BE901C75C53
:10171000DE4F249130E0C901062E02C095958795D1
:101720000A94E2F78C933196849190E0062E02C0E1
:10173000959587950A94E2F7042E02C0220F331F75
:101740000A94E2F7822B11968C9311973196189692
:10175000AC17BD07F1F6DF91CF9108951F93CF939A
:10176000DF9340918E0050918F004F5F5F4F5093F9
:101770008F0040938E002091740089E090E0821BDE
:1017800091099C0173E0220F331F7A95E1F7880FCE
:10179000991F280F391F2417350768F410928F00FE
:1017A00010928E0080918D028F5F80938D02813C1C
:1017B00010F010928D029298809175008823E9F4C0
:1017C0008091850290918602019690938602809383
:1017D00085028D5A934088F01092860210928502FD
:1017E00080918802882321F01092880280E003C053
:1017F00081E0809388020E94D70980918902863017
:1018000008F440C0809175008823E1F590918D0225
:101810003091890210918902292F269526952695C7
:1018200088E1389FF0011124E20FF11DEF54FF4FC2
:10183000A6E8B0E09770692F70E048E050E0461BE2
:10184000570B218130E0042E02C0359527950A946C
:10185000E2F7819190E0062E02C0880F991F0A944A
:10186000E2F7282B2D9380E0AE38B80751F7E12F2F
:10187000F0E093E0EE0FFF1F9A95E1F7EF56FF4F70
:10188000189716C080918902E82FF0E083E0EE0FF0
:10189000FF1F8A95E1F7EF56FF4F80918902A82F2D
:1018A000B0E013E0AA0FBB1F1A95E1F7AF5EBE4F81
:1018B00080917A00882389F550E026C09498959805
:1018C000D998DA98DB98DC98422FCE01022E02C01C
:1018D000959587950A94E2F780FD949ACB0102C012
:1018E000959587954A95E2F780FD959A9398939AF6
:1018F000215030408FEF2F3F380701F75F5F58309E
:1019000009F4D5C0319611968081C82FD0E08C9112
:10191000682F70E027E030E0D1CF813089F550E0CA
:1019200026C094989598D998DA98DB98DC98422F3D
:10193000CE01022E02C0959587950A94E2F780FDAC
:10194000D99ACB0102C0959587954A95E2F780FD1B
:10195000DA9A9398939A215030408FEF2F3F3807AF
:1019600001F75F5F583009F4A2C03196119680816B
:10197000C82FD0E08C91682F70E027E030E0D1CF05
:10198000823099F550E028C094989598D998DA98C3
:10199000422FCE01022E02C0959587950A94E2F758
:1019A00080FF02C0949AD99ACB0102C09595879581
:1019B0004A95E2F780FF02C0959ADA9A9398939A33
:1019C000215030408FEF2F3F3807F1F65F5F5830DE
:1019D00009F46DC0319611968081C82FD0E08C91AA
:1019E000682F70E027E030E0CFCF833081F550E002
:1019F00025C094989598D998DA98DB98DC98422F6E
:101A0000CE01022E02C0959587950A94E2F780FDDB
:101A1000DB9ACB0102C0959587954A95E2F780FD48
:101A2000DC9A9398939A215030408FEF2F3F3807DC
:101A300001F75F5F5830D9F1319611968081C82F38
:101A4000D0E08C91682F70E027E030E0D2CF843076
:101A500071F550E023C094989598D99ADA9A422F5C
:101A6000CE01022E02C0959587950A94E2F780FD7B
:101A7000949ACB0102C0959587954A95E2F780FD2F
:101A8000959A9398939A215030408FEF2F3F3807C3
:101A900011F75F5F583059F0319611968081C82F49
:101AA000D0E08C91682F70E027E030E0D4CF929A9C
:101AB00080918902873099F1883070F4833039F150
:101AC000843028F48130E1F08230E0F417C08530B2
:101AD00011F1863010F51DC08B3059F18C3028F48F
:101AE000893011F18A3018F51CC08D3049F18D30E4
:101AF00018F18E3049F18F3079F529C0C49812C0A1
:101B0000C49813C0C498C298C19AC09827C0C498FA
:101B100011C0C49812C0C49814C0C49816C0C49808
:101B200017C0C49AC2980AC0C49AC2980BC0C49A7B
:101B3000EACFC49AC2980DC0C49AC29AC198E5CFA0
:101B4000C49AC29AC19806C0C49AC29ADDCFC49AF8
:101B5000C29AC19AC09A02C01092890280918902E9
:101B60008F5F8093890280918902803111F41092F5
:101B70008902DF91CF911F91089516BE84E680B946
:101B800011B812B884E086BF089584EA86BF06B60D
:101B900007FEFDCF089583B984E886BF06B607FE29
:101BA000FDCF000081B1887F089584EC86BF06B622
:101BB00007FEFDCF83B1089584E986BF0895FC0137
:101BC00002C0119261506623E1F70895282F84EA3C
:101BD00086BF06B607FEFDCF990F9E5593B984E8E0
:101BE00086BF06B607FEFDCF000081B1887F883131
:101BF00089F423B984E886BF06B607FEFDCF00004E
:101C000081B163B984E886BF06B607FEFDCF000048
:101C100081B103C081E08093980284E986BF089572
:101C2000282FFB0184EA86BF06B607FEFDCF990F79
:101C30009E5593B984E886BF06B607FEFDCF000027
:101C400081B1887F8831C1F423B984E886BF06B6A4
:101C500007FEFDCF000081B194E80BC0808183B9FD
:101C600096BF06B607FEFDCF000081B13196000099
:101C70004150442399F703C081E08093980284E99E
:101C800086BF0895282FFB01990F84EA86BF06B608
:101C900007FEFDCF9E5593B9925A84E886BF06B6DB
:101CA00007FEFDCF000081B1887F883149F423B958
:101CB00084E886BF06B607FEFDCF000081B103C0F1
:101CC00081E08093980284EA86BF06B607FEFDCFC6
:101CD0009D5593B984E886BF06B607FEFDCF000088
:101CE00081B1887F883149F423B984E886BF06B67C
:101CF00007FEFDCF000081B10CC081E08093980207
:101D000008C096BF06B607FEFDCF83B18193415050
:101D100001C094EC4423A9F70895E0EAF2E011929F
:101D200082E0E83AF807D9F7EEE8F2E0119282E0B3
:101D3000E639F807D9F780E090E060E20E94E60D0E
:101D400080E090E060E00E94E60D089582E090E07F
:101D50006DE770E047E00E94420E80917D00982F71
:101D60009F7790937D0020917E00422F4F77409384
:101D70007E0050917F00752F7F7370937F00E091FC
:101D80008000AE2FAF73A0938000F0918100F770B8
:101D9000F093810030918200632F6F716093820015
:101DA0008F7080936D0092959F7090936C002F7050
:101DB00020936B0042954F7040936A005F70509380
:101DC000690072957F7070936800EF70E093670010
:101DD000A295AF70A09366003F7030936500629546
:101DE0006F706093640080918300982F9F70909330
:101DF000630082958F7080936200FF5FF0936E00A6
:101E00000895DF93CF93CDB7DEB727970FB6F89439
:101E1000DEBF0FBECDBF60916A006295607F80918A
:101E20006B00682B509168005295507F809169003B
:101E3000582B409166004295407F80916700482B67
:101E400070916E007150309164003295307F8091B6
:101E50006500382B209162002295207F80916300DD
:101E6000282B80916C008295807F90916D00892B4A
:101E700089836A835B834C837D833E832F8382E0E7
:101E800090E0BE016F5F7F4F47E00E94100E2796E3
:101E90000FB6F894DEBF0FBECDBFCF91DF9108958E
:101EA0001F9380916600882309F04EC0109167004F
:101EB000113009F049C080916800882309F044C0BE
:101EC00080916900833009F03FC080916A008330BF
:101ED000B9F580916B008823B9F58091760088234D
:101EE00079F080917900882379F520917800225E3D
:101EF000809177003AE0839FC0011124280F10C021
:101F000080917900882301F53EE180917800381BAB
:101F10002091770086EF9FEF289F202D1124230F1B
:101F2000822F6AE00E94EA1880936A00822F0E9442
:101F3000EA1890936B000E94010F1093790004C07F
:101F4000853011F4109279001F910895AA9AA298F1
:101F5000A39AA49A089590919F029B3009F432C1EC
:101F60009C3058F5953009F4AAC0963098F4923018
:101F700009F458C0933038F4992309F449C09130DA
:101F800009F0E5C148C0933009F45DC0943009F010
:101F9000DEC182C0983009F4CBC0993038F4963055
:101FA00009F4A0C0973009F0D2C1B3C0993009F448
:101FB000DAC09A3009F0CBC1F2C0913109F489C17D
:101FC000923198F49E3009F437C19F3038F49C3038
:101FD00009F40FC19D3009F0BAC11AC19F3009F44C
:101FE00046C1903109F0B3C157C1943109F49EC183
:101FF000953138F4923109F47AC1933109F0A7C1CF
:1020000086C1943609F498C1953609F0A0C197C1EC
:1020100010929902089589E18093870290938A0231
:1020200082E00EC080918A02882309F090C19A9BB9
:102030008EC186E18093870281E080938A0283E0EB
:1020400080939F02089580918A02882309F07FC1BE
:102050009A9B7DC1809168002AE0829FC001112473
:1020600090916900980F9730A8F0892F875086309B
:1020700010F48CE10AC0892F8D50863010F48DE168
:1020800004C09351953030F48EE18093870281E053
:1020900080938A0284E0D4CF80918A02882309F059
:1020A00056C19A9B54C180916800823030F08F5F96
:1020B0008093870281E080938A0285E0C1CF80917E
:1020C0008A02882309F043C19A9B41C1809168002C
:1020D000882331F08BE08093870281E080938A022D
:1020E00086E0AECF80918A02882309F030C19A9BA6
:1020F0002EC190916900992321F480916800882372
:1021000031F49F5F9093870281E080938A0287E099
:1021100097CF80918A02882309F019C19A9B17C131
:102120008DE08093870281E080938A0288E088CFE7
:1021300080918A02882309F00AC19A9B08C1809184
:102140006A00882331F480916B00882351F48AE17E
:1021500003C0823030F08F5F8093870281E08093EC
:102160008A0289E06DCF80918A02882309F0EFC04E
:102170009A9BEDC080916A00882329F480916B00BE
:10218000882331F40AC08BE08093870281E003C08A
:1021900081E08093870280938A028AE051CF809108
:1021A0008A02882309F0D3C09A9BD1C080916B002A
:1021B000882331F08F5F8093870281E080938A02C9
:1021C0008BE03ECF80918A02882309F0C0C09A9BA1
:1021D000BEC080916A00882321F480916B0088231F
:1021E00031F08EE08093870281E080938A028CE058
:1021F00027CF80918A02882309F0A9C09A9BA7C0A3
:1022000088EE93E090939702809396028DE018CF2A
:1022100080919602909197020197909397028093F4
:102220009602892B09F093C087E18093870281E0B1
:1022300080938A028EE004CF80918A02882309F07D
:1022400086C09A9B84C090916F00892F82508830FD
:1022500020F49F5F9093870205C09B3030F08FE1A0
:102260008093870281E080938A028FE0E9CE80919B
:102270008A02882309F06BC09A9B69C080916F0025
:10228000882341F08E3031F08BE08093870281E02B
:1022900080938A0280E1D4CE80918A02882309F05B
:1022A00056C09A9B54C080917000882329F08F5F9C
:1022B0008093870281E009C080916F00882311F02C
:1022C0008E3029F481E08093870280938A0281E135
:1022D000B7CE80918A028823D1F59A9B38C08DE0D1
:1022E0008093870281E080938A0282E1A9CE809167
:1022F0008A02882361F59A9B2AC0809171008F5FC2
:102300008093870281E080938A0283E199CE809155
:102310008A028823E1F49A9B1AC094E19093870281
:1023200081E080938A0290939F02089580918A02AF
:10233000882369F49A9B0BC010929F0208958091A4
:102340008A02882321F49A9B02C010929F0208956A
:1023500080918A02823011F1833030F4882361F059
:10236000813009F049C00EC0843089F1843010F109
:10237000853009F041C037C082E080939C02AC9860
:10238000AB980895AC98AB9A80919C028150809351
:102390009C02882389F5AB9882E022C08091870255
:1023A000882329F081E080939C0283E019C0109279
:1023B0008A020895AC9880919C02815080939C027F
:1023C0008823D1F481E080939C0284E009C0AC9A18
:1023D00080919C02815080939C02882369F485E05F
:1023E00080938A020895AC988091870281508093EF
:1023F000870282E080938A020895AE9AA698AF9AE7
:10240000A798909A8898919A89980895CF92DF9288
:10241000EF92FF920F931F93CF93DF93D82EC62E88
:10242000EA0179019E9927C080E29EE40197F1F7C5
:102430009E991FC084E680939F0210928C02109296
:102440008B02F90130813F5F88812AE0829FC001C1
:102450001124380FD31608F4362F832F6AE00E9418
:10246000EA188883832F0E94EA18F7019083F80105
:1024700009959E9BFECF9F9929C080E29EE401971B
:10248000F1F79F9921C084E680939F0210928C02FD
:1024900010928B02F7013081315088812AE0829FAF
:1024A000C0011124380FD31610F03C1508F43D2D4F
:1024B000832F6AE00E94EA188883832F0E94EA181B
:1024C000F7019083F80109959F9BFECFDF91CF9193
:1024D0001F910F91FF90EF90DF90CF90089516B865
:1024E00080E487B987ED86B9089524B145B1942F6A
:1024F00080E030E0822B932B9695879583976CE351
:1025000070E00E94F61898E0892F861B8093730074
:10251000893018F09093730005C0882319F481E086
:10252000809373008091730029E1829FC001112480
:1025300088518CBF089513BE12BE89E783BF809176
:102540007200893040F48091730029E1829FC001BC
:102550001124885101C084E68CBF089515BC12BCBB
:1025600083E884BD82E883BD89B7806489BF84E045
:1025700085BD08951F920F920FB60F9211242F93CD
:102580003F934F935F936F937F938F939F93AF93FB
:10259000BF93EF93FF930E94A8110E94AB0F80910D
:1025A0007500882309F03FC080919F028823D9F5E8
:1025B000809183029091840201969093840280938B
:1025C00083028253984C11F40E9442088091830246
:1025D0009091840281569A4E30F00E944B081092DE
:1025E000840210928302809172008823E1F480912A
:1025F00081029091820201969093820280938102DF
:1026000022E08835920731F416B880E487B987ED67
:1026100086B909C08558934030F00E947512109217
:1026200082021092810280918B0290918C0201961D
:1026300090938C0280938B0280919D0290919E02D8
:10264000019690939E0280939D0283E884BDFF9142
:10265000EF91BF91AF919F918F917F916F915F911A
:102660004F913F912F910F900FBE0F901F90189593
:1026700081E990E06FEF70E040E051E00E94E318E4
:10268000089580E091E0E1E9F0E0DF019C011D9216
:1026900021503040E1F70895F89415BE1BBE0E940A
:1026A000B7090E94FD11AA9AA298A39AA49A13BEF0
:1026B00012BE89E783BF80917200893040F4809117
:1026C000730029E1829FC0011124885101C084E672
:1026D0008CBF15BC12BC83E884BD82E883BD89B77A
:1026E000806489BF84E085BD0E948D0E10928402B3
:1026F00010928302109282021092810210928C0238
:1027000010928B020E94100880E091E0E1E9F0E075
:10271000DF019C011D9221503040E1F7789408952B
:10272000CF93DF938CE18093750080E060E040E020
:102730000E94510A82E060E041E00E94510A84E078
:1027400060E042E00E94510A86E060E043E00E94BF
:10275000510A80E060E144E00E94510A82E060E1B9
:1027600045E00E94510A84E060E146E00E94510A7F
:1027700086E060E147E00E94510AC0E0D0E00E949C
:10278000AE0B219623E1C838D207C9F780E091E06B
:10279000E1E9F0E0DF019C011D9221503040E1F7BA
:1027A00010927500DF91CF91089580E091E0E1E90A
:1027B000F0E0DF019C011D9221503040E1F780E004
:1027C00060E0409168000E94030B82E060E040916D
:1027D00069000E94030B84E063E040916A000E945C
:1027E000030B86E063E040916B000E94030B80E0E6
:1027F00067E1409160000E949B0A81E067E140919F
:1028000061000E949B0A82E067E1409162000E94A1
:102810009B0A83E067E1409163000E949B0A84E089
:1028200067E14AE00E949B0A85E067E1409164000D
:102830000E949B0A86E067E1409165000E949B0A26
:1028400087E067E14BE00E949B0A80E068E14091ED
:1028500066000E949B0A81E068E1409167000E9447
:102860009B0A82E068E144E10E949B0A84E068E1FF
:102870004CE00E949B0A40916E00435F85E068E156
:102880000E949B0A87E068E140916F000E949B0ACA
:1028900080E069E1409170000E949B0A81E069E15B
:1028A00045E10E949B0A82E069E1409171000E942B
:1028B0009B0A83E069E14DE00E949B0A089580E055
:1028C00091E0E1E9F0E0DF019C011D9221503040F0
:1028D000E1F780E060E04DE10E94510A80E060E1B4
:1028E0004DE00E94510AE4E4F6E0A7E4B1E08491EF
:1028F0008C933196189636E0EE34F307C1F72EEA42
:1029000035E0A8E4B1E0F90184918C932F5F3F4F4B
:102910001896F1E0A839BF07B1F7809176008823B7
:1029200079F02EE436E0A3E4B1E0F90184918C93D0
:102930002F5F3F4F1896F1E0A339BF07B1F70EC0E4
:102940002AE836E0A3E4B1E0F90184918C932F5F8B
:102950003F4F1896F1E0A339BF07B1F783E060E07D
:10296000409177000E94030B85E060E04091780081
:102970000E94030B20E336E0A0EFB0E0F901849160
:102980008C932F5F3F4F1896F1E0A034BF07B1F74B
:10299000089580E091E0E1E9F0E0DF019C011D9203
:1029A00021503040E1F780E060E048E00E94510AA9
:1029B00082E060E049E00E94510A80E060E14BE182
:1029C0000E94510A82E060E14CE10E94510AECE66B
:1029D000F6E0A5E4B1E084918C933196189636E048
:1029E000E637F307C1F785E060E043E00E94030BA0
:1029F000089580E091E0E1E9F0E0DF019C011D92A3
:102A000021503040E1F780E060E048E00E94510A48
:102A100082E060E049E00E94510A80E060E14CE021
:102A20000E94510A82E060E14BE00E94510AECE60C
:102A3000F6E0A5E4B1E084918C933196189636E0E7
:102A4000E637F307C1F780917200882321F086E012
:102A500060E049E103C086E060E048E10E94510A7D
:102A600086E060E14AE10E94510A089580E091E029
:102A7000E1E9F0E0DF019C011D9221503040E1F7D7
:102A800080917200882339F180E060E048E00E9484
:102A9000510A82E060E049E00E94510A80E060E172
:102AA0004CE00E94510A82E060E14BE00E94510A32
:102AB000ECE6F6E0A5E4B1E084918C9331961896AB
:102AC00036E0E637F307C1F785E060E04091730038
:102AD0000E94030B08950E94F914089580E091E08C
:102AE000E1E9F0E0DF019C011D9221503040E1F767
:102AF00080E060E048E20E94510A82E060E049E242
:102B00000E94510A80E060E14AE20E94510A82E09C
:102B100060E14DE00E94510AECE6F6E0A5E4B1E088
:102B200084918C933196189636E0E637F307C1F717
:102B300080917C00882349F486E060E04BE20E94AB
:102B4000510A86E060E14CE213C0813049F486E02E
:102B500060E04DE20E94510A86E060E14EE208C06A
:102B600086E060E04FE20E94510A86E060E140E3C7
:102B70000E94510A089580E091E0E1E9F0E0DF0170
:102B80009C011D9221503040E1F780E060E048E078
:102B90000E94510A82E060E049E00E94510A80E010
:102BA00060E14AE00E94510A82E060E14BE00E944D
:102BB000510AECE6F6E0A5E4B1E084918C933196FD
:102BC000189636E0E637F307C1F785E060E04091FC
:102BD00074000E94030B089580E091E0E1E9F0E0C9
:102BE000DF019C011D9221503040E1F780E060E060
:102BF00048E00E94510A82E060E049E00E94510AE8
:102C000080E060E145E10E94510A82E060E146E136
:102C10000E94510AECE6F6E0A5E4B1E084918C93C1
:102C20003196189636E0E637F307C1F785E060E0A5
:102C300040916E000E94030B0895DF92EF92FF9285
:102C40000F931F938C017B01D42E80E091E0E1E98A
:102C5000F0E0DF019C011D9221503040E1F780E05F
:102C600060E048E00E94510A80E060E149E00E9493
:102C7000510A82E060E0D8014C910E94030B84E08D
:102C800060E0F70140810E94030B86E060E14D2D7A
:102C90000E94510A1F910F91FF90EF90DF900895CD
:102CA0006AE670E0CB016F5F7F4F42E10E941D1624
:102CB000089568E670E0CB016F5F7F4F4DE00E94A2
:102CC0001D16089566E670E0CB016F5F7F4F41E10E
:102CD0000E941D16089564E670E0CB016F5F7F4F80
:102CE00040E10E941D16089562E670E0CB016F5F1F
:102CF0007F4F4FE00E941D1608950F931F93DF939F
:102D0000CF930F92CDB7DEB7809175008823E9F09D
:102D10008B31D9F08A31C9F080918B0290918C026D
:102D20008950924590F0109275000E94010F0E9408
:102D3000AB0880E091E0E1E9F0E0DF019C011D9249
:102D400021503040E1F70E94D513809175008A51DF
:102D5000823068F480919D0290919E02855F91403F
:102D600030F0109275000E94AB080E94D513819933
:102D700016C080E29EE40197F1F781990EC081E0D0
:102D800080939F0280917A008F5F80937A008530D4
:102D900010F010927A000E94AB08819BFECF8091C8
:102DA0007500882329F08B3119F08A3109F04DC064
:102DB0009E992AC080E29EE40197F1F79E9922C075
:102DC00084E680939F0280917200882391F0809125
:102DD00073008F5F80937300893018F081E08093D7
:102DE00073008091730029E1829FC00111248851F2
:102DF0008CBF8BE18093750010929E0210929D0211
:102E00000E9436159E9BFECF9F99D7C080E29EE41C
:102E10000197F1F79F9916C084E680939F028091F5
:102E200074008F5F80937400893018F081E0809384
:102E300074008AE18093750010929E0210929D02A8
:102E40000E94BB159F9BFECFB8C0813049F483E63A
:102E500060E042E650E023E630E004E716E1ABC074
:102E6000823049F48CE061E044E650E025E630E051
:102E70000BE616E1A0C0833049F48FE161E046E63D
:102E800050E027E630E002E616E195C0843049F4D0
:102E900087E160E048E650E029E630E009E516E128
:102EA0008AC0853049F48BE360E04AE650E02BE6C7
:102EB00030E000E516E17FC0863059F4198287E0E2
:102EC00061E0AE014F5F5F4F2EE630E00CEE15E1A2
:102ED00072C0873059F4198281E060E0AE014F5F23
:102EE0005F4F22E730E009EF14E165C0883059F404
:102EF000198282E060E0AE014F5F5F4F2BE730E068
:102F000009EC14E158C0893009F049C09E9929C0E4
:102F100080E29EE40197F1F79E9921C010928C0205
:102F200010928B0284E680939F02309178003F5F7D
:102F3000809177002AE0829FC0011124380F35313B
:102F400008F030E0832F6AE00E94EA18809377004F
:102F5000832F0E94EA18909378000E945F149E9B32
:102F6000FECF9F992AC080E29EE40197F1F79F99D6
:102F700013C010928C0210928B0284E680939F0201
:102F800080917600882319F01092760003C081E0CA
:102F9000809376000E945F149F9BFECF0EC08A3004
:102FA00061F4198282E060E0AE014F5F5F4F2CE771
:102FB00030E00EE615E10E940612809969C080E2B9
:102FC0009EE40197F1F7809961C084E680939F02A7
:102FD00010928C0210928B02809175008F5F80930B
:102FE00075008B3010F0109275008091750085305F
:102FF000E1F1863078F4823079F1833030F488233F
:10300000B9F0813009F042C024C0833041F18430EE
:10301000E9F528C0883091F1893028F4863041F1F3
:103020008730A1F528C0893061F18A3079F52CC04C
:103030000E94010F0E94AB0880E091E0E1E9F0E01E
:10304000DF019C011D9221503040E1F70E94D51311
:103050001DC00E9474161AC00E946B1617C00E94F1
:10306000621614C00E94591611C00E9450160EC05C
:103070000E94EC150BC00E94F91408C00E94C914EC
:1030800005C00E945F1402C00E946E15809BFECF97
:103090000F90CF91DF911F910F9108950F931F9380
:1030A0000E944C130E9442080E944B0880991CC049
:1030B00080E29EE40197F1F7809916C081E0809349
:1030C00072008093730080937400109275001092C8
:1030D0007600109277001092780010927A00109289
:1030E0007B008CBF0E94AB080E9447090E9490138E
:1030F0000E94A60E0E94D51381E080939F020AE0F1
:1031000011E080917500882309F058C00E94A60E36
:1031100030917C003323C9F480916A008823D1F573
:1031200080916B008823B1F580916C00882391F524
:1031300080916D008A3070F580919902882351F555
:103140001093990210939F0225C0313019F52091F8
:103150006900275080916800809FC0011124280FCA
:103160002131C0F480916A008823A1F480916B0022
:10317000882381F480916C00882361F480916D0034
:103180008A3040F480919902882321F43093990287
:1031900030939F0280919A0290919B0201969093A6
:1031A0009B0280939A028151974240F00E94500FF7
:1031B0000E94D51310929B0210929A020E94AE0BAD
:1031C0000E947D169ECFDC0101C06D93415050409E
:1031D000E0F70895991B79E004C0991F961708F04D
:1031E000961B881F7A95C9F780950895AA1BBB1B6B
:1031F00051E107C0AA1FBB1FA617B70710F0A61BF7
:10320000B70B881F991F5A95A9F780959095BC0117
:08321000CD010895F894FFCFF1
:103218000200010200010107020201090000020286
:1032280003040007010000000000000000405923CB
:04323800290502085A
:00000001FF
