:100000000C94EF070C940A080C940A080C940A0844
:100010000C9446170C940A080C940A080C940A08CD
:100020000C940A080C940A080C940A080C940A0808
:100030000C940A080C940A080C940A080C940A08F8
:100040000C940A080C940A080C940A080C940A08E8
:100050000C940A08084049402A400884FFFE190809
:100060002C884A881088FE9022502220145018882C
:10007000250E4204020001003FFC200440081FE05E
:10008000004000800104FFFE0100010001000100AA
:1000900005000200000804087E08440847FE4408E2
:1000A00044087C8844484448440844087C08444840
:1000B000002800101020102010201C2421FE2124D4
:1000C0007D2491241124FDFC1124102014201820DB
:1000D0001020002000047FFE44084808482851F8FA
:1000E0004928492845284528452869E851284008D5
:1000F00040284010020002000208FFFC0400090032
:1001000011083FFC5108910811081108112811101D
:10011000010001000200020002107FF842104210AC
:100120007FF0421042107FF04210020002040204ED
:1001300001FC000000003FF00010002000400180A2
:100140000104FFFE010001000100010001000100A7
:100150000500020001F02110111011100110020E13
:10016000F40013F811081110109010A0144018B0EA
:10017000130E0C043FF824483FF801007FFC0100F7
:100180001FF010101FF010101FF010101FF01014AF
:10019000FFFE00000040404437FE104007FC0444CE
:1001A000F44417FC144410E0115812481440284637
:1001B00047FC0000010000843FFE222022283FFC73
:1001C000222023E020002FF02220214020804360C5
:1001D0008C1E300401087FFC00101FF81010101056
:1001E0001FF000007FFE40228FF408200820082224
:1001F0001022601E000804087E08440847FE4408D8
:1002000044087C8844484448440844087C084448DE
:100210000028001020041BFE080440244FF448244A
:10022000482448244FE44824482448244FE44824E0
:1002300040144008080008081FFC1100210041106C
:100240001FF8110011001104FFFE01000100010060
:100250000100010000100FF80810081008100FF03E
:100260000810081008100FF00810081010101010D7
:100270002050402000101FF8101010101010101007
:1002800010101FF0101010101010101010101FF090
:100290001010000000800480044008400820101066
:1002A00020084FEE84240420042004200420082089
:1002B0001140208004200E207820082008A8FEA6E7
:1002C00008A21D201A242824282848108820084025
:1002D00008800B0008200920092011101210320E8E
:1002E00054049BF011101110111011101210121063
:1002F00014A0104000083FFC20083FF820083FF8F9
:10030000010021083FFC21004110BFF80100010459
:10031000FFFE00002204227E22447F4422443E7CD1
:1003200022443E442244227CFFC4004424442284CC
:100330004114820800083FFC210821482FE82108C9
:1003400021283FF8204827E824482448244847C863
:10035000842800100100020004101FF81010101073
:100360001FF01010101010101FF0101010101010AF
:100370001FF01010001000F87F00010001103FF87E
:10038000010001000104FFFE010001000100010065
:1003900005000200004008407C40004405FEFE4489
:1003A00010441044204424444284FE844104010447
:1003B00002280410020001003FFC200440081FE056
:1003C000004000800104FFFE010001000100010067
:1003D0000500020010801080108020882FFC62A091
:1003E000A2A02490249028882BEE308420802080A6
:1003F0002080208010401020100413FEFC00108884
:1004000031063A8A5488505090501020105010886D
:10041000130E1C04100010001004127EFF4412443E
:1004200012441244124422442244224422444A7C6C
:100430008444000000104018301417FE041004100B
:100440000DD0141425D4E5542554255825D0252A3B
:1004500008461082100010081FFC20105FF81210D0
:1004600011101014FFFE1210211020103FF8002070
:1004700000A00040100409FE7F20224414FE7F8467
:1004800044944894529444A448A452A444A4484890
:10049000908621020400040007F0082008481FFC91
:1004A0002888488808880FF8080808000802080209
:1004B00007FE00001010082004483FFC2108210816
:1004C0003FF8210821083FF821000104FFFE010048
:1004D000010001001000100823FC20204420F82017
:1004E000102020204020FC20402000201C20E02460
:1004F00047FE0000100813FC200821F84408FFFE06
:1005000010402244414CF95000E001501A48E44E9A
:1005100041440080044004503FF804400444FFFE7E
:1005200001101FF811101FF011101FF010000460CF
:1005300018186004020001043FFE200020702F8084
:10054000288028882FFC2880288028404A404DA4F5
:100550008894000C00084FFC2100211007F80210BD
:10056000E2143FFE2000200827FC24082C08340851
:1005700027F80408020001103FF808200420044472
:10058000FFFE00101FF8101010101FF010101010B8
:100590001FF01010100811FC11081108FD2811108F
:1005A000150019F83108D190115011201150118EF9
:1005B0005104210000087FFC01000100010001003E
:1005C000111011F811001100110011001100110497
:1005D000FFFE00000100111009207FFE40028FE4A1
:1005E00008200FE001101FF8111011101110115008
:1005F000012001001000100010041FFE2444444498
:1006000084440844088408841084110421044204AA
:10061000042808101040105010481040FC4413FEED
:100620001440186030A0D0A010A010A011221122F8
:10063000521E240010100818042004487FFC0100FA
:1006400001000104FFFE0100028002800440083026
:10065000300EC00420041BFE0804408440A45FF454
:100660004084418442844484488450844084428449
:10067000411440087C82828282828282827C103095
:1006800050101010101010FE7C820202027C80803C
:1006900080FE7C820202027C0202827C888888883A
:1006A00088FE08080808FE80808080FC0202827CA8
:1006B0008080808080FC8282827CFE0202020202B4
:1006C000020202027C828282827C8282827C7C8222
:1006D0008282827E02020202407E887E4848FE08B4
:1006E00008087E42427E42427E4246827E92BA9212
:1006F000BA82BAAABA86BC42404040404040423C1E
:1007000000000000FE00000000000000007E00006D
:1007100000FF0000007E0000003C000000FFFFA979
:10072000A9A9A9A9C781FF817E1010107C141414F7
:1007300014FF2010FE004444444444827E4242425E
:100740007E424242427E0000000000000000181875
:1007500000000000000000000000FE828282828211
:10076000828282FE10101010101010101010FE0265
:10077000020202FE808080FEFE02020202FE0202EF
:1007800002FE8282828282FE02020202FE8080805B
:1007900080FE020202FEFE80808080FE828282FE57
:1007A000FE020202020202020202FE82828282FE35
:1007B000828282FEFE82828282FE020202FE80FE2F
:1007C000887E4848FE0808087E42427E42427E42B9
:1007D0004246FE92BA92BA82BAAABA86DFD0101006
:1007E00010101010101F00000000FE00000000009C
:1007F000007C00000000000000FEFE0000007C0005
:10080000000000FEFEAAAAAAAAEE828282FEFE20B4
:100810002020FC24242424FE201010FE44444444C0
:1008200044447E4242427E424242427E00000000F8
:100830000000000018180000000000000000000088
:100840007C82828282828282827C103050101010E0
:10085000101010FE384482820408102040FE7C8272
:1008600002023C020282827C060C14244484FE04B0
:100870000404FE8080FC02020282827C7C828080F2
:10088000FC828282827C7E8202040810202020204A
:100890007C8282827C828282827C7C828282827E54
:1008A0000202827C407E887E4848FE0808087E421C
:1008B000427E42427E4246827E92BA92BA82BAAA70
:1008C000BA86087E547E5C405C5448960000000066
:1008D000FE00000000000000007E000000FF00009D
:1008E000007E0000003C000000FFFFA9A9A9A9A903
:1008F000C781FF817E1010107C14141414FF30186F
:1009000008FF0024246666C27F4141417F41414186
:10091000417F0000000000000000181800000000E7
:100920000000000000007C82828282828282827CBF
:10093000103050101010101010FE3844828204083D
:10094000102040FE7C8202023C020282827C060C65
:1009500014244484FE040404FE8080FC020202820B
:10096000827C7C828080FC828282827C7E82020405
:100970000810202020207C8282827C828282827CDD
:100980007C828282827E0202827C407E887E48480F
:10099000FE0808087E42427E42427E4246827E92A5
:1009A000BA92BA82BAAABA86087E547E5C405C5477
:1009B000489600000000FE00000000000000007EDD
:1009C000000000FF0000007E0000003C000000FF6F
:1009D000FFA9A9A9A9A9C781FF817E1010107C14C5
:1009E000141414FF301808FF0024246666C27F41E7
:1009F00041417F414141417F000000000000000073
:100A000018180000000000000000000002E2BFA271
:100A1000EAAAA2AAE60238242442BD242424448C53
:100A200010FF3C243CFF813C2447203E40BE2AFF6F
:100A3000327E0204404040F75555555750B05C1483
:100A4000D476405C545468567E5A7EFF7E427E7E49
:100A500042FF0000000000606000606010107E42F5
:100A60007E427E427E42047E087E08FF08082818E7
:100A70000202BF623A227ABB224548487ED46254C1
:100A8000D448546210FE92FE9292FE10121EFE0492
:100A90000810FE1010105030FE40507E525252523C
:100AA00052A4000000007E7E000000007E41414113
:100AB0007E414141417E414122140814222241419C
:100AC00041414122140808080808FE828282FE8201
:100AD000828282FE845FC45F555F444E55BF08FF2B
:100AE000817E04FF080838082444FF4E55555F6591
:100AF00044443FE07FF0FFF8E038E038E038E03889
:100B0000E038E038E038E038E038E038E038E03825
:100B1000E038E038E038FFF87FF03FE007000F00F2
:100B20001F001F001F000700070007000700070045
:100B3000070007000700070007000700070007007D
:100B4000FFF8FFF8FFF83FE07FF0FFF8E0380038EB
:100B500000380038003800383FF87FF0FFE0E00050
:100B6000E000E000E000E000E000FFF8FFF8FFF840
:100B70003FE07FF0FFF8E0380038003800380038F8
:100B800000381FF01FE01FF0003800380038003830
:100B90000038E038FFF87FF03FE0E1C0E1C0E1C09D
:100BA000E1C0E1C0E1C0E1C0E1C0E1C0FFF8FFF891
:100BB000FFF801C001C001C001C001C001C001C0F7
:100BC00001C001C0FFF8FFF8FFF8E000E000E0001E
:100BD000E000E000E000FFE0FFF0FFF80038003840
:100BE000003800380038E038FFF87FF03FE0E000E0
:100BF000E000E000E000E000E000E000E000E000F5
:100C0000FFE0FFF0FFF8E038E038E038E038E038A7
:100C1000E038FFF87FF03FE0FFF8FFF8FFF800381A
:100C20000038003800380038003800380038003804
:100C300000380038003800380038003800380038F4
:100C400000383FE07FF0FFF8E038E038E038E03887
:100C5000E03870703FE01FC03FE07070E038E0386F
:100C6000E038E038E038FFF87FF03FE03FE07FF029
:100C7000FFF8E038E038E038E038E038E038FFF8F6
:100C80007FF83FF800380038003800380038003866
:100C9000003800380038FFF8FFF8FFF8E038E03897
:100CA000E038E038E038E038E038E038E038E03884
:100CB000E038E038E038E038E038FFF8FFF8FFF8D7
:100CC00007000700070007000700070007000700EC
:100CD00007000700070007000700070007000700DC
:100CE00007000700070007000700FFF8FFF8FFF8FC
:100CF000003800380038003800380038FFF8FFF8B6
:100D0000FFF8E000E000E000E000E000E000FFF8B5
:100D1000FFF8FFF8FFF8FFF8FFF800380038003858
:100D2000003800380038FFF8FFF8FFF800380038C6
:100D30000038003800380038FFF8FFF8FFF8E038D6
:100D4000E038E038E038E038E038E038E038E038E3
:100D5000FFF8FFF8FFF80038003800380038003896
:100D60000038003800380038FFF8FFF8FFF8E000DE
:100D7000E000E000E000E000E000FFF8FFF8FFF82E
:100D8000003800380038003800380038FFF8FFF825
:100D9000FFF8FFF8FFF8FFF8E000E000E000E000F7
:100DA000E000E000FFF8FFF8FFF8E038E038E03856
:100DB000E038E038E038FFF8FFF8FFF8FFF8FFF818
:100DC000FFF80038003800380038003800380038A4
:100DD0000038003800380038003800380038003853
:100DE000003800380038FFF8FFF8FFF8E038E03846
:100DF000E038E038E038E038FFF8FFF8FFF8E03896
:100E0000E038E038E038E038E038FFF8FFF8FFF885
:100E1000FFF8FFF8FFF8E038E038E038E038E03875
:100E2000E038FFF8FFF8FFF80038003800380038E5
:100E300000380038FFF8FFF8FFF807800FC03FE0E8
:100E400038707070703870386038E038E038E038EA
:100E5000E038E03860387038703070703CE01FE087
:100E60000F80060003001F00FF00FF00C7000700FF
:100E7000070007000700070007000700070007003A
:100E8000070007000700070007007FF87FF80FC082
:100E90003FF03FF8303800380018001800380038AC
:100EA0000038007000E001C0038007000E001C0045
:100EB000380070007FF87FF81F803FE03FF0207817
:100EC00000380038007000E01FC01FC01FF000385D
:100ED0000038003800380038003860F07FF07FC0FC
:100EE0000E0001E001E003E003E006E00EE01CE09C
:100EF00018E030E070E060E0E0E0C0E0FFF8FFF80C
:100F0000FFF800E000E000E000E000E03FF83FF81C
:100F10003FF838003800380038003F803FE03FF0AD
:100F2000007800380038001800180018003870F0F9
:100F30007FF03FC00E0003C00FE01FF03C007000C8
:100F40007000E000E7C0FFE0FFF0F078E038E03844
:100F5000E038E038E038707878703FE01FC0070074
:100F6000FFF8FFF8FFF000700070006000E000C0C4
:100F700001C001C0038003800300070007000E00CA
:100F80000E001C001C001C0038000F803FE07FF0AA
:100F90007070E070E070707079E01FC01F803FE0FB
:100FA00070F0E070E038C038E038E038F0F07FF002
:100FB0003FC006001F803FC07FE0E070E070C0309F
:100FC000C038E038E078F0F87FF83FB80030003003
:100FD0000070007000E043E07FC07F001C0011241F
:100FE0001FBECFE5D4E0DEBFCDBF10E0A0E6B0E08D
:100FF000EAE7F1E302C005900D92A438B107D9F7F2
:1010000012E0A4E8B0E001C01D92A83AB107E1F7F0
:101010000C94E4170C940000009741F02FE330E0AB
:101020002450304037FFFCCF0197F6CF0895CF937F
:10103000DF93EC01892B31F080E197E20E940C08EC
:101040002197D1F7DF91CF9108958FB780939000CA
:10105000F8948F9A97988CE390E00E940C08979AE6
:101060008F9885E090E00E940C0880B382E390E0C6
:101070000E940C088091900087FF01C07894089529
:101080001F93CF9310E08FB780939000F894C8E03F
:1010900016958F9A979881E090E00E940C08979A95
:1010A0008F9881E090E00E940C088799106883E097
:1010B00090E00E940C08C15059F78091900087FF82
:1010C00001C07894812F9927CF911F9108951F9384
:1010D000CF93C82F8FB780939000F89418E08F9A21
:1010E000979881E090E00E940C08C0FD979A84E0F8
:1010F00090E00E940C08979AC695115081F7809154
:10110000900087FF01C07894CF911F9108950E94AD
:1011100025088CEC0E94670884E40E946708089503
:10112000CF92DF92EF92FF920F931F93CF93DF93B3
:10113000CDB7DEB722970FB6F894DEBF0FBECDBF96
:101140000E9425088CEC0E9467088EEB0E946708BD
:10115000EE24FF246E010894C11CD11C87010C0DE4
:101160001D1D0E944008F80180830894E11CF11CB9
:10117000F2E0EF16F10470F3F6018181E82EFF240E
:10118000FE2CEE2489819927E82AF92AC70180706C
:10119000907F8050904F31F441E0F094E194F10859
:1011A000F39401C040E097012F70307081E792E026
:1011B000289FB001299F700D389F700D1124CB011D
:1011C00068EE73E00E9495189B01C70153E0880FF9
:1011D000991F5A95E1F78E0D9F1D8E0D9F1D34E0CE
:1011E000969587953A95E1F768EE73E00E94951819
:1011F0007C0164E670E00E949518413021F48EE095
:101200008093760002C060937600C70164E670E0C8
:101210000E9495186AE070E00E949518609377002C
:101220002093780022960FB6F894DEBF0FBECDBF94
:10123000DF91CF911F910F91FF90EF90DF90CF90B2
:101240000895F8948CB39927DC01A270B07081FDE9
:101250004AC08CEC082E0E94B118A1E0B0E0809149
:101260007900082E0E94B118A2E0B0E080917A00C7
:10127000082E0E94B118A3E0B0E080917B00082EF8
:101280000E94B118A4E0B0E080917C00082E0E947A
:10129000B118A5E0B0E080917D00082E0E94B11841
:1012A000A6E0B0E080917E00082E0E94B118A7E071
:1012B000B0E080917F00082E0E94B118A8E0B0E055
:1012C00080918100082E0E94B118A9E0B0E08091C1
:1012D0008200082E0E94B118A0E1B0E08091830046
:1012E000082E0E94B11878940895F8948CB3992729
:1012F000DC01A270B07081FD4DC00E94A918802D44
:101300008C3C09F03FC0A1E0B0E00E94A918802DFC
:1013100080937900A2E0B0E00E94A918802D80930C
:101320007A00A3E0B0E00E94A918802D80937B0092
:10133000A5E0B0E00E94A918802D80937D00A6E072
:10134000B0E00E94A918802D80937E00A7E0B0E055
:101350000E94A918802D80937F00A8E0B0E00E9431
:10136000A918802D80938100A9E0B0E00E94A918FF
:10137000802D80938200A0E1B0E00E94A918802D0A
:101380008093830090917A0089E1989FC001112495
:1013900088518CBF78940895BB9AB89AB99ABA9A32
:1013A000BC9A8C9A8D9AD19AD29A8A9A8B9A1092D8
:1013B0008902109286021092850210928802109281
:1013C0008D0210928F0010928E0010929B0210924C
:1013D0009A02089580E091E0E1E9F0E0119201972E
:1013E000E9F7089540E051E06FEF70E081E990E0A7
:1013F0000E947F180895CF939091B5002091BD0071
:101400003091C5004091B4005091BC006091C4007F
:101410007091FD00E0910501F0910D01A091FC009B
:10142000B0910401C0910C01882319F1906C909344
:10143000B500206C2093BD00306C3093C500416036
:101440004093B40051605093BC0061606093C4004D
:10145000706C7093FD00E06CE0930501F06CF0930C
:101460000D01A160A093FC00B160B0930401C160C4
:1014700022C09F739093B5002F732093BD003F73DC
:101480003093C5004E7F4093B4005E7F5093BC0004
:101490006E7F6093C4007F737093FD00EF73E093E1
:1014A0000501FF73F0930D01AE7FA093FC00BE7F9A
:1014B000B0930401CE7FC0930C01CF910895242FE7
:1014C0003327A62FBB27E3E0AA0FBB1FEA95E1F75E
:1014D000A80FB11DAF56BF4F9FE075E0220F331F1D
:1014E0007A95E1F7A9014B5A5F4F2C5A3F4FF9010A
:1014F00084918C93FA018491FD01818391502E5F38
:101500003F4F4E5F5F4F189697FFF1CF08959AE0D7
:10151000499FA0011124A62FBB27F3E0AA0FBB1FF0
:10152000FA95E1F7A80FB11DAF56BF4F4A5D564F70
:1015300099E0FA0184918C93189691504F5F5F4F18
:1015400097FFF7CF0895982F809182008823E1F4C8
:101550008AE0489F90011124A62FBB2753E0AA0FD1
:10156000BB1F5A95E1F7A90FB11DAF56BF4F205CC5
:10157000374F99E0F90184918C93589691502F5FE1
:101580003F4F97FFF7CF08958130E1F48AE0489FFD
:1015900090011124A62FBB2743E0AA0FBB1F4A9539
:1015A000E1F7A90FB11DAF56BF4F265A384F99E04A
:1015B000F90184918C93589691502F5F3F4F97FF7C
:1015C000F7CF08958AE0489F90011124A62FBB27EA
:1015D00083E0AA0FBB1F8A95E1F7A90FB11DAF5693
:1015E000BF4F2C58394F99E0F90184918C9358964C
:1015F00091502F5F3F4F97FFF7CF0895EF92FF92E3
:101600001F93CF93DF9390918200992309F049C0F3
:10161000242F3327A82FBB277727C8E0D0E0C61B8D
:10162000D70BAF56BF4F85E190E0289FA001299FBF
:10163000500D389F500D1124CA0114E1840F951FDD
:10164000AC01455C514FFAE3EF2EFEE0FF2EE80EB1
:10165000F91EF70124913327C901062E02C0959582
:1016600087950A94E2F78C93FA0184910C2E02C0BC
:10167000220F331F0A94E2F79927062E02C0959590
:1016800087950A94E2F7822BFD018183115082E055
:1016900090E0E80EF91E480F591F189617FFD9CF92
:1016A00094C0913009F049C0242F3327A82FBB27BD
:1016B0007727C8E0D0E0C61BD70BAF56BF4F85E1F8
:1016C00090E0289FF001299FF00D389FF00D112424
:1016D000CF0114E18E0F9F1FAC014956534FE6E92D
:1016E000EE2EECE0FE2EE80EF91EF70124913327D2
:1016F000C901062E02C0959587950A94E2F78C934E
:10170000FA0184910C2E02C0220F331F0A94E2F7D3
:101710009927062E02C0959587950A94E2F7822BA9
:10172000FD018183115082E090E0E80EF91E480F20
:10173000591F189617FFD9CF48C0242F3327A82F39
:10174000BB277727C8E0D0E0C61BD70BAF56BF4FEB
:1017500085E190E0289FF001299FF00D389FF00D62
:101760001124CF0114E18E0F9F1FAC014D50554F36
:1017700072EFE72E7AE0F72EE80EF91EF7012491BA
:101780003327C901062E02C0959587950A94E2F782
:101790008C93FA0184910C2E02C0220F331F0A94FD
:1017A000E2F79927062E02C0959587950A94E2F7ED
:1017B000822BFD018183115082E090E0E80EF91E3A
:1017C000480F591F189617FFD9CFDF91CF911F915E
:1017D000FF90EF900895DF92EF92FF920F931F9387
:1017E0008C017B01D42E0E94EA0948E060E0862F3C
:1017F0000E945F0A49E060E180E00E945F0AF80110
:10180000408160E082E00E94FE0AF701408160E0D2
:1018100084E00E94FE0A4D2D60E186E00E945F0A8E
:101820001F910F91FF90EF90DF9008954FE06AE6CF
:1018300070E089E690E00E94EB0B089540E16CE6D1
:1018400070E08BE690E00E94EB0B089541E16EE6BC
:1018500070E08DE690E00E94EB0B08954DE060E7AC
:1018600070E08FE690E00E94EB0B089542E162E7A2
:1018700070E081E790E00E94EB0B08950E94EA0976
:1018800048E060E0862F0E945F0A49E060E082E065
:101890000E945F0A45E160E180E00E945F0A46E144
:1018A00060E182E00E945F0A4EE166E184E00E940E
:1018B000870A4091750060E085E00E94FE0A089565
:1018C0000E94EA0948E060E0862F0E945F0A49E032
:1018D00060E082E00E945F0A4AE060E180E00E94EE
:1018E0005F0A4BE060E182E00E945F0A4EE166E140
:1018F00084E00E94870A40917B0060E085E00E94BE
:10190000FE0A08950E94EA0948E260E0862F0E94DC
:101910005F0A49E260E082E00E945F0A4AE260E119
:1019200080E00E945F0A4DE060E182E00E945F0A71
:101930004EE166E184E00E94870A6091830066239D
:1019400031F44BE286E00E945F0A4CE208C061304D
:1019500059F44DE260E086E00E945F0A4EE260E1E9
:1019600086E00E945F0A08954FE260E086E00E94F0
:101970005F0A40E3F4CF0E94EA0948E060E0862F66
:101980000E945F0A49E060E082E00E945F0A4CE04A
:1019900060E180E00E945F0A4BE060E182E00E942B
:1019A0005F0A4EE166E184E00E94870A6091790057
:1019B000662319F049E160E001C048E186E00E9439
:1019C0005F0A4AE160E186E00E945F0A08950E9492
:1019D000EA0980917900882301F148E060E0862FD0
:1019E0000E945F0A49E060E082E00E945F0A4CE0EA
:1019F00060E180E00E945F0A4BE060E182E00E94CB
:101A00005F0A4EE166E184E00E94870A40917A0015
:101A100060E085E00E94FE0A08950E94BB0C0895D4
:101A20000E94EA0948E060E0862F0E945F0A49E0D0
:101A300060E082E00E945F0A4BE160E180E00E948A
:101A40005F0A4CE160E182E00E945F0A4EE166E1DC
:101A500084E00E94870A43E060E085E00E94FE0A7D
:101A600008950E94EA094DE160E0862F0E945F0A16
:101A70004DE060E180E00E945F0A4AE166E186E0B5
:101A80000E94870A4BE066E187E00E94870A809106
:101A90007D00882311F04BE101C041E266E182E064
:101AA0000E94870A40917E0060E083E00E94FE0A67
:101AB00040917F0060E085E00E94FE0A48E16BE013
:101AC00087E00E94870A08950E94EA0940916F000A
:101AD00060E0862F0E94FE0A4091700060E082E084
:101AE0000E94FE0A4091710063E084E00E94FE0AB9
:101AF0004091720063E086E00E94FE0A4091670018
:101B000067E180E00E94A30A4091680067E181E0FC
:101B10000E94A30A4091690067E182E00E94A30A43
:101B200040916A0067E183E00E94A30A4AE067E10E
:101B300084E00E94A30A40916B0067E185E00E9467
:101B4000A30A40916C0067E186E00E94A30A4BE083
:101B500067E187E00E94A30A40916D0068E180E0A0
:101B60000E94A30A40916E0068E181E00E94A30AEE
:101B700044E168E182E00E94A30A4CE068E184E06D
:101B80000E94A30A80917500835F482F68E185E079
:101B90000E94A30A4091760068E187E00E94A30AB0
:101BA0004091770069E180E00E94A30A45E169E184
:101BB00081E00E94A30A4091780069E182E00E94DE
:101BC000A30A4DE069E183E00E94A30A0895FF9211
:101BD0000F931F93CF93DF9340918E0050918F000E
:101BE0004F5F5F4F50938F0040938E0080917B003A
:101BF00029E030E0281B3109C90163E0880F991FF3
:101C00006A95E1F7820F931F820F931F8417950740
:101C100068F410928F0010928E0080918D028F5F79
:101C200080938D02813C10F010928D0220917C00F7
:101C30002223E9F480918502909186020196909387
:101C40008602809385028D5A934088F01092860216
:101C50001092850280918802882321F020938802C7
:101C6000822F03C081E0809388020E94FB0980914B
:101C70008902863008F447C080917C00882309F0EF
:101C800042C090918D02392F37702091890288E1EE
:101C9000289FF0011124969596959695E90FF11DD0
:101CA00080918902A82FBB2793E0AA0FBB1F9A95AA
:101CB000E1F7AF56BF4F632F772748E050E0461B50
:101CC000570B06E810E0EF54FF4F87E0F82E8081B5
:101CD000282F3327062E02C0220F331F0A94E2F763
:101CE00081819927042E02C0959587950A94E2F781
:101CF000822BE80189938E01FA943196F7FEE7CFA3
:101D0000E6E8F0E016C080918902A82FBB2713E017
:101D1000AA0FBB1F1A95E1F7AF56BF4F80918902FA
:101D2000E82FFF27C3E0EE0FFF1FCA95E1F7EF5E34
:101D3000FE4F80918100882349F5582F47E027E026
:101D400030E0949A959AD99ADA9A8C919927022E32
:101D500002C0959587950A94E2F780FD949880815A
:101D60009927022E02C0959587950A94E2F780FD87
:101D700095989398939A41502150304047FFE1CF76
:101D8000119631965F5F5830C8F2AFC0813049F587
:101D900050E047E027E030E0949A959AD99ADA9A91
:101DA0008C919927022E02C0959587950A94E2F7A7
:101DB00080FDD99880819927022E02C0959587953C
:101DC0000A94E2F780FDDA989398939A4150215053
:101DD000304047FFE1CF119631965F5F5830C8F22F
:101DE00084C0823069F550E047E027E030E0949A03
:101DF000959AD99ADA9A8C919927022E02C09595D4
:101E000087950A94E2F780FF02C09498D998808160
:101E10009927022E02C0959587950A94E2F780FFD4
:101E200002C09598DA989398939A41502150304087
:101E300047FFDDCF119631965F5F5830A8F255C04D
:101E4000833049F550E047E027E030E094989598DA
:101E5000D99ADA9A8C919927022E02C09595879586
:101E60000A94E2F780FDD99880819927022E02C05A
:101E7000959587950A94E2F780FDDA989398939A5E
:101E800041502150304047FFE1CF119631965F5FBE
:101E90005830C8F22AC0843041F550E047E027E0CE
:101EA00030E0949A959AD998DA988C919927022ED5
:101EB00002C0959587950A94E2F780FD94988081F9
:101EC0009927022E02C0959587950A94E2F780FD26
:101ED00095989398939A41502150304047FFE1CF15
:101EE000119631965F5F5830C8F29298929A80911D
:101EF000890299278730910509F442C088309105FD
:101F0000ACF48330910581F1843091054CF481303B
:101F1000910531F1823091052CF5892BF9F04CC0F7
:101F20008530910539F106974CF520C08B3091052D
:101F300091F18C30910534F48930910531F10A9793
:101F40003CF520C08D30910559F18D30910534F16B
:101F50008E30910539F10F9751F12EC0C49813C0FE
:101F6000C49814C0C49815C0C49816C0C498C29A26
:101F7000C1981BC0C498C29AC1981CC0C49813C011
:101F8000C49816C0C49AC298F3CFC49AC298F4CF2A
:101F9000C49AC29809C0C49AC2980BC0C49AE7CF29
:101FA000C49AE9CFC49AC29AC19AC09807C0C49A89
:101FB000C29AC19AC09A02C0109289028091890285
:101FC0008F5F8093890280918902803111F4109291
:101FD0008902DF91CF911F910F91FF900895CF93C8
:101FE000DF938CE180937C0040E0642F842F0E947B
:101FF0005F0A41E060E082E00E945F0A42E060E048
:1020000084E00E945F0A43E060E086E00E945F0A8D
:1020100044E060E180E00E945F0A45E060E182E028
:102020000E945F0A46E060E184E00E945F0A47E0A8
:1020300060E186E00E945F0AC7E8D3E10E94E70DF5
:102040008AE090E00E940C082197D7FFF7CF0E940A
:10205000EA0910927C00DF91CF91089516BE84E6C4
:1020600080B911B812B884E086BF089584EA86BFAB
:1020700006B607FEFDCF089583B984E886BF06B68D
:1020800007FEFDCF000081B19927887F90700895E9
:1020900084EC86BF06B607FEFDCF83B1992708956D
:1020A00084E986BF0895FC01662319F011926150FE
:1020B000FBCF08950F931F93CF93DF93EC01062F6F
:1020C000892F9927182F110F0E943610812F8E55B6
:1020D0000E943C10883139F48C2F0E943C10802FD4
:1020E0000E943C1003C081E0809398020E9450102F
:1020F000DF91CF911F910F910895EF92FF920F936F
:102100001F93CF93DF93EC017B01042F892F992735
:10211000182F110F0E943610812F8E550E943C10EF
:10212000883169F48C2F0E943C10002359F0F7018C
:1021300081917F010E943C1000000150F6CF81E0A8
:10214000809398020E945010DF91CF911F910F91C0
:10215000FF90EF900895EF92FF920F931F93CF930C
:10216000DF93EC017B01042F892F9927182F110F82
:102170000E943610812F8E550E943C10883121F428
:102180008C2F0E943C1003C081E0809398020E9433
:102190003610812F8D550E943C10883121F48C2FF0
:1021A0000E943C1003C081E080939802002339F024
:1021B0000E944810F70181937F010150C9F7DF9118
:1021C000CF911F910F91FF90EF90089568E080EA02
:1021D00092E00E94531068E08EE892E00E94531053
:1021E00060E280E090E00E945A1060E080E090E0C1
:1021F0000E945A10089547E060E670E082E090E0A7
:102200000E94AB1080916000982F9F7790936000A0
:1022100020916100422F4F774093610050916200FE
:10222000752F7F7370936200E0916300AE2FAF73E0
:10223000A0936300F0916400F770F0936400309114
:102240006500632F6F71609365008F7080937400D9
:1022500092959F70909373002F7020937200429517
:102260004F70409371005F705093700072957F7053
:1022700070936F00EF70E0936E00A295AF70A09323
:102280006D003F7030936C0062956F7060936B00CF
:1022900080916600982F9F7090936A0082958F704E
:1022A00080936900FF5FF09375000895CF93DF93EB
:1022B000CDB7DEB727970FB6F894DEBF0FBECDBF00
:1022C00080917300992754E0880F991F5A95E1F780
:1022D00020917400282B298380917100992744E074
:1022E000880F991F4A95E1F720917200282B2A83C5
:1022F00080916F00992734E0880F991F3A95E1F794
:1023000020917000282B2B8380916D00992724E069
:10231000880F991F2A95E1F720916E00282B2C83B6
:102320008091750081508D8380916B009927B4E076
:10233000880F991FBA95E1F720916C00282B2E8306
:10234000809169009927A4E0880F991FAA95E1F769
:1023500020916A00282B2F8347E0BE016F5F7F4FDB
:1023600082E090E00E947D1027960FB6F894DEBFC1
:102370000FBECDBFDF91CF910895CF9380916D00B7
:10238000882309F062C0C0916E00C13009F05DC0C1
:1023900090916F00992309F058C0809170008330AC
:1023A00009F053C080917100833009F04AC08091D8
:1023B0007200882309F049C080917D008823F9F0DC
:1023C000209180002223D9F43AE0225E80917E00A1
:1023D000839FC0011124280F80917F00280F822F36
:1023E000632F0E94891880937100822F0E948918A0
:1023F000909372000E945611C093800026C08823DB
:1024000021F580918000882301F53AE02EE180914A
:102410007E00839FC0011124281B80917F00281B10
:10242000822F632F0E94891880937100822F0E944F
:102430008918909372000E94561181E08093800069
:1024400004C0853011F490938000CF910895AA9A2A
:10245000A298A39AA49A089580919F0299278B30FD
:10246000910509F448C18C309105A4F5853091059A
:1024700009F4BEC086309105B4F48230910509F4A8
:102480006AC0833091053CF4009709F459C0019764
:1024900009F459C008958330910509F46DC004977B
:1024A00009F493C008958830910509F4DAC08930A1
:1024B000910544F48630910509F4ADC0079709F4FD
:1024C000C1C008958930910509F4E6C00A9709F45E
:1024D000FFC008958131910509F494C182319105BD
:1024E000BCF48E30910509F440C18F30910544F45D
:1024F0008C30910509F416C10D9709F422C1089595
:102500008F30910509F44CC1409709F45EC10895DC
:102510008431910509F4A3C18531910544F48231D8
:10252000910509F47DC1439709F48AC10895843661
:10253000910509F49BC18536910509F49AC1089566
:1025400010929902089589E18093870281E0809337
:102550008A0282E00EC080918A02882309F091C12C
:102560009A9B8FC186E18093870281E080938A02E3
:1025700083E080939F02089580918A02882309F066
:1025800080C19A9B7EC180916F009AE0899FC001B3
:10259000112420917000280F2730A8F0822F875037
:1025A000863010F48CE10AC0822F8D50863010F4F2
:1025B0008DE104C02351253030F48EE180938702F1
:1025C00081E080938A0284E0D4CF80918A028823BC
:1025D00009F057C19A9B55C180916F00823030F04D
:1025E0008F5F8093870281E080938A0285E0C1CF6C
:1025F00080918A02882309F044C19A9B42C180914C
:102600006F00882331F08BE08093870281E0809314
:102610008A0286E0AECF80918A02882309F031C118
:102620009A9B2FC190917000992321F480916F00A3
:10263000882331F49F5F9093870281E080938A0220
:1026400087E097CF80918A02882309F01AC19A9B6C
:1026500018C18DE08093870281E080938A0288E030
:1026600088CF80918A02882309F00BC19A9B09C107
:1026700080917100882331F480917200882351F495
:102680008AE103C0823030F08F5F8093870281E05F
:1026900080938A0289E06DCF80918A02882309F0B5
:1026A000F0C09A9BEEC080917100882329F480913C
:1026B0007200882331F40AC08BE08093870281E0A6
:1026C00003C081E08093870280938A028AE051CF21
:1026D00080918A02882309F0D4C09A9BD2C080914D
:1026E0007200882331F08F5F8093870281E08093AE
:1026F0008A028BE03ECF80918A02882309F0C1C014
:102700009A9BBFC080917100882321F48091720050
:10271000882331F08EE08093870281E080938A02E3
:102720008CE027CF80918A02882309F0AAC09A9B67
:10273000A8C088EE93E090939702809396028DE074
:1027400018CF8091960290919702019790939702EB
:1027500080939602892B09F094C087E180938702C9
:1027600081E080938A028EE004CF80918A028823E0
:1027700009F087C09A9B85C090917600892F82507E
:10278000883020F49F5F9093870205C09B3030F023
:102790008FE18093870281E080938A028FE0E9CE07
:1027A00080918A02882309F06CC09A9B6AC080914C
:1027B0007600882341F08E3031F08BE080938702E1
:1027C00081E080938A0280E1D4CE80918A028823BE
:1027D00009F057C09A9B55C080917700882329F053
:1027E0008F5F8093870281E009C080917600882303
:1027F00011F08E3029F481E08093870280938A0261
:1028000081E1B7CE80918A028823D9F59A9B39C09D
:102810008DE08093870281E080938A0282E1A9CED5
:1028200080918A02882369F59A9B2BC08091780059
:102830008F5F8093870281E080938A0283E199CE43
:1028400080918A028823E9F49A9B1BC094E19093BB
:10285000870281E080938A0290939F02089580917D
:102860008A02882371F49A9B0CC083CE10929F0237
:10287000089580918A02882321F49A9B02C0809354
:102880009F02089580918A0299278230910519F15B
:10289000833091052CF4009761F0019781F0089541
:1028A0008430910581F18430910504F10597A9F1F7
:1028B000089582E080939C02AC98AB980895AC9800
:1028C000AB9A80919C02815080939C02882371F581
:1028D000AB9882E008C080918702882321F081E0D4
:1028E00080939C0283E080938A020895AC98809143
:1028F0009C02815080939C028823C1F481E08093E4
:102900009C0284E0F0CFAC9A80919C02815080932D
:102910009C02882359F485E0E6CFAC988091870229
:1029200081508093870282E080938A020895AE9A54
:10293000A698AF9AA798909A8898919A899808959E
:10294000CF92DF92EF92FF920F931F93CF93DF937B
:10295000D82EC62EEA0179019E992CC080E29EE411
:102960000197F1F783B399279C012074307086FD9D
:102970001FC084E680939F0230938C0220938B02C9
:1029800088813AE0839FC0011124F7012081280F3C
:102990002F5FD21608F4262F822F632F0E948918EA
:1029A0008883822F0E948918F7019083F801099586
:1029B0009E9BFECF9F9935C080E29EE40197F1F780
:1029C0009F992DC084E680939F0210928C021092F2
:1029D0008B0288813AE0839FC0011124F701208196
:1029E000280F215080E090E0D21610F481E090E0B2
:1029F00040E050E02C1510F441E050E0842B952B82
:102A0000892B09F02D2D822F632F0E94891888832E
:102A1000822F0E948918F7019083F80109959F9BE6
:102A2000FECFDF91CF911F910F91FF90EF90DF903C
:102A3000CF9008950F931F93CF93DF93CDB7DEB759
:102A400024970FB6F894DEBF0FBECDBF80917C00F7
:102A50008823A9F08B3199F08A3189F080918B021B
:102A600090918C028950924550F010927C000E9407
:102A700056110E9421090E94EA090E94640D80916A
:102A80007C008A51823068F480919D0290919E0270
:102A9000855F914030F010927C000E9421090E94D5
:102AA000640D819916C080E29EE40197F1F7819947
:102AB0000EC081E080939F02809181008F5F8093A0
:102AC0008100853010F0109281000E942109819BC5
:102AD000FECF80917C00882329F08B3119F08A3158
:102AE00009F04DC09E992AC080E29EE40197F1F75B
:102AF0009E9922C084E680939F028091790088236A
:102B000091F080917A008F5F80937A00893018F07D
:102B100081E080937A0090917A0089E1989FC001CA
:102B2000112488518CBF8BE180937C0010929E020F
:102B300010929D020E94E70C9E9BFECF9F99DBC0E6
:102B400080E29EE40197F1F79F9916C084E6809396
:102B50009F0280917B008F5F80937B00893018F00B
:102B600081E080937B008AE180937C0010929E023A
:102B700010929D020E94600C9F9BFECFBCC08130D2
:102B800049F406E11CE02AE630E049E650E060E066
:102B900083E6AFC0823049F40EE11CE02CE630E061
:102BA0004BE650E061E08CE0A4C0833049F406E2DB
:102BB0001CE02EE630E04DE650E061E08FE199C088
:102BC000843049F40EE21CE020E730E04FE650E0AC
:102BD00060E087E18EC0853049F406E31CE022E71F
:102BE00030E041E750E060E08BE383C0863059F489
:102BF00019820EE31CE025E730E0AE014F5F5F4F26
:102C000061E087E076C0873059F41A820BEB1CE054
:102C100029E730E0AE014E5F5F4F6A8181E069C015
:102C2000883051F41B8200E11DE022E830E0AE0163
:102C30004D5F5F4F6B815CC0893009F04EC09E993B
:102C40002EC080E29EE40197F1F783B399279C019F
:102C50002074307086FD21C030938C0220938B024B
:102C600084E680939F0280917E003AE0839FC001BA
:102C7000112420917F00280F2F5F253108F020E0DC
:102C8000822F632F0E94891880937E00822F0E94DA
:102C9000891890937F000E94310D9E9BFECF9F99D3
:102CA0002AC080E29EE40197F1F79F9913C0109229
:102CB0008C0210928B0284E680939F0280917D00AB
:102CC000882319F010927D0003C081E080937D007D
:102CD0000E94310D9F9BFECF0EC08A3061F41C8292
:102CE00002E81CE023E830E0AE014C5F5F4F6C81EE
:102CF00082E00E94A014809970C080E29EE4019757
:102D0000F1F780B399279C012170307080FD63C07A
:102D100084E680939F0230938C0220938B028091F3
:102D20007C008F5F80937C008B3010F010927C00D1
:102D300080917C0099278530910509F43BC086304D
:102D400091058CF48230910561F1833091052CF46A
:102D50000097D9F0019711F13EC08330910521F120
:102D6000049729F138C08830910569F189309105BF
:102D700034F48630910509F1079711F12CC08930A0
:102D8000910521F10A9729F126C00E9456110E944F
:102D900021090E94EA090E94640D1DC00E94160CC0
:102DA0001AC00E941E0C17C00E94260C14C00E945C
:102DB0002E0C11C00E94360C0EC00E943E0C0BC09F
:102DC0000E94BB0C08C00E94100D05C00E94310D6E
:102DD00002C00E94820C809BFECF24960FB6F8940E
:102DE000DEBF0FBECDBFDF91CF911F910F91089530
:102DF00016B880E487B987ED86B9089584B1282F85
:102E0000332785B19927982F8827822B932B969566
:102E1000879583976CE370E00E949518CB0198E04A
:102E2000292F281B20937A00921718F490937A0088
:102E300005C0222319F481E080937A0090917A00F2
:102E400089E1989FC001112488518CBF089513BE59
:102E500012BE89E783BF80917900893040F4909158
:102E60007A0089E1989FC0011124885101C084E64D
:102E70008CBF089515BC12BC83E884BD82E883BD75
:102E800089B7806489BF84E085BD08951F920F9241
:102E90000FB60F9211242F933F934F935F936F932D
:102EA0007F938F939F93AF93BF93EF93FF930E9472
:102EB00042140E942C1280917C00882309F03EC0AD
:102EC00080919F028823D1F58091830290918402A2
:102ED000019690938402809383028253984C11F45C
:102EE0000E948708809183029091840281569A4EB5
:102EF00030F00E9490081092840210928302809118
:102F000079008823D9F48091810290918202019600
:102F100090938202809381028855924011F40E941E
:102F2000F81680918102909182028558934030F08A
:102F30000E94FE16109282021092810280918B02F2
:102F400090918C02019690938C0280938B028091D9
:102F50009D0290919E02019690939E0280939D0205
:102F600083E884BDFF91EF91BF91AF919F918F91C5
:102F70007F916F915F914F913F912F910F900FBE75
:102F80000F901F901895F89415BE1BBE0E94CC0997
:102F90000E9497140E9427120E9427170E943A1736
:102FA0000E94E61010928402109283021092820214
:102FB0001092810210928C0210928B020E942508BE
:102FC0000E94EA0978940895CFE5D4E0DEBFCDBF32
:102FD0000E94C3170E94870886E090E00E941708AD
:102FE0000E94900880991CC080E29EE40197F1F74E
:102FF000809916C081E08093790080937A00809355
:103000007B0010927C0010927D0010927E00109246
:103010007F0010928100109282008CBF0E942109D3
:103020000E9475090E94EF0F0E94FB100E94640D20
:1030300081E080939F0280917C00882309F05AC030
:103040000E94FB10409183004423D1F480917100D1
:103050008823E1F5809172008823C1F58091730087
:103060008823A1F5809174008A3080F580919902BF
:10307000882361F581E08093990280939F0226C0A6
:10308000413021F590916F008AE0989F90011124C2
:1030900080917000820F87508131C0F4809171005F
:1030A0008823A1F480917200882381F480917300B9
:1030B000882361F4809174008A3040F480919902F1
:1030C000882321F44093990240939F0280919A02B1
:1030D00090919B02019690939B0280939A0281515A
:1030E000974240F00E94BD110E94640D10929B0215
:1030F00010929A020E94E70D0E941A159CCFDC01E3
:1031000040FF03C001C06D936D9342505040D8F70B
:103110000895991B79E004C0991F961708F0961B33
:10312000881F7A95C9F780950895AA1BBB1B51E1AA
:1031300007C0AA1FBB1FA617B70710F0A61BB70B27
:10314000881F991F5A95A9F780959095BC01CD01CC
:103150000895E199FECFBFBBAEBBE09A11960DB2C8
:103160000895E199FECFBFBBAEBB0DBA11960FB665
:0A317000F894E29AE19A0FBE089568
:10317A004059232905020802000102000101070241
:10318A000201090000020203040007010000000016
:04319A000000000031
:00000001FF
