:100000000C943F050C945A050C945A050C945A050F
:100010000C94AF110C945A050C945A050C945A0583
:100020000C945A050C945A050C945A050C945A05D4
:100030000C945A050C945A050C945A050C945A05C4
:100040000C945A050C945A050C945A050C945A05B4
:100050000C945A050200038006001FFC1FFC180CBC
:100060001FFC1FFC180C1FFC1FFC180C1FFC1FFCA6
:10007000180C180C00083FFC3FFC018001803FFC7D
:100080001FF801807FFF7FFE0180018001800780D3
:1000900007800000000000303E303F3001FE01FECE
:1000A0007F367F3618761866366676E67EC639DE87
:1000B000039C000000006006700E700E781E781E13
:1000C0007C3E6C366E76666667C663C66186618600
:1000D000700E700E00003FFF3FFF30C300C000C035
:1000E00000C000C000C000C000C000C000C000C010
:1000F00007F807F8000003FC0FFE0E071C031807A3
:10010000180E001C0038007000E001C003800700DA
:100110001FFF1FFF7C82828282828282827C10305B
:1001200050101010101010FE7C820202027C8080A1
:1001300080FE7C820202027C0202827C888888889F
:1001400088FE08080808FE80808080FC0202827C0D
:100150008080808080FC8282827CFE020202020219
:10016000020202027C82828282FE8282827C7C8205
:100170008282827E02020202407E887E4848FE0819
:1001800008087E42427E42427E4246827E92BA9277
:10019000BA82BAAABA86BC42404040404040423C83
:1001A00000000000FE00000000000000007E0000D3
:1001B00000FF0000007E0000003C000000FFFFA9DF
:1001C000A9A9A9A9C781FF817E1010107C1414145D
:1001D00014FF2010FE004444444444827E424242C4
:1001E0007E424242427E00000000000000001818DB
:1001F00000000000000000000000FE828282828277
:10020000828282FE10101010101010101010FE02CA
:10021000020202FE808080FEFE02020202FE020254
:1002200002FE8282828282FE02020202FE808080C0
:1002300080FE020202FEFE80808080FE828282FEBC
:10024000FE020202020202020202FE82828282FE9A
:10025000828282FEFE82828282FE020202FE80FE94
:10026000887E4848FE0808087E42427E42427E421E
:100270004246FE92BA92BA82BAAABA86DFD010106B
:1002800010101010101F00000000FE000000000001
:10029000007C00000000000000FEFE0000007C006A
:1002A000000000FEFEAAAAAAAAEE828282FEFE201A
:1002B0002020FC24242424FE201010FE4444444426
:1002C00044447E4242427E424242427E000000005E
:1002D00000000000181800000000000000000000EE
:1002E0007C82828282828282827C10305010101046
:1002F000101010FE384482820408102040FE7C82D8
:1003000002023C020282827C060C14244484FE0415
:100310000404FE8080FC02020282827C7C82808057
:10032000FC828282827C7E820204081020202020AF
:100330007C8282827C828282827C7C828282827EB9
:100340000202827C407E887E4848FE0808087E4281
:10035000427E42427E4246827E92BA92BA82BAAAD5
:10036000BA86087E547E5C405C54489600000000CB
:10037000FE00000000000000007E000000FF000002
:10038000007E0000003C000000FFFFA9A9A9A9A968
:10039000C781FF817E1010107C14141414FF3018D4
:1003A00008FF0024246666C27F4141417F414141EC
:1003B000417F00000000000000001818000000004D
:1003C0000000000000007C82828282828282827C25
:1003D000103050101010101010FE384482820408A3
:1003E000102040FE7C8202023C020282827C060CCB
:1003F00014244484FE040404FE8080FC0202028271
:10040000827C7C828080FC828282827C7E8202046A
:100410000810202020207C8282827C828282827C42
:100420007C828282827E0202827C407E887E484874
:10043000FE0808087E42427E42427E4246827E920A
:10044000BA92BA82BAAABA86087E547E5C405C54DC
:10045000489600000000FE00000000000000007E42
:10046000000000FF0000007E0000003C000000FFD4
:10047000FFA9A9A9A9A9C781FF817E1010107C142A
:10048000141414FF301808FF0024246666C27F414C
:1004900041417F414141417F0000000000000000D8
:1004A00018180000000000000000000002E2BFA2D7
:1004B000EAAAA2AAE60238242442BD242424448CB9
:1004C00010FF3C243CFF813C2447203E40BE2AFFD5
:1004D000327E0204404040F75555555750B05C14E9
:1004E000D476405C545468567E5A7EFF7E427E7EAF
:1004F00042FF0000000000606000606010107E425B
:100500007E427E427E42047E087E08FF080828184C
:100510000202BF623A227ABB224548487ED4625426
:10052000D448546210FE92FE9292FE10121EFE04F7
:100530000810FE1010105030FE40507E52525252A1
:1005400052A4000000007E7E000000007E41414178
:100550007E414141417E4141221408142222414101
:1005600041414122140808080808FE828282FE8266
:10057000828282FE845FC45F555F444E55BF08FF90
:10058000817E04FF080838082444FF4E55555F65F6
:1005900044443FE07FF0FFF8E038E038E038E038EE
:1005A000E038E038E038E038E038E038E038E0388B
:1005B000E038E038E038FFF87FF03FE007000F0058
:1005C0001F001F001F0007000700070007000700AB
:1005D00007000700070007000700070007000700E3
:1005E000FFF8FFF8FFF83FE07FF0FFF8E038003851
:1005F00000380038003800383FF87FF0FFE0E000B6
:10060000E000E000E000E000E000FFF8FFF8FFF8A5
:100610003FE07FF0FFF8E03800380038003800385D
:1006200000381FF01FE01FF0003800380038003895
:100630000038E038FFF87FF03FE0E1C0E1C0E1C002
:10064000E1C0E1C0E1C0E1C0E1C0E1C0FFF8FFF8F6
:10065000FFF801C001C001C001C001C001C001C05C
:1006600001C001C0FFF8FFF8FFF8E000E000E00083
:10067000E000E000E000FFE0FFF0FFF800380038A5
:10068000003800380038E038FFF87FF03FE0E00045
:10069000E000E000E000E000E000E000E000E0005A
:1006A000FFE0FFF0FFF8E038E038E038E038E0380D
:1006B000E038FFF87FF03FE0FFF8FFF8FFF8003880
:1006C000003800380038003800380038003800386A
:1006D000003800380038003800380038003800385A
:1006E00000383FE07FF0FFF8E038E038E038E038ED
:1006F000E03870703FE01FC03FE07070E038E038D5
:10070000E038E038E038FFF87FF03FE03FE07FF08E
:10071000FFF8E038E038E038E038E038E038FFF85B
:100720007FF83FF8003800380038003800380038CB
:10073000003800380038FFF8FFF8FFF8E038E038FC
:10074000E038E038E038E038E038E038E038E038E9
:10075000E038E038E038E038E038FFF8FFF8FFF83C
:100760000700070007000700070007000700070051
:100770000700070007000700070007000700070041
:1007800007000700070007000700FFF8FFF8FFF861
:10079000003800380038003800380038FFF8FFF81B
:1007A000FFF8E000E000E000E000E000E000FFF81B
:1007B000FFF8FFF8FFF8FFF8FFF8003800380038BE
:1007C000003800380038FFF8FFF8FFF8003800382C
:1007D0000038003800380038FFF8FFF8FFF8E0383C
:1007E000E038E038E038E038E038E038E038E03849
:1007F000FFF8FFF8FFF800380038003800380038FC
:100800000038003800380038FFF8FFF8FFF8E00043
:10081000E000E000E000E000E000FFF8FFF8FFF893
:10082000003800380038003800380038FFF8FFF88A
:10083000FFF8FFF8FFF8FFF8E000E000E000E0005C
:10084000E000E000FFF8FFF8FFF8E038E038E038BB
:10085000E038E038E038FFF8FFF8FFF8FFF8FFF87D
:10086000FFF8003800380038003800380038003809
:1008700000380038003800380038003800380038B8
:10088000003800380038FFF8FFF8FFF8E038E038AB
:10089000E038E038E038E038FFF8FFF8FFF8E038FB
:1008A000E038E038E038E038E038FFF8FFF8FFF8EB
:1008B000FFF8FFF8FFF8E038E038E038E038E038DB
:1008C000E038FFF8FFF8FFF800380038003800384B
:1008D00000380038FFF8FFF8FFF807800FC03FE04E
:1008E00038707070703870386038E038E038E03850
:1008F000E038E03860387038703070703CE01FE0ED
:100900000F80060003001F00FF00FF00C700070064
:10091000070007000700070007000700070007009F
:10092000070007000700070007007FF87FF80FC0E7
:100930003FF03FF830380038001800180038003811
:100940000038007000E001C0038007000E001C00AA
:10095000380070007FF87FF81F803FE03FF020787C
:1009600000380038007000E01FC01FC01FF00038C2
:100970000038003800380038003860F07FF07FC061
:100980000E0001E001E003E003E006E00EE01CE001
:1009900018E030E070E060E0E0E0C0E0FFF8FFF871
:1009A000FFF800E000E000E000E000E03FF83FF882
:1009B0003FF838003800380038003F803FE03FF013
:1009C000007800380038001800180018003870F05F
:1009D0007FF03FC00E0003C00FE01FF03C0070002E
:1009E0007000E000E7C0FFE0FFF0F078E038E038AA
:1009F000E038E038E038707878703FE01FC00700DA
:100A0000FFF8FFF8FFF000700070006000E000C029
:100A100001C001C0038003800300070007000E002F
:100A20000E001C001C001C0038000F803FE07FF00F
:100A30007070E070E070707079E01FC01F803FE060
:100A400070F0E070E038C038E038E038F0F07FF067
:100A50003FC006001F803FC07FE0E070E070C03004
:100A6000C038E038E078F0F87FF83FB80030003068
:100A70000070007000E043E07FC07F001C00112484
:100A80001FBECFE5D4E0DEBFCDBF10E0A0E6B0E0F2
:100A9000E4EAF5E202C005900D92A438B107D9F757
:100AA00012E0A4E8B0E001C01D92A13AB107E1F75D
:100AB0000C9441120C940000009741F02FE330E0B9
:100AC0002450304037FFFCCF0197F6CF0895CF93E5
:100AD000DF93EC01892B31F080E197E20E945C0505
:100AE0002197D1F7DF91CF9108958FB78093900030
:100AF000F8948F9A97988CE390E00E945C05979AFF
:100B00008F9885E090E00E945C0580B382E390E0DE
:100B10000E945C058091900087FF01C07894089541
:100B20001F93CF9310E08FB780939000F894C8E0A4
:100B300016958F9A979881E090E00E945C05979AAD
:100B40008F9881E090E00E945C058799106883E0AF
:100B500090E00E945C05C15059F78091900087FF9A
:100B600001C07894812F9927CF911F9108951F93E9
:100B7000CF93C82F8FB780939000F89418E08F9A86
:100B8000979881E090E00E945C05C0FD979A84E010
:100B900090E00E945C05979AC695115081F780916C
:100BA000900087FF01C07894CF911F9108950E9413
:100BB00075058CEC0E94B70584E40E94B705089582
:100BC000CF92DF92EF92FF920F931F93CF93DF9319
:100BD000CDB7DEB722970FB6F894DEBF0FBECDBFFC
:100BE0000E9475058CEC0E94B7058EEB0E94B7053C
:100BF000EE24FF246E010894C11CD11C87010C0D4A
:100C00001D1D0E949005F80180830894E11CF11CD1
:100C1000F2E0EF16F10470F3F6018181E82EFF2473
:100C2000FE2CEE2489819927E82AF92AC7018070D1
:100C3000907F8050904F31F441E0F094E194F108BE
:100C4000F39401C040E097012F70307081E792E08B
:100C5000289FB001299F700D389F700D1124CB0182
:100C600068EE73E00E94AA129B01C70153E0880F4F
:100C7000991F5A95E1F78E0D9F1D8E0D9F1D34E033
:100C8000969587953A95E1F768EE73E00E94AA126F
:100C90007C0164E670E00E94AA12413021F48EE0EB
:100CA0008093760002C060937600C70164E670E02E
:100CB0000E94AA126AE070E00E94AA126093770074
:100CC0002093780022960FB6F894DEBF0FBECDBFFA
:100CD000DF91CF911F910F91FF90EF90DF90CF9018
:100CE0000895F8948CB39927DC01A270B07081FD4F
:100CF00043C08CEC082E0E94C612A1E0B0E08091A7
:100D00007900082E0E94C612A2E0B0E080917A001D
:100D1000082E0E94C612A3E0B0E080917B00082E4E
:100D20000E94C612A4E0B0E080917C00082E0E94D0
:100D3000C612A5E0B0E080917D00082E0E94C61288
:100D4000A6E0B0E080917E00082E0E94C612A7E0C7
:100D5000B0E080917F00082E0E94C612A8E0B0E0AB
:100D600080918100082E0E94C612A9E0B0E0809117
:100D70008200082E0E94C61278940895F8948CB3CD
:100D80009927DC01A270B07081FD46C00E94BE129E
:100D9000802D8C3C09F038C0A1E0B0E00E94BE126A
:100DA000802D80937900A2E0B0E00E94BE12802DD9
:100DB00080937A00A3E0B0E00E94BE12802D809361
:100DC0007B00A5E0B0E00E94BE12802D80937D00E4
:100DD000A6E0B0E00E94BE12802D80937E00A7E0C6
:100DE000B0E00E94BE12802D80937F00A8E0B0E0AA
:100DF0000E94BE12802D80938100A9E0B0E00E9485
:100E0000BE12802D8093820090917A0089E1989F94
:100E1000C001112488518CBF78940895BB9AB89A68
:100E2000B99ABA9ABC9A8C9A8D9ABE9ABF9A8A9AA3
:100E30008B9A10928802109286021092850210926C
:100E4000870210928B0210928F0010928E001092E7
:100E5000960210929502089580E091E0E1E9F0E0B9
:100E600011920197E9F7089540E051E06FEF70E0CB
:100E700081E990E00E9494120895CF939091B5007B
:100E80002091BD003091C5004091B4005091BC004C
:100E90006091C4007091FD00E0910501F0910D0199
:100EA000A091FC00B0910401C0910C01882319F1BC
:100EB000906C9093B500206C2093BD00306C309303
:100EC000C50041604093B40051605093BC00616024
:100ED0006093C400706C7093FD00E06CE0930501BA
:100EE000F06CF0930D01A160A093FC00B160B09391
:100EF0000401C16022C09F739093B5002F732093AB
:100F0000BD003F733093C5004E7F4093B4005E7FB9
:100F10005093BC006E7F6093C4007F737093FD009C
:100F2000EF73E0930501FF73F0930D01AE7FA09383
:100F3000FC00BE7FB0930401CE7FC0930C01CF9123
:100F40000895242F3327A62FBB27E3E0AA0FBB1F4A
:100F5000EA95E1F7A80FB11DAF56BF4F9FE075E0CE
:100F6000220F331F7A95E1F7A9014B5A5F4F2C5A94
:100F70003F4FF90184918C93FA018491FD018183A3
:100F800091502E5F3F4F4E5F5F4F189697FFF1CF06
:100F900008959AE0499FA0011124A62FBB27F3E0F2
:100FA000AA0FBB1FFA95E1F7A80FB11DAF56BF4FAF
:100FB0004A535C4F99E0FA0184918C9318969150B2
:100FC0004F5F5F4F97FFF7CF0895982F8091820072
:100FD0008823E1F48AE0489F90011124A62FBB27C3
:100FE00053E0AA0FBB1F5A95E1F7A90FB11DAF56E9
:100FF000BF4F20523D4F99E0F90184918C93589650
:1010000091502F5F3F4F97FFF7CF08958130E1F464
:101010008AE0489F90011124A62FBB2743E0AA0F26
:10102000BB1F4A95E1F7A90FB11DAF56BF4F265020
:101030003E4F99E0F90184918C93589691502F5F1F
:101040003F4F97FFF7CF08958AE0489F9001112402
:10105000A62FBB2783E0AA0FBB1F8A95E1F7A90F34
:10106000B11DAF56BF4F2C5E3E4F99E0F901849100
:101070008C93589691502F5F3F4F97FFF7CF08956D
:10108000EF92FF921F93CF93DF9390918200992369
:1010900009F049C0242F3327A82FBB277727C8E0A2
:1010A000D0E0C61BD70BAF56BF4F85E190E0289F1D
:1010B000A001299F500D389F500D1124CA0114E141
:1010C000840F951FAC014552574FFAEDEF2EF8E013
:1010D000FF2EE80EF91EF70124913327C901062ED1
:1010E00002C0959587950A94E2F78C93FA01849152
:1010F0000C2E02C0220F331F0A94E2F79927062E06
:1011000002C0959587950A94E2F7822BFD018183B1
:10111000115082E090E0E80EF91E480F591F189612
:1011200017FFD9CF94C0913009F049C0242F33273D
:10113000A82FBB277727C8E0D0E0C61BD70BAF5638
:10114000BF4F85E190E0289FF001299FF00D389F67
:10115000F00D1124CF0114E18E0F9F1FAC01495CEB
:10116000584FE6E3EE2EE7E0FE2EE80EF91EF701FB
:1011700024913327C901062E02C0959587950A94BC
:10118000E2F78C93FA0184910C2E02C0220F331FD8
:101190000A94E2F79927062E02C0959587950A943E
:1011A000E2F7822BFD018183115082E090E0E80E8E
:1011B000F91E480F591F189617FFD9CF48C0242F82
:1011C0003327A82FBB277727C8E0D0E0C61BD70B53
:1011D000AF56BF4F85E190E0289FF001299FF00DA9
:1011E000389FF00D1124CF0114E18E0F9F1FAC0129
:1011F0004D565A4F72E9E72E75E0F72EE80EF91EAC
:10120000F70124913327C901062E02C095958795D1
:101210000A94E2F78C93FA0184910C2E02C0220FFB
:10122000331F0A94E2F79927062E02C095958795F9
:101230000A94E2F7822BFD018183115082E090E055
:10124000E80EF91E480F591F189617FFD9CFDF91E6
:10125000CF911F91FF90EF900895DF92EF92FF9250
:101260000F931F938C017B01D42E0E942C074CE11D
:1012700060E0862F0E94C9074DE160E081E00E9496
:10128000C9074EE160E082E00E94C907F801408191
:1012900060E083E00E944008F701408160E085E063
:1012A0000E9440084D2D6BE087E00E94C9071F9106
:1012B0000F91FF90EF90DF9008954AE06AE670E0AA
:1012C00089E690E00E942D0908954BE06CE670E0FD
:1012D0008BE690E00E942D09089544E16EE670E0EF
:1012E0008DE690E00E942D09089547E160E770E0E7
:1012F0008FE690E00E942D09089548E162E770E0D2
:1013000081E790E00E942D0908950E942C074CE18E
:1013100060E0862F0E94C9074DE160E081E00E94F5
:10132000C9074EE160E082E00E94C9074CE06BE033
:1013300083E00E94C9074091750060E085E00E944B
:10134000400808950E942C074CE160E0862F0E941F
:10135000C9074DE160E081E00E94C9074BE260E00F
:1013600082E00E94C9074DE060E083E00E94C90767
:101370004EE160E084E00E94C90740917B0060E09C
:1013800085E00E94400808950E942C074CE160E02F
:10139000862F0E94C9074DE160E081E00E94C907E5
:1013A00049E160E082E00E94C9074DE060E083E02F
:1013B0000E94C9074EE160E084E00E94C9074091A5
:1013C0007900411141E06CE083E00E94A10742E016
:1013D0006CE085E00E94A10708950E942C0780918F
:1013E0007900882301F14CE160E0862F0E94C90753
:1013F0004DE160E081E00E94C90749E160E082E0E0
:101400000E94C9074DE060E083E00E94C9074EE1F9
:1014100060E084E00E94C90740917A0060E085E0C6
:101420000E94400808950E94C40908950E942C0754
:101430004CE160E0862F0E94C9074DE160E081E049
:101440000E94C9074CE260E082E00E94C9074DE2B9
:1014500060E083E00E94C9074EE160E084E00E9402
:10146000C90743E060E085E00E94400808950E94BB
:101470002C074CE160E0862F0E94C9074DE160E037
:1014800081E00E94C90742E26BE080E00E94C90748
:1014900047E16BE081E00E94C9074EE16BE082E02A
:1014A0000E94C9074AE166E186E00E94C9074BE055
:1014B00066E187E00E94C90780917D00882311F0D2
:1014C0004BE101C041E266E182E00E94C907409120
:1014D0007E0060E083E00E94400840917F0060E071
:1014E00085E00E94400848E16BE087E00E94C90760
:1014F00008950E942C0740916F0060E0862F0E94A3
:1015000040084091700060E082E00E9440084091F5
:10151000710063E084E00E9440084091720063E043
:1015200086E00E9440084091670067E180E00E94E9
:10153000E5074091680067E181E00E94E50740917E
:10154000690067E182E00E94E50740916A0067E177
:1015500083E00E94E5074AE067E184E00E94E50736
:1015600040916B0067E185E00E94E50740916C00C7
:1015700067E186E00E94E5074BE067E187E00E94B3
:10158000E50740916D0068E180E00E94E507409129
:101590006E0068E181E00E94E50744E168E182E0D5
:1015A0000E94E5074CE068E184E00E94E507809135
:1015B0007500835F482F68E185E00E94E507409150
:1015C000760068E187E00E94E5074091770069E1D5
:1015D00080E00E94E50745E169E181E00E94E507BE
:1015E0004091780069E182E00E94E5074DE069E101
:1015F00083E00E94E5070895FF920F931F93CF9316
:10160000DF9340918E0050918F004F5F5F4F50935A
:101610008F0040938E0080917B0029E030E0281BF2
:101620003109C90163E0880F991F6A95E1F7820FBC
:10163000931F820F931F8417950768F410928F00F1
:1016400010928E0080918B028F5F80938B02813C81
:1016500010F010928B0220917C002223E9F48091FB
:10166000850290918602019690938602809385026E
:10167000855E924088F010928602109285028091D9
:101680008702882321F020938702822F03C081E004
:10169000809387020E943D0780918802863008F47B
:1016A00047C080917C00882309F042C090918B0252
:1016B000392F37702091880288E1289FF00111248A
:1016C000969596959695E90FF11D80918802A82F21
:1016D000BB2793E0AA0FBB1F9A95E1F7AF56BF4F08
:1016E000632F772748E050E0461B570B06E810E0D1
:1016F000EF54FF4F87E0F82E8081282F3327062EE6
:1017000002C0220F331F0A94E2F781819927042E29
:1017100002C0959587950A94E2F7822BE801899398
:101720008E01FA943196F7FEE7CFE6E8F0E016C0B6
:1017300080918802A82FBB2713E0AA0FBB1F1A9520
:10174000E1F7AF56BF4F80918802E82FFF27C3E033
:10175000EE0FFF1FCA95E1F7EF5EFE4F809181000B
:10176000882349F5582F47E027E030E0949A959A6E
:10177000C69AC79A8C919927022E02C09595879593
:101780000A94E2F780FD949880819927022E02C086
:10179000959587950A94E2F780FD95989398939A8A
:1017A00041502150304047FFE1CF119631965F5FA5
:1017B0005830C8F2AFC0813049F550E047E027E02B
:1017C00030E0949A959AC69AC79A8C919927022EDE
:1017D00002C0959587950A94E2F780FDC6988081AE
:1017E0009927022E02C0959587950A94E2F780FD0D
:1017F000C7989398939A41502150304047FFE1CFCA
:10180000119631965F5F5830C8F284C0823069F516
:1018100050E047E027E030E0949A959AC69AC79A3C
:101820008C919927022E02C0959587950A94E2F72C
:1018300080FF02C09498C69880819927022E02C02A
:10184000959587950A94E2F780FF02C09598C7980E
:101850009398939A41502150304047FFDDCF119625
:1018600031965F5F5830A8F255C0833049F550E09B
:1018700047E027E030E094989598C69AC79A8C91F3
:101880009927022E02C0959587950A94E2F780FD6C
:10189000C69880819927022E02C0959587950A9453
:1018A000E2F780FDC7989398939A415021503040B9
:1018B00047FFE1CF119631965F5F5830C8F22AC0DA
:1018C000843041F550E047E027E030E0949A959A63
:1018D000C698C7988C919927022E02C09595879536
:1018E0000A94E2F780FD949880819927022E02C025
:1018F000959587950A94E2F780FD95989398939A29
:1019000041502150304047FFE1CF119631965F5F43
:101910005830C8F29298929A80918802992787301D
:10192000910509F442C088309105ACF483309105EB
:1019300081F1843091054CF48130910531F1823090
:1019400091052CF5892BF9F04CC08530910539F1C2
:1019500006974CF520C08B30910591F18C309105A4
:1019600034F48930910531F10A973CF520C08D306F
:10197000910559F18D30910534F18E30910539F191
:101980000F9751F12EC0C49813C0C49814C0C498C6
:1019900015C0C49816C0C498C29AC1981BC0C498F8
:1019A000C29AC1981CC0C49813C0C49816C0C49AE7
:1019B000C298F3CFC49AC298F4CFC49AC29809C00F
:1019C000C49AC2980BC0C49AE7CFC49AE9CFC49A0C
:1019D000C29AC19AC09807C0C49AC29AC19AC09AC2
:1019E00002C010928802809188028F5F80938802E3
:1019F00080918802803111F410928802DF91CF919A
:101A00001F910F91FF900895CF93DF938CE1809306
:101A10007C0043E060E081E00E94A10744E060E0D8
:101A200083E00E94A10745E060E0842F0E94A107A7
:101A300043E264E180E00E94C90744E264E181E09E
:101A40000E94C9074AE264E182E00E94C90745E2B8
:101A500064E183E00E94C90746E264E184E00E94F9
:101A6000C90747E264E185E00E94C90748E264E1F2
:101A700086E00E94C90749E264E187E00E94C90745
:101A8000C7E8D3E10E94FC0A8AE090E00E945C056E
:101A90002197D7FFF7CF0E942C0710927C00DF918F
:101AA000CF91089516BE84E680B911B812B884E0CB
:101AB00086BF089584EA86BF06B607FEFDCF089567
:101AC00083B984E886BF06B607FEFDCF000081B16A
:101AD0009927887F9070089584EC86BF06B607FE2C
:101AE000FDCF83B19927089584E986BF0895FC014D
:101AF000662319F011926150FBCF08950F931F9345
:101B0000CF93DF93EC01062F892F9927182F110F00
:101B10000E945A0D812F8E550E94600D883139F434
:101B20008C2F0E94600D802F0E94600D03C081E009
:101B3000809394020E94740DDF91CF911F910F91B9
:101B40000895EF92FF920F931F93CF93DF93EC01D1
:101B50007B01042F892F9927182F110F0E945A0DEE
:101B6000812F8E550E94600D883169F48C2F0E9460
:101B7000600D002359F0F70181917F010E94600DF3
:101B800000000150F6CF81E0809394020E94740D12
:101B9000DF91CF911F910F91FF90EF900895EF92F9
:101BA000FF920F931F93CF93DF93EC017B01042FE0
:101BB000892F9927182F110F0E945A0D812F8E55AA
:101BC0000E94600D883121F48C2F0E94600D03C0AB
:101BD00081E0809394020E945A0D812F8D550E94BE
:101BE000600D883121F48C2F0E94600D03C081E0CC
:101BF00080939402002339F00E946C0DF7018193C9
:101C00007F010150C9F7DF91CF911F910F91FF9094
:101C1000EF90089568E089E992E00E94770D68E00E
:101C20008CE892E00E94770D60E280E090E00E94F4
:101C30007E0D60E080E090E00E947E0D089547E018
:101C400060E670E082E090E00E94CF0D809160003D
:101C5000982F9F779093600020916100422F4F77DB
:101C60004093610050916200752F7F737093620002
:101C7000E0916300AE2FAF73A0936300F091640016
:101C8000F770F093640030916500632F6F7160937B
:101C900065008F708093740092959F70909373008D
:101CA0002F702093720042954F70409371005F70C7
:101CB0005093700072957F7070936F00EF70E09397
:101CC0006E00A295AF70A0936D003F7030936C00D2
:101CD00062956F7060936B0080916600982F9F7083
:101CE00090936A0082958F7080936900FF5FF093F4
:101CF00075000895CF93DF93CDB7DEB727970FB662
:101D0000F894DEBF0FBECDBF80917300992754E0D9
:101D1000880F991F5A95E1F720917400282B298389
:101D200080917100992744E0880F991F4A95E1F747
:101D300020917200282B2A8380916F00992734E02C
:101D4000880F991F3A95E1F720917000282B2B837B
:101D500080916D00992724E0880F991F2A95E1F75B
:101D600020916E00282B2C838091750081508D83EB
:101D700080916B009927B4E0880F991FBA95E1F71D
:101D800020916C00282B2E83809169009927A4E074
:101D9000880F991FAA95E1F720916A00282B2F83BD
:101DA00047E0BE016F5F7F4F82E090E00E94A10D8F
:101DB00027960FB6F894DEBF0FBECDBFDF91CF914F
:101DC0000895CF9380916D00882309F062C0C0917F
:101DD0006E00C13009F05DC090916F00992309F049
:101DE00058C080917000833009F053C08091710019
:101DF000833009F04AC080917200882309F049C0FD
:101E000080917D008823F9F0209180002223D9F46D
:101E10003AE0225E80917E00839FC0011124280F4A
:101E200080917F00280F822F632F0E949E12809343
:101E30007100822F0E949E12909372000E947A0E6F
:101E4000C093800026C0882321F5809180008823DC
:101E500001F53AE02EE180917E00839FC0011124BC
:101E6000281B80917F00281B822F632F0E949E12C7
:101E700080937100822F0E949E12909372000E94A4
:101E80007A0E81E08093800004C0853011F4909335
:101E90008000CF910895AE9AA698AF9AA798909A8D
:101EA0008898919A89980895CF92DF92EF92FF9245
:101EB0000F931F93CF93DF93D82EC62EEA0179019B
:101EC0009E9920C080E29EE40197F1F79E9918C088
:101ED00088813AE0839FC0011124F7012081280FF7
:101EE0002F5FD21608F4262F822F632F0E949E1296
:101EF0008883822F0E949E12F7019083F801099532
:101F00009E9BFECF9F992EC080E29EE40197F1F741
:101F10009F9926C088813AE0839FC0011124F70170
:101F20002081280F215080E090E0D21610F481E04B
:101F300090E040E050E02C1510F441E050E0842B9C
:101F4000952B892B09F02D2D822F632F0E949E1235
:101F50008883822F0E949E12F7019083F8010995D1
:101F60009F9BFECFDF91CF911F910F91FF90EF903C
:101F7000DF90CF9008950F931F93CF93DF93CDB74A
:101F8000DEB723970FB6F894DEBF0FBECDBF8091AA
:101F90007C008823A9F08B3199F08A3189F08091F7
:101FA000890290918A028950924550F010927C00EB
:101FB0000E947A0E0E9471060E942C070E94790AE4
:101FC00080917C008A51823068F4809197029091D0
:101FD0009802855F914030F010927C000E9471065B
:101FE0000E94790A819913C080E29EE40197F1F77B
:101FF00081990BC0809181008F5F80938100853033
:1020000010F0109281000E947106819BFECF80919A
:102010007C00882329F08B3119F08A3109F047C000
:102020009E9927C080E29EE40197F1F79E991FC018
:1020300080917900882391F080917A008F5F80935E
:102040007A00893018F081E080937A0090917A00CC
:1020500089E1989FC001112488518CBF8BE1809346
:102060007C0010929802109297020E94ED099E9BAC
:10207000FECF9F99B8C080E29EE40197F1F79F9947
:1020800013C080917B008F5F80937B00893018F0B4
:1020900081E080937B008AE180937C00109298021B
:1020A000109297020E94A2099F9BFECF9CC0813094
:1020B00049F40DE519E02AE630E049E650E060E039
:1020C00083E652C0823049F405E619E02CE630E0A0
:1020D0004BE650E061E08CE047C0833049F40DE608
:1020E00019E02EE630E04DE650E061E08FE13CC0C3
:1020F000843049F405E719E020E730E04FE650E08E
:1021000060E087E131C0853049F40DE719E022E74E
:1021100030E041E750E060E08BE326C0863059F4C0
:10212000198205E819E025E730E0AE014F5F5F4F07
:1021300061E087E019C0873059F41A8204EC19E095
:1021400029E730E0AE014E5F5F4F6A8181E00CC04D
:10215000883069F41B8206E11AE022E830E0AE0123
:102160004D5F5F4F6B8182E00E94540F3CC089300D
:10217000D1F59E9922C080E29EE40197F1F79E99E5
:102180001AC080917E003AE0839FC0011124209103
:102190007F00280F2F5F253108F020E0822F632F6A
:1021A0000E949E1280937E00822F0E949E12909326
:1021B0007F000E94370A9E9BFECF9F9914C080E249
:1021C0009EE40197F1F79F990CC080917D008823D0
:1021D00019F010927D0003C081E080937D000E9481
:1021E000370A9F9BFECF809967C080E29EE40197EB
:1021F000F1F780B399279C012170307080FD5AC09F
:1022000030938A022093890280917C008F5F8093B3
:102210007C008A3010F010927C0080917C0099271D
:1022200084309105B1F1853091057CF481309105C0
:1022300039F1823091051CF4892BC9F03BC0823002
:10224000910509F1039711F135C08730910551F1DE
:102250008830910534F485309105F1F00697F9F056
:1022600029C08830910509F1099711F123C00E9416
:102270007A0E0E9471060E942C070E94790A1AC0E9
:102280000E945D0917C00E94650914C00E946D0973
:1022900011C00E9475090EC00E947D090BC00E94EA
:1022A000850908C00E94C40905C00E94160A02C020
:1022B0000E94370A809BFECF23960FB6F894DEBFAC
:1022C0000FBECDBFDF91CF911F910F91089516B82A
:1022D00080E487B987ED86B9089584B1282F332724
:1022E00085B19927982F8827822B932B96958795D0
:1022F00083976CE370E00E94AA12CB0198E0292F2B
:10230000281B20937A00921718F490937A0005C046
:10231000222319F481E080937A0090917A0089E178
:10232000989FC001112488518CBF089513BE12BE1E
:1023300089E783BF80917900893040F490917A00D9
:1023400089E1989FC0011124885101C084E68CBFA7
:10235000089585E085BD89B7806489BF08951F927F
:102360000F920FB60F9211242F933F934F935F93C9
:102370006F937F938F939F93AF93BF93EF93FF934D
:1023800080917C008823D1F5809183029091840212
:10239000019690938402809383028253984C11F4A7
:1023A0000E94D705809183029091840281569A4EB3
:1023B00030F00E94E0051092840210928302809116
:1023C00079008823D9F4809181029091820201964C
:1023D00090938202809381028436910511F40E94C9
:1023E00067118091810290918202893C910530F0C1
:1023F0000E946D11109282021092810280918902D6
:1024000090918A02019690938A028093890280912A
:102410009702909198020196909398028093970268
:1024200014BCFF91EF91BF91AF919F918F917F91DC
:102430006F915F914F913F912F910F900FBE0F9031
:102440001F901895F89415BE1BBE0E940E070E949F
:102450004B0F0E9496110E94A9110E940A0E109221
:1024600084021092830210928202109281021092D2
:102470008A02109289020E9475050E942C077894A6
:102480000895CFE5D4E0DEBFCDBF0E9422120E94A6
:10249000D70586E090E00E9467050E94E0058099DC
:1024A0001CC080E29EE40197F1F7809916C081E09C
:1024B0008093790080937A0080937B0010927C0057
:1024C00010927D0010927E0010927F001092810089
:1024D000109282008CBF0E9471060E94BE060E946C
:1024E000040D0E941F0E0E94790A80917C008823AF
:1024F000B1F40E941F0E8091950290919602019670
:1025000090939602809395028151974240F00E94E9
:10251000E10E0E94790A10929602109295020E9492
:10252000FC0A0E94BB0FE1CFDC0140FF03C001C0E9
:102530006D936D9342505040D8F70895991B79E000
:1025400004C0991F961708F0961B881F7A95C9F743
:1025500080950895AA1BBB1B51E107C0AA1FBB1F92
:10256000A617B70710F0A61BB70B881F991F5A951F
:10257000A9F780959095BC01CD010895E199FECF12
:10258000BFBBAEBBE09A11960DB20895E199FECFA4
:10259000BFBBAEBB0DBA11960FB6F894E29AE19AA2
:0425A0000FBE0895CD
:1025A4004059232905020802000102000101070223
:1025B40002010900000202030400070100000000F8
:0425C4000000000013
:00000001FF
