:100000000C94EF070C940C080C940C080C940C083E
:100010000C94BA170C940C080C940C080C940C0853
:100020000C940C080C940C080C940C080C940C0800
:100030000C940C080C940C080C940C080C940C08F0
:100040000C940C080C940C080C940C080C940C08E0
:100050000C940C0807800FC03FE038707070703847
:1000600070386038E038E038E038E038E038603840
:100070007038703070703CE01FE00F8006000300A5
:100080001F00FF00FF00C700070007000700070070
:100090000700070007000700070007000700070028
:1000A000070007007FF87FF80FC03FF03FF83038B7
:1000B000003800180018003800380038007000E0E0
:1000C00001C0038007000E001C00380070007FF89C
:1000D0007FF81F803FE03FF0207800380038007044
:1000E00000E01FC01FC01FF0003800380038003883
:1000F0000038003860F07FF07FC00E0001E001E0C2
:1001000003E003E006E00EE01CE018E030E070E001
:1001100060E0E0E0C0E0FFF8FFF8FFF800E000E09A
:1001200000E000E000E03FF83FF83FF8380038001A
:10013000380038003F803FE03FF00078003800385A
:10014000001800180018003870F07FF03FC00E0053
:1001500003C00FE01FF03C0070007000E000E7C03B
:10016000FFE0FFF0F078E038E038E038E038E038E1
:10017000707878703FE01FC00700FFF8FFF8FFF0CD
:1001800000700070006000E000C001C001C003808A
:1001900003800300070007000E000E001C001C0077
:1001A0001C0038000F803FE07FF07070E070E0705E
:1001B000707079E01FC01F803FE070F0E070E038A1
:1001C000C038E038E038F0F07FF03FC006001F8014
:1001D0003FC07FE0E070E070C030C038E038E078C9
:1001E000F0F87FF83FB8003000300070007000E099
:1001F00043E07FC07F001C00FFF8FFF8FFF8E03805
:10020000E038E038E038E038E038E038E038E0382E
:10021000E038E038E038E038E038E038FFF8FFF860
:10022000FFF80700070007000700070007000700A6
:100230000700070007000700070007000700070086
:10024000070007000700070007000700FFF8FFF896
:10025000FFF8003800380038003800380038FFF860
:10026000FFF8FFF8E000E000E000E000E000E00060
:10027000FFF8FFF8FFF8FFF8FFF8FFF80038003844
:100280000038003800380038FFF8FFF8FFF8003871
:1002900000380038003800380038FFF8FFF8FFF861
:1002A000E038E038E038E038E038E038E038E0388E
:1002B000E038FFF8FFF8FFF8003800380038003861
:1002C00000380038003800380038FFF8FFF8FFF831
:1002D000E000E000E000E000E000E000FFF8FFF8F0
:1002E000FFF8003800380038003800380038FFF8D0
:1002F000FFF8FFF8FFF8FFF8FFF8E000E000E0008B
:10030000E000E000E000FFF8FFF8FFF8E038E03838
:10031000E038E038E038E038FFF8FFF8FFF8FFF8A1
:10032000FFF8FFF80038003800380038003800388F
:1003300000380038003800380038003800380038FD
:100340000038003800380038FFF8FFF8FFF8E038D0
:10035000E038E038E038E038E038FFF8FFF8FFF840
:10036000E038E038E038E038E038E038FFF8FFF80F
:10037000FFF8FFF8FFF8FFF8E038E038E038E03841
:10038000E038E038FFF8FFF8FFF8003800380038B0
:10039000003800380038FFF8FFF8FFF83FE07FF042
:1003A000FFF8E038E038E038E038E038E038E038AE
:1003B000E038E038E038E038E038E038E038E0387D
:1003C000FFF87FF03FE007000F001F001F001F0035
:1003D00007000700070007000700070007000700E5
:1003E00007000700070007000700FFF8FFF8FFF805
:1003F0003FE07FF0FFF8E038003800380038003880
:1004000000383FF87FF0FFE0E000E000E000E000AF
:10041000E000E000FFF8FFF8FFF83FE07FF0FFF8B2
:10042000E038003800380038003800381FF01FE08E
:100430001FF000380038003800380038E038FFF886
:100440007FF03FE0E1C0E1C0E1C0E1C0E1C0E1C058
:10045000E1C0E1C0E1C0FFF8FFF8FFF801C001C052
:1004600001C001C001C001C001C001C001C0FFF84E
:10047000FFF8FFF8E000E000E000E000E000E0004E
:10048000FFE0FFF0FFF8003800380038003800388F
:10049000E038FFF87FF03FE0E000E000E000E0003F
:1004A000E000E000E000E000E000FFE0FFF0FFF827
:1004B000E038E038E038E038E038E038FFF87FF046
:1004C0003FE0FFF8FFF8FFF8003800380038003848
:1004D000003800380038003800380038003800385C
:1004E0000038003800380038003800383FE07FF02E
:1004F000FFF8E038E038E038E038E03870703FE08E
:100500001FC03FE07070E038E038E038E038E03895
:10051000FFF87FF03FE03FE07FF0FFF8E038E038A1
:10052000E038E038E038E038FFF87FF83FF800388E
:1005300000380038003800380038003800380038FB
:100540007C82828282828282827C103050101010E3
:10055000101010FE384482820408102040FE7C8275
:1005600002023C020282827C060C14244484FE04B3
:100570000404FE8080FC02020282827C7C828080F5
:10058000FC828282827C7E8202040810202020204D
:100590007C8282827C828282827C7C828282827E57
:1005A0000202827C407E887E4848FE0808087E421F
:1005B000427E42427E4246827E92BA92BA82BAAA73
:1005C000BA86087E547E5C405C5448960000000069
:1005D000FE00000000000000007E000000FF0000A0
:1005E000007E0000003C000000FFFFA9A9A9A9A906
:1005F000C781FF817E1010107C14141414FF301872
:1006000008FF0024246666C27F4141417F41414189
:10061000417F0000000000000000181800000000EA
:1006200000000000000002E2BFA2EAAAA2AAE602BD
:1006300038242442BD242424448C10FF3C243CFF55
:10064000813C2447203E40BE2AFF327E02044040C7
:1006500040F75555555750B05C14D476405C54540F
:1006600068567E5A7EFF7E427E7E42FF000000007A
:1006700000606000606010107E427E427E427E42DA
:10068000047E087E08FF080828180202BF623A228A
:100690007ABB224548487ED46254D448546210FE46
:1006A00092FE9292FE10121EFE040810FE10101010
:1006B0005030FE40507E5252525252A40000000070
:1006C0007E7E000000007E4141417E414141417EED
:1006D000414122140814222241414141412214087F
:1006E00008080808FE828282FE82828282FE845F7F
:1006F000C45F555F444E55BF08FF817E04FF080864
:1007000038082444FF4E55555F6544447C828282FC
:1007100082828282827C103050101010101010FEE5
:10072000384482820408102040FE7C8202023C028F
:100730000282827C060C14244484FE040404FE809D
:1007400080FC02020282827C7C828080FC82828227
:10075000827C7E8202040810202020207C828282FB
:100760007C828282827C7C828282827E0202827C85
:10077000407E887E4848FE0808087E42427E42420B
:100780007E4246827E92BA92BA82BAAABA86087E1F
:10079000547E5C405C54489600000000FE0000005F
:1007A00000000000007E000000FF0000007E00004E
:1007B000003C000000FFFFA9A9A9A9A9C781FF81EA
:1007C0007E1010107C14141414FF301808FF00243D
:1007D000246666C27F4141417F414141417F000023
:1007E00000000000000018180000000000000000D9
:1007F0000000FE8282828282828282FE10101010AD
:10080000101010101010FE02020202FE808080FE06
:10081000FE02020202FE020202FE8282828282FE48
:1008200002020202FE80808080FE020202FEFE8042
:10083000808080FE828282FEFE02020202020202AA
:100840000202FE82828282FE828282FEFE82828298
:1008500082FE020202FE80FE887E4848FE080808EA
:100860007E42427E42427E424246FE92BA92BA8224
:10087000BAAABA86DFD0101010101010101F000096
:100880000000FE0000000000007C000000000000EE
:1008900000FEFE0000007C00000000FEFEAAAAAAE6
:1008A000AAEE828282FEFE202020FC24242424FE44
:1008B000201010FE4444444444447E4242427E425E
:1008C0004242427E000000000000000018180000B4
:1008D00000000000000000007C828282828282820E
:1008E000827C103050101010101010FE7C8202021A
:1008F000027C808080FE7C820202027C0202827C7A
:100900008888888888FE08080808FE80808080FC27
:100910000202827C8080808080FC8282827CFE0257
:1009200002020202020202027C828282827C8282B3
:10093000827C7C828282827E02020202407E887EEB
:100940004848FE0808087E42427E42427E42468275
:100950007E92BA92BA82BAAABA86BC42404040405D
:100960004040423C00000000FE000000000000008B
:10097000007E000000FF0000007E0000003C000040
:1009800000FFFFA9A9A9A9A9C781FF817E101010A6
:100990007C14141414FF2010FE0044444444448288
:1009A0007E4242427E424242427E000000000000FF
:1009B00000001818000000000000000000000840BF
:1009C00049402A400884FFFE19082C884A8810886C
:1009D000FE902250222014501888250E4204020056
:1009E00001003FFC200440081FE00040008001049B
:1009F000FFFE0100010001000100050002000008E7
:100A000004087E08440847FE440844087C8844489B
:100A10004448440844087C0844480028001010203A
:100A2000102010201C2421FE21247D249124112437
:100A3000FDFC112410201420182010200020000498
:100A40007FFE44084808482851F849284928452885
:100A50004528452869E851284008402840100200F0
:100A600002000208FFFC0400090011083FFC5108C5
:100A7000910811081108112811100100010002004D
:100A8000020002107FF8421042107FF04210421024
:100A90007FF0421002000204020401FC000000008A
:100AA0003FF000100020004001800104FFFE010023
:100AB000010001000100010001000500020001F039
:100AC0002110111011100110020EF40013F811087A
:100AD0001110109010A0144018B0130E0C043FF821
:100AE00024483FF801007FFC01001FF010101FF0A8
:100AF00010101FF010101FF01014FFFE0000004037
:100B0000404437FE104007FC0444F44417FC1444EE
:100B100010E0115812481440284647FC000001001C
:100B200000843FFE222022283FFC222023E02000D8
:100B30002FF022202140208043608C1E30040108C9
:100B40007FFC00101FF8101010101FF000007FFE37
:100B500040228FF40820082008221022601E00087E
:100B600004087E08440847FE440844087C8844483A
:100B70004448440844087C084448002800102004E5
:100B80001BFE080440244FF44824482448244FE422
:100B90004824482448244FE44824401440080800CE
:100BA00008081FFC1100210041101FF8110011005E
:100BB0001104FFFE0100010001000100010000100E
:100BC0000FF80810081008100FF00810081008108F
:100BD0000FF00810081010101010205040200010C6
:100BE0001FF8101010101010101010101FF010101F
:100BF00010101010101010101FF0101000000080C6
:100C00000480044008400820101020084FEE84247F
:100C10000420042004200420082011402080042007
:100C20000E207820082008A8FEA608A21D201A245D
:100C30002824282848108820084008800B00082015
:100C40000920092011101210320E54049BF01110CB
:100C50001110111011101210121014A010400008E1
:100C60003FFC20083FF820083FF8010021083FFC26
:100C700021004110BFF801000104FFFE0000220422
:100C8000227E22447F4422443E7C22443E4422442D
:100C9000227CFFC4004424442284411482080008BA
:100CA0003FFC210821482FE8210821283FF820484F
:100CB00027E824482448244847C884280010010015
:100CC000020004101FF8101010101FF01010101068
:100CD00010101FF01010101010101FF01010001046
:100CE00000F87F00010001103FF80100010001043D
:100CF000FFFE0100010001000100050002000040AC
:100D000008407C40004405FEFE441044104420444A
:100D100024444284FE844104010402280410020099
:100D200001003FFC200440081FE000400080010457
:100D3000FFFE01000100010001000500020010801B
:100D40001080108020882FFC62A0A2A02490249004
:100D500028882BEE30842080208020802080104046
:100D60001020100413FEFC00108831063A8A5488C3
:100D700050509050102010501088130E1C0410007A
:100D800010001004127EFF44124412441244124414
:100D900022442244224422444A7C8444000000101D
:100DA0004018301417FE041004100DD0141425D46C
:100DB000E5542554255825D0252A084610821000D0
:100DC00010081FFC20105FF8121011101014FFFE05
:100DD0001210211020103FF8002000A00040100445
:100DE00009FE7F20224414FE7F8444944894529448
:100DF00044A448A452A444A4484890862102040074
:100E0000040007F0082008481FFC28884888088844
:100E10000FF8080808000802080207FE000010107A
:100E2000082004483FFC210821083FF82108210838
:100E30003FF821000104FFFE010001000100100045
:100E4000100823FC20204420F820102020204020DF
:100E5000FC20402000201C20E02447FE0000100859
:100E600013FC200821F84408FFFE10402244414CA6
:100E7000F95000E001501A48E44E4144008004401B
:100E800004503FF804400444FFFE01101FF8111005
:100E90001FF011101FF01000046018186004020009
:100EA00001043FFE200020702F80288028882FFC1E
:100EB0002880288028404A404DA48894000C0008CF
:100EC0004FFC2100211007F80210E2143FFE200021
:100ED000200827FC24082C08340827F804080200FE
:100EE00001103FF8082004200444FFFE00101FF802
:100EF000101010101FF0101010101FF0101010081C
:100F000011FC11081108FD281110150019F83108FD
:100F1000D190115011201150118E51042100000860
:100F20007FFC0100010001000100111011F8110007
:100F300011001100110011001104FFFE000001005A
:100F4000111009207FFE40028FE408200FE00110FD
:100F50001FF8111011101110115001200100100084
:100F6000100010041FFE24444444844408440884B0
:100F7000088410841104210442040428081010403D
:100F8000105010481040FC4413FE1440186030A06C
:100F9000D0A010A010A011221122521E2400101067
:100FA0000818042004487FFC010001000104FFFE32
:100FB00001000280028004400830300EC00420048A
:100FC0001BFE0804408440A45FF4408441844284B2
:100FD000448448845084408442844114400811244D
:100FE0001FBECFE5D4E0DEBFCDBF10E0A0E6B0E08D
:100FF000E8EEF0E302C005900D92A438B107D9F7EE
:1010000012E0A4E8B0E001C01D92A93AB107E1F7EF
:101010000E9423170C9473180C94000006C020E063
:1010200000002F5F2930E1F701970097C1F708957D
:10103000CF93DF93EC0105C080E197E20E940E0898
:1010400021972097C9F7DF91CF9108958FB78093AB
:101050009100F8948F9A97988CE390E00E940E0884
:10106000979A8F9885E090E00E940E0880B382E303
:1010700090E00E940E088091910087FF01C0789453
:1010800008950F931F938FB780939100F89408E011
:1010900010E016958F9A979881E090E00E940E08D4
:1010A000979A8F9881E090E00E940E0887991068C7
:1010B00083E090E00E940E08015059F78091910062
:1010C00087FF01C07894812F90E01F910F910895C0
:1010D0000F931F93182F8FB780939100F89408E017
:1010E0008F9A979881E090E00E940E0810FD979AE1
:1010F00084E090E00E940E08979A015011F0169536
:10110000EFCF8091910087FF01C078941F910F91DC
:1011100008950E9426088CEC0E94680884E40E94CE
:1011200068080895EF92FF920F931F93CF93DF9378
:10113000CDB7DEB722970FB6F894DEBF0FBECDBF96
:101140000E9426088CEC0E9468088EEB0E946808BA
:101150008E010F5F1F4FE3E0EE2EF12CEC0EFD1E13
:101160000E944108F80181938F01EE15FF05C1F738
:101170008A8190E0F82FEE27898190E0E82BF92B07
:10118000CF018070907F8050904F11F040E004C0FC
:10119000F095E195FF4F41E0CF01880F991F9F0126
:1011A00053E0220F331F5A95E1F7820F931F24E07B
:1011B000969587952A95E1F768EE73E00E944B18A3
:1011C0009C01413021F48EE080936F0006C064E6FC
:1011D00070E00E944B1860936F00C90164E670E0F4
:1011E0000E944B186AE070E00E944B1860937000F8
:1011F000EF70F07081E792E09C01E29FC001E39FF5
:10120000900DF29F900D112468EE73E00E944B1830
:101210006093710022960FB6F894DEBF0FBECDBF6B
:10122000DF91CF911F910F91FF90EF900895F89467
:101230008CB390E0DC01A270B07081FD4AC08CECF0
:10124000082E0E94671880917200A1E0B0E0082E7D
:101250000E94671880917300A2E0B0E0082E0E94FF
:10126000671880917400A3E0B0E0082E0E94671810
:1012700080917500A4E0B0E0082E0E94671880916C
:101280007600A5E0B0E0082E0E94671880917700F4
:10129000A6E0B0E0082E0E94671880917800A7E0D1
:1012A000B0E0082E0E94671880917A00A8E0B0E0B4
:1012B000082E0E94671880917B00A9E0B0E0082EFC
:1012C0000E94671880917C00A0E1B0E0082E0E9487
:1012D000671878940895F8948CB390E0DC01A270BC
:1012E000B07081FD4DC00E945F18802D8C3C09F0CC
:1012F0003FC0A1E0B0E00E945F18802D8093720093
:10130000A2E0B0E00E945F18802D80937300A3E0FC
:10131000B0E00E945F18802D80937400A5E0B0E0DB
:101320000E945F18802D80937600A6E0B0E00E94B6
:101330005F18802D80937700A7E0B0E00E945F18CF
:10134000802D80937800A8E0B0E00E945F18802D87
:1013500080937A00A9E0B0E00E945F18802D80930E
:101360007B00A0E1B0E00E945F18802D80937C009C
:101370008091730029E1829FC001112489518CBFA3
:1013800078940895BB9AB89AB99ABA9ABC9A8C9AEA
:101390008D9AD19AD29AD39AD49A8A9A8B9A109289
:1013A0008A0210928702109286021092890210928D
:1013B0008E021092900010928F0010929C02109258
:1013C0009B0208951F939091B6002091BE0030912A
:1013D000C6004091B5005091BD006091C50070916C
:1013E000FE00E0910601F0910E01A091FD00B09188
:1013F000050110910D01882319F1906C9093B600AE
:10140000206C2093BE00306C3093C6004160409346
:10141000B50051605093BD0061606093C500706C71
:101420007093FE00E06CE0930601F06CF0930E0107
:10143000A160A093FD00B160B0930501116022C0CE
:101440009F739093B6002F732093BE003F73309329
:10145000C6004E7F4093B5005E7F5093BD006E7F07
:101460006093C5007F737093FE00EF73E0930601F5
:10147000FF73F0930E01AE7FA093FD00BE7FB0938B
:1014800005011E7F10930D011F910895CF93DF93E7
:10149000E42FF0E025E0EE0FFF1F2A95E1F7E2547C
:1014A000F64FA62FB0E093E0AA0FBB1F9A95E1F785
:1014B000A80FB11DAE56BF4F90E084918C9331962A
:1014C0008491ED0189839F5F319618969031A9F739
:1014D000DF91CF9108959AE0499F90011124205CFB
:1014E0003A4FA62FB0E043E0AA0FBB1F4A95E1F7A1
:1014F000A80FB11DAE56BF4F90E0F90184918C93B7
:101500009F5F2F5F3F4F18969A30B9F70895CF939A
:10151000DF93982F80917B008823E9F48AE0489F2D
:1015200090011124245F384FA62FB0E073E0AA0F7A
:10153000BB1F7A95E1F7A90FB11DAE56BF4F90E0E2
:10154000F90184918C939F5F2F5F3F4F58969A309B
:1015500009F43BC0F5CF70E0A92FB0E08130D9F499
:101560008AE0489F900111242E50384FEB0163E030
:10157000CC0FDD1F6A95E1F7CA0FDB1FCE56DF4F98
:1015800090E0F901849188839F5F2F5F3F4F6896B9
:101590009A30D9F0F6CF8AE0489F90011124285262
:1015A000374FEB0153E0CC0FDD1F5A95E1F7CA0F1F
:1015B000DB1FCE56DF4F90E0F901849188839F5F57
:1015C0002F5F3F4F68969A30B9F7DF91CF9108951A
:1015D0001F93CF93DF93982F80917B008823A9F5E9
:1015E00085E1489FF0011124EE0FFF1FEC5AFF4FD9
:1015F000A92FB0E0AE56BF4F10E070E048E050E0D9
:10160000461B570B249130E0C901062E02C0959568
:1016100087950A94E2F78C933196849190E0062E98
:1016200002C0959587950A94E2F7042E02C0220F16
:10163000331F0A94E2F7822BED0189831F5F3196F5
:101640001896153109F46AC0DDCF292F30E08130BA
:1016500099F585E1489FF0011124EE0FFF1FE85036
:10166000FE4FD901AE56BF4F10E070E048E050E0A9
:10167000461B570B249130E0C901062E02C09595F8
:1016800087950A94E2F78C933196849190E0062E28
:1016900002C0959587950A94E2F7042E02C0220FA6
:1016A000331F0A94E2F7822BED0189831F5F319685
:1016B0001896153199F1DECF85E1489FF00111248C
:1016C000EE0FFF1FE456FC4FD901AE56BF4F10E09E
:1016D00070E048E050E0461B570B249130E0C90110
:1016E000062E02C0959587950A94E2F78C93319661
:1016F000849190E0062E02C0959587950A94E2F7B2
:10170000042E02C0220F331F0A94E2F7822BED0150
:1017100089831F5F319618961531F9F6DF91CF91C5
:101720001F910895CF93DF9320918F003091900007
:101730002F5F3F4F3093900020938F0040917400B3
:1017400089E090E0841B9109AC0173E0440F551FC0
:101750007A95E1F7880F991F840F951F82179307D9
:1017600068F41092900010928F0080918E028F5F2B
:1017700080938E02813C10F010928E02929880919C
:1017800075008823E9F48091860290918702019682
:1017900090938702809386028D5A934088F010922E
:1017A00087021092860280918902882321F010928C
:1017B000890280E003C081E0809389020E94E209EF
:1017C00080918A02863008F441C080917500882398
:1017D000E9F590918E0230918A0280918A02482F19
:1017E00050E023E0440F551F2A95E1F7292F269555
:1017F0002695269588E1389FF0011124E20FF11D0E
:10180000EE54FF4FA7E8B0E09770C92FD0E068E032
:1018100070E06C1B7D0B218130E0062E02C03595F7
:1018200027950A94E2F7819190E00C2E02C0880F70
:10183000991F0A94E2F7282B2D9380E0AF38B80760
:1018400051F7FA01EE56FF4F189716C080918A02A1
:10185000E82FF0E093E0EE0FFF1F9A95E1F7EE56C8
:10186000FF4F80918A02A82FB0E083E0AA0FBB1F30
:101870008A95E1F7AE5EBE4F80917A00882309F425
:10188000A5C129C094989598D998DA98DB98DC98E6
:10189000808190E0022E02C0959587950A94E2F728
:1018A00080FD949A8C9190E0022E02C095958795C8
:1018B0000A94E2F780FD959A9398939A21503040CC
:1018C0008FEF2F3F3807F1F64F5F483009F41BC107
:1018D000319611967CC1813051F57CC194989598D0
:1018E000D998DA98DB98DC98808190E0022E02C0CB
:1018F000959587950A94E2F780FDD99A8C9190E0AE
:10190000022E02C0959587950A94E2F780FDDA9A37
:101910009398939A215030408FEF2F3F3807F1F67C
:101920004F5F483009F4EFC03196119654C18230B0
:1019300071F554C194989598D998DA98DB98DC9809
:10194000808190E0022E02C0959587950A94E2F777
:1019500080FF02C0949AD99A8C9190E0022E02C026
:10196000959587950A94E2F780FF02C0959ADA9AD6
:101970009398939A215030408FEF2F3F3807D1F63C
:101980004F5F483009F4BFC03196119628C18330AB
:1019900051F528C194989598D998DA98DB98DC98F5
:1019A000808190E0022E02C0959587950A94E2F717
:1019B00080FDDB9A8C9190E0022E02C09595879570
:1019C0000A94E2F780FDDC9A9398939A2150304074
:1019D0008FEF2F3F3807F1F64F5F483009F493C07F
:1019E0003196119600C1843071F500C19498959894
:1019F000D998DA98DB98DC98808190E0022E02C0BA
:101A0000959587950A94E2F780FF02C0D99ADB9AF0
:101A10008C9190E0022E02C0959587950A94E2F78A
:101A200080FF02C0DA9ADC9A9398939A2150304052
:101A30008FEF2F3F3807D1F64F5F483009F463C06E
:101A400031961196D4C0853069F5D4C09498959894
:101A5000D998DA98DB98DC98808190E0022E02C059
:101A6000959587950A94E2F780FF02C0949ADB9AD5
:101A70008C9190E0022E02C0959587950A94E2F72A
:101A800080FF02C0959ADC9A9398939A2150304037
:101A90008FEF2F3F3807D1F64F5F4830A1F13196D5
:101AA0001196A9C0863079F5A9C094989598D998CF
:101AB000DA98DB98DC98808190E0022E02C0959540
:101AC00087950A94E2F780FF03C0949AD99ADB9A2B
:101AD0008C9190E0022E02C0959587950A94E2F7CA
:101AE00080FF03C0959ADA9ADC9A9398939A2150D2
:101AF00030408FEF2F3F3807C1F64F5F483019F065
:101B0000319611967CC0929A80918A02873099F121
:101B1000883070F4833039F1843028F48130E1F07A
:101B20008230E0F417C0853011F1863010F51DC009
:101B30008B3059F18C3028F4893011F18A3018F546
:101B40001CC08D3049F18D3018F18E3049F18F3045
:101B500079F529C0C49812C0C49813C0C498C2981B
:101B6000C19AC09827C0C49811C0C49812C0C49824
:101B700014C0C49816C0C49817C0C49AC2980AC0AA
:101B8000C49AC2980BC0C49AEACFC49AC2980DC036
:101B9000C49AC29AC198E5CFC49AC29AC19806C0A5
:101BA000C49AC29ADDCFC49AC29AC19AC09A02C09E
:101BB00010928A0280918A028F5F80938A028091BC
:101BC0008A028031F9F410928A021CC040E027E0BA
:101BD00030E058CE40E027E030E080CE40E027E023
:101BE00030E0A8CE40E027E030E0D4CE40E027E06F
:101BF00030E0FCCE40E027E030E028CF40E027E0B6
:101C000030E053CFDF91CF91089516BE84E680B9BE
:101C100011B812B884E086BF089584EA86BF06B67C
:101C200007FEFDCF089583B984E886BF06B607FE98
:101C3000FDCF000081B190E0887F9070089584EC22
:101C400086BF06B607FEFDCF83B190E0089584E914
:101C500086BF0895FC0102C0119261506623E1F72E
:101C600008951F93CF93DF93EC01162F84EA86BF6C
:101C700006B607FEFDCF8D2F9927880F8E550E943F
:101C8000130E883139F48C2F0E94130E812F0E947D
:101C9000130E03C081E08093990284E986BFDF912F
:101CA000CF911F910895EF92FF921F93CF93DF93EF
:101CB000EC017B01142F84EA86BF06B607FEFDCF38
:101CC0008D2F9927880F8E550E94130E883171F43D
:101CD0008C2F0E94130E07C0F70181917F010E9493
:101CE000130E000011501123B9F703C081E0809357
:101CF000990284E986BFDF91CF911F91FF90EF9009
:101D00000895EF92FF920F931F93CF93DF93EC010F
:101D10007B01142F892F9927082F000F84EA86BF93
:101D200006B607FEFDCF802F8E550E94130E883118
:101D300021F48C2F0E94130E03C081E0809399023E
:101D400084EA86BF06B607FEFDCF802F8D550E9420
:101D5000130E883121F48C2F0E94130E0EC081E0E7
:101D6000809399020AC084EC86BF06B607FEFDCFB9
:101D700083B1F70181937F0111501123A1F7DF9106
:101D8000CF911F910F91FF90EF90089568E081EA45
:101D900092E00E942A0E68E08FE892E00E942A0EEC
:101DA00060E280E090E00E94310E60E080E090E030
:101DB0000E94310E089547E06DE770E082E090E008
:101DC0000E94810E80917D00982F9F7790937D00D7
:101DD00020917E00422F4F7740937E0050917F00EC
:101DE000752F7F7370937F00E0918000AE2FAF73EB
:101DF000A0938000F0918100F770F0938100309102
:101E00008200632F6F71609382008F7080936D00EA
:101E100092959F7090936C002F7020936B00429569
:101E20004F7040936A005F705093690072957F70A5
:101E300070936800EF70E0936700A295AF70A09375
:101E400066003F703093650062956F706093640028
:101E500080918300982F9F709093630082958F707C
:101E600080936200FF5FF0936E000895CF93DF933D
:101E7000CDB7DEB727970FB6F894DEBF0FBECDBF44
:101E800060916A006295607F80916B00682B509131
:101E900068005295507F80916900582B40916600F0
:101EA0004295407F80916700482B70916E00715081
:101EB000309164003295307F80916500382B2091FD
:101EC00062002295207F80916300282B80916C0016
:101ED0008295807F90916D00892B89836A835B83D3
:101EE0004C837D833E832F8347E0BE016F5F7F4F2E
:101EF00082E090E00E94530E27960FB6F894DEBF62
:101F00000FBECDBFDF91CF9108951F9380916600E2
:101F1000882309F04AC010916700113009F045C0CC
:101F200080916800882309F040C080916900833067
:101F3000E1F580916A008330A1F580916B008823E0
:101F4000A1F58091760090917900882369F099231A
:101F500061F520917800225E809177003AE0839FBE
:101F6000C0011124280F0DC09923F9F48091770046
:101F70002AE0829FC00111242EE1281B8091780065
:101F8000281B822F6AE00E943F1880936A00822FEC
:101F90000E943F1890936B000E94360F10937900B7
:101FA00004C0853011F4109279001F910895AA9A07
:101FB000A298A39AA49A08959091A0029B3009F444
:101FC00032C19C3058F5953009F4AAC0963098F487
:101FD000923009F458C0933038F4992309F449C079
:101FE000913009F0E5C148C0933009F45DC09430E8
:101FF00009F0DEC182C0983009F4CBC0993038F4C2
:10200000963009F4A0C0973009F0D2C1B3C099301E
:1020100009F4DAC09A3009F0CBC1F2C0913109F469
:1020200089C1923198F49E3009F437C19F3038F459
:102030009C3009F40FC19D3009F0BAC11AC19F301C
:1020400009F446C1903109F0B3C157C1943109F484
:102050009EC1953138F4923109F47AC1933109F077
:10206000A7C186C1943609F498C1953609F0A0C17C
:1020700097C110929A02089589E180938802909303
:102080008B0282E00EC080918B02882309F090C100
:102090009A9B8EC186E18093880281E080938B02B7
:1020A00083E08093A002089580918B02882309F039
:1020B0007FC19A9B7DC1809168002AE0829FC00108
:1020C000112420916900280F2730A8F0822F875013
:1020D000863010F48CE10AC0822F8D50863010F4C7
:1020E0008DE104C02351253030F48EE180938802C5
:1020F00081E080938B0284E0D4CF80918B0288238F
:1021000009F056C19A9B54C180916800823030F02A
:102110008F5F8093880281E080938B0285E0C1CF3E
:1021200080918B02882309F043C19A9B41C1809121
:102130006800882331F08BE08093880281E08093EF
:102140008B0286E0AECF80918B02882309F030C1EC
:102150009A9B2EC190916900992321F48091680087
:10216000882331F49F5F9093880281E080938B02F3
:1021700087E097CF80918B02882309F019C19A9B41
:1021800017C18DE08093880281E080938B0288E004
:1021900088CF80918B02882309F00AC19A9B08C1DD
:1021A00080916A00882331F480916B00882351F478
:1021B0008AE103C0823030F08F5F8093880281E033
:1021C00080938B0289E06DCF80918B02882309F088
:1021D000EFC09A9BEDC080916A00882329F480911A
:1021E0006B00882331F40AC08BE08093880281E081
:1021F00003C081E08093880280938B028AE051CFF4
:1022000080918B02882309F0D3C09A9BD1C0809122
:102210006B00882331F08F5F8093880281E0809388
:102220008B028BE03ECF80918B02882309F0C0C0E7
:102230009A9BBEC080916A00882321F480916B0034
:10224000882331F08EE08093880281E080938B02B6
:102250008CE027CF80918B02882309F0A9C09A9B3C
:10226000A7C088EE93E090939802809397028DE048
:1022700018CF8091970290919802019790939802BD
:1022800080939702892B09F093C087E1809388029D
:1022900081E080938B028EE004CF80918B028823B3
:1022A00009F086C09A9B84C090916F00892F82505C
:1022B000883020F49F5F9093880205C09B3030F0F7
:1022C0008FE18093880281E080938B028FE0E9CEDA
:1022D00080918B02882309F06BC09A9B69C0809122
:1022E0006F00882341F08E3031F08BE080938802BC
:1022F00081E080938B0280E1D4CE80918B02882391
:1023000009F056C09A9B54C080917000882329F030
:102310008F5F8093880281E009C080916F008823DD
:1023200011F08E3029F481E08093880280938B0233
:1023300081E1B7CE80918B028823D1F59A9B38C07A
:102340008DE08093880281E080938B0282E1A9CEA8
:1023500080918B02882361F59A9B2AC0809171003D
:102360008F5F8093880281E080938B0283E199CE16
:1023700080918B028823E1F49A9B1AC094E1909398
:10238000880281E080938B029093A002089580914F
:102390008B02882369F49A9B0BC01092A0020895C7
:1023A00080918B02882321F49A9B02C01092A00294
:1023B000089580918B02823011F1833030F48823AC
:1023C00061F0813009F049C00EC0843089F1843059
:1023D00010F1853009F041C037C082E080939D0242
:1023E000AC98AB980895AC98AB9A80919D028150BF
:1023F00080939D02882389F5AB9882E022C080916A
:102400008802882329F081E080939D0283E019C02F
:1024100010928B020895AC9880919D028150809318
:102420009D028823D1F481E080939D0284E009C05D
:10243000AC9A80919D02815080939D02882369F41B
:1024400085E080938B020895AC988091880281503A
:102450008093880282E080938B020895AE9AA698BA
:10246000AF9AA798909A8898919A89980895CF9250
:10247000DF92EF92FF920F931F93CF93DF93D82EAB
:10248000C62EEA0179019E9927C080E29EE4019759
:10249000F1F79E991FC084E68093A00210928D02EE
:1024A00010928C028881F90130813F5F2AE0829F7F
:1024B000C0011124380FD31608F4362F832F6AE099
:1024C0000E943F188883832F0E943F18F701908352
:1024D000F80109959E9BFECF9F9929C080E29EE45A
:1024E0000197F1F79F9921C084E68093A002109292
:1024F0008D0210928C028881F701308131502AE0E0
:10250000829FC0011124380FD31610F03C1508F437
:102510003D2D832F6AE00E943F188883832F0E94FD
:102520003F18F7019083F80109959F9BFECFDF913B
:10253000CF911F910F91FF90EF90DF90CF90089572
:1025400016B880E487B987ED86B9089524B185B1BE
:1025500090E0982F882730E0822B932B96958795D3
:1025600083976CE370E00E944B1898E0892F861BDC
:1025700080937300893018F09093730005C088230E
:1025800019F481E0809373008091730029E1829FA8
:10259000C001112489518CBF089513BE12BE89E772
:1025A00083BF80917200893040F48091730029E1EB
:1025B000829FC0011124895101C084E68CBF089517
:1025C00015BC12BC83E884BD82E883BD89B78064F2
:1025D00089BF84E085BD0895D79A089540E051E011
:1025E0006FEF70E082E990E00E943818089580E073
:1025F00091E0E2E9F0E011920197E9F70895F8948B
:1026000015BE1BBE0E94C2090E942E120E94D70F47
:102610000E94CD120E94E0120E94C60ED79A10921C
:10262000850210928402109283021092820210920C
:102630008D0210928C020E9426080E94F712789454
:102640000895CF93DF938CE18093750040E060E0C4
:1026500080E00E94460A41E060E082E00E94460A73
:1026600042E060E084E00E94460A43E060E086E0E9
:102670000E94460A44E060E180E00E94460A45E08C
:1026800060E182E00E94460A46E060E184E00E9448
:10269000460A47E060E186E00E94460AC0E0D0E0DA
:1026A0000E94920B8AE090E00E940E08219683E13E
:1026B000C838D807A9F70E94F71210927500DF9169
:1026C000CF9108950E94F7124091680060E080E089
:1026D0000E94E80A4091690060E082E00E94E80AF6
:1026E00040916A0063E084E00E94E80A40916B0038
:1026F00063E086E00E94E80A4091600067E180E0C4
:102700000E94870A4091610067E181E00E94870A88
:102710004091620067E182E00E94870A4091630075
:1027200067E183E00E94870A4AE067E184E00E9453
:10273000870A4091640067E185E00E94870A409122
:10274000650067E186E00E94870A4BE067E187E069
:102750000E94870A4091660068E180E00E94870A33
:102760004091670068E181E00E94870A44E168E1E6
:1027700082E00E94870A4CE068E184E00E94870AB8
:1027800040916E00435F68E185E00E94870A4091B6
:102790006F0068E187E00E94870A4091700069E15C
:1027A00080E00E94870A45E169E181E00E94870A92
:1027B0004091710069E182E00E94870A4DE069E181
:1027C00083E00E94870A08950E94F7124DE160E0BD
:1027D00080E00E94460A4DE060E180E00E94460AE7
:1027E0004AE166E186E00E946B0A4BE066E187E021
:1027F0000E946B0A80917600882311F04BE101C0A2
:1028000041E266E182E00E946B0A4091770060E05D
:1028100083E00E94E80A4091780060E085E00E9431
:10282000E80A48E16BE087E00E946B0A08950E9485
:10283000F71248E060E080E00E94460A49E060E06C
:1028400082E00E94460A4BE160E180E00E94460A75
:102850004CE160E182E00E94460A4EE166E184E0DC
:102860000E946B0A43E060E085E00E94E80A089558
:102870000E94F71248E060E080E00E94460A49E0CA
:1028800060E082E00E94460A4CE060E180E00E9445
:10289000460A4BE060E182E00E94460A4EE166E1B2
:1028A00084E00E946B0A80917200882311F049E154
:1028B00001C048E160E086E00E94460A4AE160E12A
:1028C00086E00E94460A08950E94F71280917200E5
:1028D000882301F148E060E080E00E94460A49E078
:1028E00060E082E00E94460A4CE060E180E00E94E5
:1028F000460A4BE060E182E00E94460A4EE166E152
:1029000084E00E946B0A4091730060E085E00E94C1
:10291000E80A08950E94381408950E94F71248E2C8
:1029200060E080E00E94460A49E260E082E00E94A6
:10293000460A4AE260E180E00E94460A4DE060E11A
:1029400082E00E94460A4EE166E184E00E946B0A42
:1029500080917C00882339F44BE260E086E00E949D
:10296000460A4CE20FC0813039F44DE260E086E067
:102970000E94460A4EE206C04FE260E086E00E94F6
:10298000460A40E360E186E00E94460A08950E94FC
:10299000F71248E060E080E00E94460A49E060E00B
:1029A00082E00E94460A4AE060E180E00E94460A16
:1029B0004BE060E182E00E94460A4EE166E184E07D
:1029C0000E946B0A4091740060E085E00E94E80A72
:1029D00008950E94F71248E060E080E00E94460AF5
:1029E00049E060E082E00E94460A45E160E180E063
:1029F0000E94460A46E160E182E00E94460A4EE1FA
:102A000066E184E00E946B0A40916E0060E085E020
:102A10000E94E80A0895DF92EF92FF920F931F93AE
:102A20008C017B01D42E0E94F71248E060E080E028
:102A30000E94460A49E060E180E00E94460AF801EF
:102A4000408160E082E00E94E80AF701408160E096
:102A500084E00E94E80A4D2D60E186E00E94460A6B
:102A60001F910F91FF90EF90DF9008958BE690E01B
:102A700042E1BC0101970E940B15089589E690E0A0
:102A80004DE0BC0101970E940B15089587E690E088
:102A900041E1BC0101970E940B15089585E690E085
:102AA00040E1BC0101970E940B15089583E690E078
:102AB0004FE0BC0101970E940B1508950F931F93DF
:102AC000CF93DF93CDB7DEB721970FB6F894DEBF73
:102AD0000FBECDBF809175008823A9F08B3199F08E
:102AE0008A3189F080918C0290918D0289509245B3
:102AF00050F0109275000E94360F0E9417090E9434
:102B0000F7120E946213809175008A51823068F436
:102B100080919E0290919F02855F914030F01092CB
:102B200075000E9417090E946213819916C080E205
:102B30009EE40197F1F781990EC081E08093A00295
:102B400080917A008F5F80937A00873010F0109226
:102B50007A000E941709819BFECF8091750088231F
:102B600029F08B3119F08A3109F04DC09E992AC0A5
:102B700080E29EE40197F1F79E9922C084E680935B
:102B8000A00280917200882391F0809173008F5F82
:102B900080937300893018F081E0809373008091F6
:102BA000730029E1829FC001112489518CBF8BE100
:102BB0008093750010929F0210929E020E946414EE
:102BC0009E9BFECF9F99D2C080E29EE40197F1F7D1
:102BD0009F9916C084E68093A002809174008F5F55
:102BE00080937400893018F081E0809374008AE14A
:102BF0008093750010929F0210929E020E94C7144B
:102C00009F99B4C0FDCF813049F406E515E123E674
:102C100030E042E650E060E083E6A6C0823049F44E
:102C20000EE415E125E630E044E650E061E08CE09A
:102C30009BC0833049F406E415E127E630E046E620
:102C400050E061E08FE190C0843049F40EE315E17B
:102C500029E630E048E650E060E087E185C0853055
:102C600049F406E315E12BE630E04AE650E060E087
:102C70008BE37AC0863059F4198209EE14E12EE60E
:102C800030E0AE014F5F5F4F61E087E06DC087309D
:102C900059F4198208E314E122E730E0AE014F5FF6
:102CA0005F4F60E081E060C0883031F4198207E155
:102CB00014E12BE730E053C0893009F049C09E99F8
:102CC00029C080E29EE40197F1F79E9921C01092FD
:102CD0008D0210928C0284E68093A00230917800DD
:102CE0003F5F809177002AE0829FC0011124380F56
:102CF000353108F030E0832F6AE00E943F1880935E
:102D00007700832F0E943F18909378000E94E4136D
:102D10009E9BFECF9F992AC080E29EE40197F1F727
:102D20009F9913C010928D0210928C0284E68093BA
:102D3000A00280917600882319F01092760003C0DB
:102D400081E0809376000E94E4139F990FC0FDCF2D
:102D50008A3061F419820DE814E12CE730E0AE010D
:102D60004F5F5F4F60E082E00E943712809960C041
:102D700080E29EE40197F1F7809958C084E6809341
:102D8000A00210928D0210928C02809175008F5FCC
:102D9000809375008B3010F0109275008091750053
:102DA000853099F1863070F4823031F1833028F427
:102DB0008823B1F08130D1F51CC0833001F184301B
:102DC000A9F520C0883051F1893028F4863001F10E
:102DD000873061F520C0893021F18A3039F524C06F
:102DE0000E94360F0E9417090E94F7120E94621378
:102DF0001DC00E9456151AC00E944E1517C00E9491
:102E0000461514C00E943E1511C00E9436150EC012
:102E10000E94E9140BC00E94381408C00E941714C5
:102E200005C00E94E41302C00E948D14809BFECF57
:102E300021960FB6F894DEBF0FBECDBFDF91CF91C4
:102E40001F910F9108950E94FF120E94890886E049
:102E500090E00E9418080E94920880991CC080E2AD
:102E60009EE40197F1F7809916C081E0809372008B
:102E70008093730080937400109275001092760016
:102E8000109277001092780010927A0010927B00D6
:102E90001CBE0E9417090E946B090E9421130E9408
:102EA000DB0E0E94621381E08093A0028091750086
:102EB000882309F05AC00E94DB0E40917C00442315
:102EC000D1F480916A008823E1F580916B0088231A
:102ED000C1F580916C008823A1F580916D008A3046
:102EE00080F580919A02882361F581E080939A02AF
:102EF0008093A00226C0413021F58091690087505F
:102F0000209168009AE0299F90011124820F81315D
:102F1000C0F480916A008823A1F480916B0088231B
:102F200081F480916C00882361F480916D008A3077
:102F300040F480919A02882321F440939A024093AE
:102F4000A00280919B0290919C02019690939C021A
:102F500080939B028151974240F00E94850F0E940E
:102F6000621310929C0210929B020E94920B0E948C
:102F70005E159CCF1F920F920FB60F9211242F93C4
:102F80003F934F935F936F937F938F939F93AF93F1
:102F9000BF93EF93FF930E94D9110E94DC0F8091A1
:102FA0007500882309F03FC08091A0028823D9F5DD
:102FB000809184029091850201969093850280937E
:102FC00084028253984C11F40E94890880918402F3
:102FD0009091850281569A4E30F00E94920810928C
:102FE000850210928402809172008823E1F480911E
:102FF00082029091830201969093830280938202D1
:1030000022E08835920731F416B880E487B987ED5D
:1030100086B909C08558934030F00E94A6121092DC
:1030200083021092820280918C0290918D0201960F
:1030300090938D0280938C0280919E0290919F02CA
:10304000019690939F0280939E0283E884BDFF9136
:10305000EF91BF91AF919F918F917F916F915F9110
:103060004F913F912F910F900FBE0F901F90189589
:10307000DC0101C06D9341505040E0F70895991B69
:1030800079E004C0991F961708F0961B881F7A955F
:10309000C9F780950895AA1BBB1B51E107C0AA1F61
:1030A000BB1FA617B70710F0A61BB70B881F991FE9
:1030B0005A95A9F780959095BC01CD010895E199A5
:1030C000FECFBFBBAEBBE09A11960DB20895E19959
:1030D000FECFBFBBAEBB0DBA11960FB6F894E29A05
:0830E000E19A0FBE0895FFCF35
:1030E80002000102000101070202010900000202B8
:1030F80003040007010000000000000000405923FD
:04310800290502088B
:00000001FF
