:100000000C946F010C948A010C948A010C948A015F
:100010000C94BA100C948A010C948A010C948A01F5
:100020000C948A010C948A010C948A010C948A0124
:100030000C948A010C948A010C948A010C948A0114
:100040000C948A010C948A010C948A010C948A0104
:100050000C948A0107800FC03FE0387070707038D0
:1000600070386038E038E038E038E038E038603840
:100070007038703070703CE01FE00F8006000300A5
:100080001F00FF00FF00C700070007000700070070
:100090000700070007000700070007000700070028
:1000A000070007007FF87FF80FC03FF03FF83038B7
:1000B000003800180018003800380038007000E0E0
:1000C00001C0038007000E001C00380070007FF89C
:1000D0007FF81F803FE03FF0207800380038007044
:1000E00000E01FC01FC01FF0003800380038003883
:1000F0000038003860F07FF07FC00E0001E001E0C2
:1001000003E003E006E00EE01CE018E030E070E001
:1001100060E0E0E0C0E0FFF8FFF8FFF800E000E09A
:1001200000E000E000E03FF83FF83FF8380038001A
:10013000380038003F803FE03FF00078003800385A
:10014000001800180018003870F07FF03FC00E0053
:1001500003C00FE01FF03C0070007000E000E7C03B
:10016000FFE0FFF0F078E038E038E038E038E038E1
:10017000707878703FE01FC00700FFF8FFF8FFF0CD
:1001800000700070006000E000C001C001C003808A
:1001900003800300070007000E000E001C001C0077
:1001A0001C0038000F803FE07FF07070E070E0705E
:1001B000707079E01FC01F803FE070F0E070E038A1
:1001C000C038E038E038F0F07FF03FC006001F8014
:1001D0003FC07FE0E070E070C030C038E038E078C9
:1001E000F0F87FF83FB8003000300070007000E099
:1001F00043E07FC07F001C007C82828282828282F8
:10020000827C103050101010101010FE3844828282
:100210000408102040FE7C8202023C020282827CA2
:10022000060C14244484FE040404FE8080FC0202B4
:100230000282827C7C828080FC828282827C7E82BE
:1002400002040810202020207C8282827C8282820C
:10025000827C7C828282827E0202827C407E887ED8
:100260004848FE0808087E42427E42427E4246825C
:100270007E92BA92BA82BAAABA86087E547E5C404E
:100280005C54489600000000FF00000000000000E1
:10029000007E000000FF000000007E00003C000027
:1002A00000FF00FFA9A9A9A9CD81FF81007E101040
:1002B0007C141414FF00001008FF00242462C20004
:1002C0007F4141417F414141417F000000000000EA
:1002D00000001818000000000000000000001124B9
:1002E0001FBECFE5D4E0DEBFCDBF10E0A0E6B0E09A
:1002F000E2E5FFE202C005900D92A638B107D9F7FA
:1003000012E0A6E8B0E001C01D92AD39B107E1F7F7
:100310000C945B110C940000CF93DF93CDB7DEB744
:1003200024970FB6F894DEBF0FBECDBF9A838983A2
:1003300089819A818230910598F01C821B828B8181
:100340009C818531910530F48B819C8101969C8341
:100350008B83F5CF89819A8101979A838983E8CF2E
:1003600024960FB6F894DEBF0FBECDBFDF91CF91BC
:100370000895CF93DF93CDB7DEB721970FB6F894EA
:10038000DEBF0FBECDBF80915F0080939200F894D6
:10039000809131008068809331009FE78091320026
:1003A00089238093320089E190E00E948C01809142
:1003B00032008068809332009FE78091310089236A
:1003C0008093310084E090E00E948C0190E880915D
:1003D00030008923898389E190E00E948C0180911B
:1003E000920088230CF4789421960FB6F894DEBF1F
:1003F0000FBECDBFDF91CF910895CF93DF93CDB7DF
:10040000DEB722970FB6F894DEBF0FBECDBF1A82BB
:1004100080915F0080939200F89488E089838981BD
:10042000882381F18A8186958A8380913100806852
:10043000809331009FE780913200892380933200BE
:1004400081E090E00E948C0180913200806880936E
:1004500032009FE78091310089238093310081E051
:1004600090E00E948C018091300088231CF48A81E6
:1004700080688A8383E090E00E948C0189818150AA
:100480008983CDCF8091920088230CF478948A815F
:10049000992722960FB6F894DEBF0FBECDBFDF912D
:1004A000CF910895CF93DF93CDB7DEB722970FB6E4
:1004B000F894DEBF0FBECDBF898380915F0080932B
:1004C0009200F89488E08A838A81882351F1809190
:1004D00031008068809331009FE78091320089234A
:1004E0008093320081E090E00E948C0189819927FD
:1004F00081709070009729F080913200806880931D
:10050000320084E090E00E948C018091320080688B
:10051000809332008981869589838A8181508A837C
:10052000D3CF8091920088230CF4789422960FB652
:10053000F894DEBF0FBECDBFDF91CF910895CF936A
:10054000DF93CDB7DEB70E94B9018CEC0E94520256
:1005500084E40E945202DF91CF9108950F931F937C
:10056000CF93DF93CDB7DEB72A970FB6F894DEBFEF
:100570000FBECDBF0E94B9018CEC0E9452028EEBDF
:100580000E9452021A82198289819A8182309105D1
:1005900098F429813A81CE010196820F931F8C0134
:1005A000085F1F4F0E94FD01F801808389819A81B5
:1005B00001969A838983E8CF8A8599279A838983CC
:1005C00089819A81982F88279A8389838985282F02
:1005D000332789819A81822B932B9A8389838981FE
:1005E0009A818F70907098878F832F81388581E7EB
:1005F00092E0289FA001299F500D389F500D112493
:10060000CA0128EE33E0B9010E945E17CB0198873A
:100610008F8329813A81C901880F991F880F991FFB
:10062000880F991F820F931F820F931F92958295B7
:100630008F7089279F7089279A83898389819A81FE
:1006400028EE33E0B9010E945E179A83898389817D
:100650009A8124E630E0B9010E945E17CB019C83A9
:100660008B838B8180936F0089819A8124E630E0AF
:10067000B9010E945E179A83898389819A812AE051
:1006800030E0B9010E945E17CB019E838D838D817E
:10069000809370008F81809371002A960FB6F89432
:1006A000DEBF0FBECDBFDF91CF911F910F91089597
:1006B000CF93DF93CDB7DEB780913700886080930A
:1006C0003700809137008160809337008091370038
:1006D0008260809337008091370084608093370078
:1006E0008091370080618093370080913100806174
:1006F000809331008091310080628093310080913D
:100700003100846080933100809131008860809353
:100710003100809138008E7F8093380080913800BE
:100720008D7F80933800809138008B7F80933800D4
:10073000809138008F7E80933800809132008F7EC8
:1007400080933200809132008F7D809332008091BF
:1007500032008B7F8093320080913200877F8093BC
:100760003200109288021092860210928502109236
:1007700087021092890210929100109290001092BC
:10078000940210929302DF91CF910895CF93DF935B
:10079000CDB7DEB740E051E060E070E083E990E083
:1007A0000E945417DF91CF910895CF93DF93CDB777
:1007B000DEB740E051E06FEF70E083E990E00E9427
:1007C0005417DF91CF910895CF93DF93CDB7DEB764
:1007D00021970FB6F894DEBF0FBECDBF8983898104
:1007E0008823E9F18091B700806C8093B7008091F5
:1007F000BF00806C8093BF008091C700806C8093A5
:10080000C7008091B60081608093B6008091BE00E1
:1008100081608093BE008091C60081608093C60095
:100820008091FF00806C8093FF0080910701806CB5
:100830008093070180910F01806C80930F0180915C
:10084000FE0081608093FE008091060181608093AC
:10085000060180910E01816080930E0142C080915B
:10086000B7008F738093B7008091BF008F73809320
:10087000BF008091C7008F738093C7009EEF809167
:10088000B60089238093B6009EEF8091BE00892335
:100890008093BE009EEF8091C60089238093C6009E
:1008A0008091FF008F738093FF00809107018F7309
:1008B0008093070180910F018F7380930F019EEF4A
:1008C0008091FE0089238093FE009EEF80910601B7
:1008D0008923809306019EEF80910E0189238093E6
:1008E0000E0121960FB6F894DEBF0FBECDBFDF918B
:1008F000CF910895CF93DF93CDB7DEB728970FB68A
:10090000F894DEBF0FBECDBF89836A834B831D82FF
:100910008D81803108F068C08B8199279C012295D8
:100920003295307F3227207F32278D819927280FFB
:10093000391FC901820F931F82529D4F9F838E835F
:10094000EE81FF818491888788858C838A81282F16
:1009500033278D819927280F391F8981482F5527E3
:10096000C901880F991F880F991F880F991F840F3D
:10097000951FFC01ED56FF4F8C8180838B81992759
:100980009C0122953295307F3227207F32278D813E
:100990009927280F391FC901820F931F81529D4F3C
:1009A0009F838E83EE81FF818491888788858C83E5
:1009B0008A81282F33278D819927280F391F898114
:1009C000482F5527C901880F991F880F991F880F35
:1009D000991F840F951FFC01EC56FF4F8C8180837B
:1009E0008D818F5F8D8394CF28960FB6F894DEBFEC
:1009F0000FBECDBFDF91CF910895CF93DF93CDB7D9
:100A0000DEB728970FB6F894DEBF0FBECDBF89833F
:100A10006A834B831D828D818A3078F59B818AE0C1
:100A2000989F900111248D819927820F931F8850E0
:100A30009E4F9F838E83EE81FF8184918887888576
:100A40008C838A81282F33278D819927280F391F7E
:100A50008981482F5527C901880F991F880F991F31
:100A6000880F991F840F951FFC01ED56FF4F8C8155
:100A700080838D818F5F8D83CECF28960FB6F894BB
:100A8000DEBF0FBECDBFDF91CF910895CF93DF932F
:100A9000CDB7DEB728970FB6F894DEBF0FBECDBF37
:100AA00089836A834B831D828D818A30B0F59B8157
:100AB0008AE0989F900111248D819927820F931FBE
:100AC00088509E4F9F838E83EE81FF81849188871B
:100AD00088858C838A81482F55278D81282F33273D
:100AE000C901880F991F820F931F9C01240F351F86
:100AF0008981482F5527C901880F991F880F991F91
:100B0000880F991F840F951FFC01ED56FF4F8C81B4
:100B100080838D818F5F8D83C7CF28960FB6F89421
:100B2000DEBF0FBECDBFDF91CF910895CF93DF938E
:100B3000CDB7DEB729970FB6F894DEBF0FBECDBF95
:100B400089836A834B838A81882309F46DC01E825E
:100B50008E81853108F0E7C08B81282F332785E10E
:100B600090E0289FA001299F500D389F500D11241F
:100B70009A018E819927280F391FC901820F931F6F
:100B80008C5A9F4F98878F83EF81F885849189874E
:100B900089858C838E81282F33278981482F55277B
:100BA000C901880F991F880F991F880F991F840FFB
:100BB000951FFC01ED56FF4F8C8180838B81282F80
:100BC000332785E190E0289FA001299F500D389F91
:100BD000500D11249A018E819927280F391FC901C0
:100BE000820F931F8B5A9F4F98878F83EF81F885D1
:100BF0008491898789858C838E81282F33278981E9
:100C0000482F5527C901880F991F880F991F880FF2
:100C1000991F840F951FFC01EC56FF4F8C81808338
:100C20008E818F5F8E8394CF1E828E81853108F0F6
:100C30007AC08B81282F332785E190E0289FA0017F
:100C4000299F500D389F500D11249A018E819927AC
:100C5000280F391FC901820F931F8C5A9F4F988705
:100C60008F83EF81F8858491898789858C838E8134
:100C7000282F33278981482F5527C901880F991FAD
:100C8000880F991F880F991F840F951FFC01ED563F
:100C9000FF4F8C8186958695869580838B81282F42
:100CA000332785E190E0289FA001299F500D389FB0
:100CB000500D11249A018E819927280F391FC901DF
:100CC000820F931F8B5A9F4F98878F83EF81F885F0
:100CD0008491898789858D838E81282F3327898107
:100CE000482F5527C901880F991F880F991F880F12
:100CF000991F840F951FFC01EC56FF4F8C8199279B
:100D00009C01220F331F22953295307F3227207F9E
:100D100032278D81869586958695822B80838E815C
:100D20008F5F8E8382CF29960FB6F894DEBF0FBEF9
:100D3000CDBFDF91CF910895CF93DF93CDB7DEB7CD
:100D40004AE060E080E00E947A044BE060E082E0EC
:100D50000E947A044CE060E084E00E947A044DE056
:100D600060E086E00E947A044091620060E180E0E9
:100D70000E947A044091630060E182E00E947A045C
:100D800040E160E184E00E947A044FE160E186E0A6
:100D90000E947A04DF91CF910895CF93DF93CDB76E
:100DA000DEB74AE060E080E00E947A044BE060E059
:100DB00082E00E947A044CE060E084E00E947A04C1
:100DC0004DE060E086E00E947A044091640060E1BA
:100DD00080E00E947A044091650060E182E00E9418
:100DE0007A0441E160E184E00E947A044FE160E12D
:100DF00086E00E947A04DF91CF910895CF93DF932C
:100E0000CDB7DEB74AE060E080E00E947A044BE0B4
:100E100060E082E00E947A044CE060E084E00E949E
:100E20007A044DE060E086E00E947A04409166001A
:100E300060E180E00E947A044091670060E182E016
:100E40000E947A044CE060E184E00E947A044FE161
:100E500060E186E00E947A04DF91CF910895CF93FC
:100E6000DF93CDB7DEB74AE060E080E00E947A040D
:100E70004BE060E082E00E947A044EE060E084E0B3
:100E80000E947A044FE060E086E00E947A0440917C
:100E9000680060E180E00E947A044091690060E1AE
:100EA00082E00E947A044EE060E184E00E947A04CD
:100EB0004FE160E186E00E947A04DF91CF910895CE
:100EC000CF93DF93CDB7DEB74AE060E080E00E94C9
:100ED0007A044BE060E082E00E947A044EE060E039
:100EE00084E00E947A044FE060E086E00E947A0489
:100EF00040916A0060E180E00E947A0440916B00BA
:100F000060E182E00E947A0443E160E184E00E94B3
:100F10007A044FE160E186E00E947A04DF91CF918C
:100F20000895CF93DF93CDB7DEB74AE060E080E06D
:100F30000E947A044BE060E082E00E947A0440E282
:100F400060E084E00E947A044DE060E086E00E9468
:100F50007A0441E260E180E00E947A0480916E00B0
:100F6000873031F44CE060E182E00E947A0408C0EE
:100F700080916E008F5D482F60E182E00E947A04CC
:100F80004FE160E184E00E947A044FE160E186E095
:100F90000E947A04DF91CF910895CF93DF93CDB76C
:100FA000DEB744E160E080E00E947A0445E160E061
:100FB00082E00E947A0446E160E084E00E947A04C4
:100FC00047E160E086E00E947A0480917200882305
:100FD00031F04AE160E180E00E947A0405C048E116
:100FE00060E180E00E947A0449E160E182E00E94D1
:100FF0007A044FE160E184E00E947A044FE160E10D
:1010000086E00E947A04DF91CF910895CF93DF9319
:10101000CDB7DEB74BE160E080E00E947A0441E1A9
:1010200060E082E00E947A044CE160E084E00E948B
:101030007A044EE060E086E00E947A0480917600B7
:10104000882331F04DE160E180E00E947A0405C020
:101050004EE160E180E00E947A044091770060E117
:1010600082E00E947A044091780060E184E00E946E
:101070007A0443E160E186E00E947A04DF91CF9137
:101080000895CF93DF93CDB7DEB74091680061E05C
:1010900080E00E9496054091690061E082E00E9434
:1010A000960540916A0060E084E00E9496054091B8
:1010B0006B0060E086E00E94960546E166E180E014
:1010C0000E94460546E166E181E00E94460546E150
:1010D00066E182E00E94460546E166E183E00E9407
:1010E000460546E166E184E00E94460546E166E188
:1010F00085E00E94460546E166E186E00E944605DD
:1011000046E166E187E00E9446054091600067E1A4
:1011100080E00E9446054091610067E181E00E9405
:1011200046054091620067E182E00E9446054091D9
:10113000630067E183E00E9446054AE067E184E0DE
:101140000E9446054091640067E185E00E944605E3
:101150004091650067E186E00E9446054BE067E14B
:1011600087E00E9446054091660068E180E00E94A9
:1011700046054091670068E181E00E94460544E130
:1011800068E182E00E94460546E168E183E00E9452
:1011900046054CE068E184E00E94460580916E00BF
:1011A000835F482F68E185E00E94460546E168E1DB
:1011B00086E00E94460540916F0068E187E00E944A
:1011C00046054091700069E180E00E94460545E1D6
:1011D00069E181E00E9446054091710069E182E089
:1011E0000E9446054DE069E183E00E94460546E124
:1011F00069E184E00E94460546E169E185E00E94DC
:10120000460546E169E186E00E94460546E169E15E
:1012100087E00E944605DF91CF910895CF93DF9339
:10122000CDB7DEB72D970FB6F894DEBF0FBECDBF9A
:1012300080919000909191000196909391008093FD
:10124000900080917400282F332789E090E0821B62
:10125000930B9C01C901880F991F880F991F880F54
:10126000991F820F931F280F391F80919000909132
:1012700091002817390778F410929100109290008D
:10128000809189028F5F8093890280918902813CDD
:1012900010F01092890280917500882329F58091C1
:1012A0008502909186020196909386028093850232
:1012B000809185029091860222E0853E9207A0F0FF
:1012C000109286021092850280918702882331F065
:1012D0001092870280E00E94E40306C081E08093C0
:1012E000870281E00E94E40380918802863008F43E
:1012F0008EC080917500882309F06EC080918902AC
:101300008695869586958887809189028295880F33
:10131000807E898789858295869587708987909157
:10132000880288E1989F9001112488859927820F6F
:10133000931F80969B878A87809188029927880FC0
:10134000991F880F991F880F991F8D569F4F9D8356
:101350008C831B828B818830D0F58B819927DC01AF
:10136000A857BF4F8B81282F33278A859B85820FF3
:10137000931FFC01ED56FF4F8081282F332789856D
:101380009927B90102C0660F771F8A95E2F78B8112
:10139000282F33278A859B85820F931FFC01EC56EB
:1013A000FF4F8081482F55278985282F332788E0D4
:1013B00090E0821B930B02C0559547958A95E2F702
:1013C000CA01862B8C938B818F5F8B83C3CF88E878
:1013D00090E09F838E8335C0809188029927880F83
:1013E000991F880F991F880F991F8D569F4F9D83B6
:1013F0008C83809188029927880F991F880F991FE5
:10140000880F991F8D5E9E4F9F838E831AC0809197
:1014100088029927880F991F880F991F880F991F95
:101420008D569F4F9D838C83809188029927880FCA
:10143000991F880F991F880F991F8D5E9E4F9F835C
:101440008E8319828981883008F05CC087E08A83A6
:101450008A8188230CF448C0809132008061809397
:10146000320080913200806280933200EC81FD81F5
:101470008081282F33278A81992787FD909502C084
:10148000359527958A95E2F7C9018170907000978C
:1014900029F0809132008F7E80933200EE81FF81AF
:1014A0008081282F33278A81992787FD909502C054
:1014B000359527958A95E2F7C9018170907000975C
:1014C00029F0809132008F7D80933200809132002C
:1014D000877F809332008091320088608093320051
:1014E0008A8181508A83B4CF8C819D8101969D83AE
:1014F0008C838E819F8101969F838E8389818F5FEC
:101500008983A0CF809132008B7F809332008091BD
:10151000320084608093320080918802282F332724
:101520003D872C878C859D858730910509F4F3C014
:101530002C853D852830310554F58C859D8583307B
:10154000910509F494C02C853D852430310594F42F
:101550008C859D858130910509F45FC02C853D8582
:10156000223031050CF06EC08C859D85009709F402
:101570003FC08EC12C853D852530310509F4A1C0C1
:101580008C859D85863091050CF0B0C085C02C857A
:101590003D852B30310509F412C18C859D858C3039
:1015A00091056CF42C853D852930310509F4DDC0A9
:1015B0008C859D858A3091050CF0ECC0C1C02C85CE
:1015C0003D852D30310509F424C18C859D858D30F4
:1015D00091050CF409C12C853D852E30310509F4A7
:1015E0002DC18C859D858F30910509F43CC150C17A
:1015F000809138008F7E80933800809138008B7FF7
:1016000080933800809138008D7F809338008091DE
:1016100038008E7F809338003DC1809138008F7EE6
:1016200080933800809138008B7F809338008091C0
:1016300038008D7F809338008091380081608093DE
:10164000380028C1809138008F7E809338008091C7
:1016500038008B7F809338008091380082608093BF
:101660003800809138008E7F8093380013C18091BC
:1016700038008F7E80933800809138008B7F809374
:101680003800809138008260809338008091380063
:10169000816080933800FEC0809138008F7E8093F7
:1016A0003800809138008460809338008091380041
:1016B0008D7F80933800809138008E7F8093380032
:1016C000E9C0809138008F7E809338008091380087
:1016D000846080933800809138008D7F809338003B
:1016E00080913800816080933800D4C080913800A8
:1016F0008F7E80933800809138008460809338001A
:1017000080913800826080933800809138008E7F0D
:1017100080933800BFC0809138008F7E809338005E
:101720008091380084608093380080913800826016
:101730008093380080913800816080933800AAC07F
:1017400080913800806180933800809138008B7FD1
:1017500080933800809138008D7F8093380080918D
:1017600038008E7F8093380095C08091380080616A
:1017700080933800809138008B7F8093380080916F
:1017800038008D7F8093380080913800816080938D
:10179000380080C08091380080618093380080914B
:1017A00038008B7F8093380080913800826080936E
:1017B0003800809138008E7F809338006BC0809114
:1017C0003800806180933800809138008B7F80934F
:1017D0003800809138008260809338008091380012
:1017E00081608093380056C080913800806180937A
:1017F00038008091380084608093380080913800F0
:101800008D7F80933800809138008E7F80933800E0
:1018100041C0809138008061809338008091380009
:10182000846080933800809138008D7F80933800E9
:10183000809138008160809338002CC080913800FE
:1018400080618093380080913800846080933800F4
:1018500080913800826080933800809138008E7FBC
:101860008093380017C080913800806180933800E1
:1018700080913800846080933800809138008260C5
:10188000809338008091380081608093380002C0D6
:1018900010928802809188028F5F809388028091E5
:1018A0008802803111F4109288022D960FB6F894B8
:1018B000DEBF0FBECDBFDF91CF910895CF93DF93F1
:1018C000CDB7DEB71092560084E6809320001092C8
:1018D00021001092220084E080935600DF91CF9186
:1018E0000895CF93DF93CDB7DEB784EA8093560097
:1018F0008091560088230CF0FBCFDF91CF910895A3
:10190000CF93DF93CDB7DEB721970FB6F894DEBF44
:101910000FBECDBF898389818093230084E88093A3
:1019200056008091560088230CF0FBCF0000809178
:101930002100992728EF30E08223932321960FB6C8
:10194000F894DEBF0FBECDBFDF91CF910895CF9346
:10195000DF93CDB7DEB784EC8093560080915600BC
:1019600088230CF0FBCF809123009927DF91CF9142
:101970000895CF93DF93CDB7DEB784E98093560007
:10198000DF91CF910895CF93DF93CDB7DEB7239743
:101990000FB6F894DEBF0FBECDBF9A8389836B83E9
:1019A0008B81882361F0E981FA81108289819A8193
:1019B00001969A8389838B8181508B83F1CF239603
:1019C0000FB6F894DEBF0FBECDBFDF91CF91089563
:1019D000CF93DF93CDB7DEB724970FB6F894DEBF71
:1019E0000FBECDBF9A8389836B8389819A81892FAA
:1019F00099278C838C81880F8C830E94710C92EACA
:101A00008C81890F0E94800C883139F489810E9471
:101A1000800C8B810E94800C03C081E08093920235
:101A20000E94B90C24960FB6F894DEBF0FBECDBF4E
:101A3000DF91CF910895CF93DF93CDB7DEB726978F
:101A40000FB6F894DEBF0FBECDBF9A8389837C8327
:101A50006B834D8389819A81892F99278E838E810B
:101A6000880F8E830E94710C92EA8E81890F0E94EA
:101A7000800C8831A9F489810E94800C8D81882393
:101A800091F0EB81FC8180810E94800C8B819C8194
:101A900001969C838B8300008D8181508D83EECFD6
:101AA00081E0809392020E94B90C26960FB6F894BA
:101AB000DEBF0FBECDBFDF91CF910895CF93DF93EF
:101AC000CDB7DEB726970FB6F894DEBF0FBECDBFF9
:101AD0009A8389837C836B834D8389819A81892F43
:101AE00099278E838E81880F8E830E94710C92EAD3
:101AF0008E81890F0E94800C883121F489810E9497
:101B0000800C03C081E0809392020E94710C93EAE2
:101B10008E81890F0E94800C883121F489810E9476
:101B2000800C03C081E0809392028D81882371F044
:101B30000E94A70CEB81FC8180838B819C810196A4
:101B40009C838B838D8181508D83EFCF26960FB63A
:101B5000F894DEBF0FBECDBFDF91CF910895CF9334
:101B6000DF93CDB7DEB768E085E992E00E94C30C51
:101B700068E08AE892E00E94C30C60E280E090E0B6
:101B80000E94E80C60E080E090E00E94E80CDF91A9
:101B9000CF910895CF93DF93CDB7DEB747E066E7E7
:101BA00070E082E090E00E945E0D809176008F7779
:101BB00080937600809177008F7780937700809173
:101BC00078008F7380937800809179008F73809371
:101BD000790080917A00877080937A0080917B00F1
:101BE0008F7180937B00809176008F7080936D0061
:101BF0008091760082958F7080936C008091770041
:101C00008F7080936B008091770082958F708093A6
:101C10006A00809178008F708093690080917800CD
:101C200082958F7080936800809179008F70809387
:101C300067008091790082958F7080936600809113
:101C40007B008F708093650080917B0082958F7000
:101C50008093640080917C008F70809363008091FA
:101C60007C0082958F708093620080917A008F70E3
:101C70008F5F80936E00DF91CF910895CF93DF93B4
:101C8000CDB7DEB727970FB6F894DEBF0FBECDBF36
:101C9000198280916A00992782959295907F982762
:101CA000807F982720916B00822B8A838091680027
:101CB000992782959295907F9827807F98272091E9
:101CC0006900822B8B83809166009927829592957B
:101CD000907F9827807F982720916700822B8C83A4
:101CE00080916E0081508D83809164009927829548
:101CF0009295907F9827807F982720916500822B6E
:101D00008E8380916200992782959295907F982783
:101D1000807F982720916300822B8F8347E0BE014C
:101D20006F5F7F4F82E090E00E941B0D27960FB6F9
:101D3000F894DEBF0FBECDBFDF91CF910895CF9352
:101D4000DF93CDB7DEB78091350080648093350096
:101D5000809134008F7B80933400809135008068BF
:101D6000809335009FE7809134008923809334006D
:101D700080913200816080933200809131008E7FAB
:101D800080933100DF91CF910895CF93DF93CDB74A
:101D9000DEB72E970FB6F894DEBF0FBECDBF809191
:101DA0007500882309F0E2C0809133009927807480
:101DB0009070009709F072C080E090E0A0E2B1E47A
:101DC00089839A83AB83BC8320E030E04AE755E403
:101DD00069817A818B819C810E947013DC01CB0127
:101DE0008F839887A987BA8720E030E040E85FE3D7
:101DF0006F81788589859A850E94F71488230CF075
:101E000005C081E090E09E838D831AC020E03FEF03
:101E10004FE757E46F81788589859A850E948B14F6
:101E200018160CF003C01E821D820AC06F817885CF
:101E300089859A850E94BC11DC01CB019E838D832C
:101E40008D819E819C878B878B859C850197F1F77F
:101E50009C878B87809133009927807490700097BE
:101E6000A9F4809173008F5F809373008091730059
:101E7000893018F081E0809373009091730089E1BC
:101E8000989FC0011124885180935C008091330099
:101E9000992780749070009709F4F8CF80913300EF
:101EA00088230CF463C080E090E0A0E2B1E48F836B
:101EB0009887A987BA8720E030E04AE755E46F8128
:101EC000788589859A850E947013DC01CB0189830E
:101ED0009A83AB83BC8320E030E040E85FE3698114
:101EE0007A818B819C810E94F71488230CF005C0B5
:101EF00081E090E09C878B871AC020E03FEF4FE79E
:101F000057E469817A818B819C810E948B14181619
:101F10000CF003C01C861B860AC069817A818B8104
:101F20009C810E94BC11DC01CB019C878B878B8537
:101F30009C859E838D838D819E810197F1F79E8381
:101F40008D8380913300882364F0809174008F5FCB
:101F50008093740080917400893018F081E0809340
:101F600074008091330088230CF0FBCF8091300007
:101F7000992781709070009709F0C5C080E090E0CB
:101F8000A0E2B1E48F839887A987BA8720E030E088
:101F90004AE755E46F81788589859A850E94701398
:101FA000DC01CB0189839A83AB83BC8320E030E0E2
:101FB00040E85FE369817A818B819C810E94F714FC
:101FC00088230CF005C081E090E09C878B871AC0C5
:101FD00020E03FEF4FE757E469817A818B819C8154
:101FE0000E948B1418160CF003C01C861B860AC0B6
:101FF00069817A818B819C810E94BC11DC01CB01BB
:102000009C878B878B859C859E838D838D819E810C
:102010000197F1F79E838D8380913000992781701D
:102020009070009709F067C0809175008F5F809372
:10203000750080917500893010F0109275008091C4
:102040007500282F33273E872D878D859E85843008
:10205000910509F442C02D853E8525303105D4F423
:102060008D859E858130910579F12D853E852230C3
:1020700031052CF48D859E85009709F13CC02D8596
:102080003E852230310519F18D859E85833091057D
:1020900009F131C02D853E852630310521F18D8530
:1020A0009E8586309105E4F02D853E8527303105EB
:1020B000E9F08D859E8588309105D9F01CC00E947D
:1020C000C6030E94410817C00E949C0614C00E94CB
:1020D000CD0611C00E94FE060EC00E942F070BC045
:1020E0000E94600708C00E94910705C00E94CD07AA
:1020F00002C00E940608809130009927817090707C
:10210000009709F4F8CF2E960FB6F894DEBF0FBEF5
:10211000CDBFDF91CF910895CF93DF93CDB7DEB7D9
:10212000109253001092520089E7809353008091DF
:102130007200893050F49091730089E1989FC0013A
:102140001124885180935C0003C084E680935C0076
:10215000DF91CF910895CF93DF93CDB7DEB785E0C0
:102160008093450080915900806480935900DF91ED
:10217000CF9108951F920F920FB60F9211242F93B3
:102180003F934F935F936F937F938F939F93AF93FF
:10219000BF93EF93FF93CF93DF93CDB7DEB78091DB
:1021A0007500882309F053C08091930290919402A6
:1021B0000196909394028093930280919302909160
:1021C000940222E58930920750F00E944108109253
:1021D00094021092930210928700109286008091D0
:1021E00086009091870001969093870080938600E7
:1021F000809186009091870027E28131920730F02C
:102200000E94CA0D1092870010928600809183026E
:10221000909184020196909384028093830280912E
:102220008302909184022AEE8036920711F40E9474
:102230009F0280918302909184022FEE8334920753
:1022400030F00E94AE02109284021092830210922B
:102250004400DF91CF91FF91EF91BF91AF919F919A
:102260008F917F916F915F914F913F912F910F903F
:102270000FBE0F901F901895CF93DF93CDB7DEB7A9
:10228000F8941092550010925B000E9458030E942F
:102290009F0E0E948C100E94AB100E94AF0D1092F6
:1022A0008402109283020E94B9010E94C6037894AE
:1022B000DF91CF910895C3E5D4E0DEBFCDBF0E948A
:1022C0003C110E949F0280E090E0AAE7B4E4898379
:1022D0009A83AB83BC8320E030E04AE755E4698110
:1022E0007A818B819C810E947013DC01CB018F83EA
:1022F0009887A987BA8720E030E040E85FE36F81E4
:10230000788589859A850E94F71488230CF005C08A
:1023100081E090E09E838D831AC020E03FEF4FE77D
:1023200057E46F81788589859A850E948B141816E9
:102330000CF003C01E821D820AC06F8178858985DA
:102340009A850E94BC11DC01CB019E838D838D8117
:102350009E819C878B878B859C850197F1F79C8755
:102360008B870E94AE020E94CA0D0E9441080E9403
:102370000E090E94C50EFBCFEF92FF920F931F93A1
:102380007B018C0120E030E040E05FE40E94C1145A
:1023900088239CF020E030E040E05FECC801B7010A
:1023A0000E940A13DC01CB01BC01CD010E942D1556
:1023B000605070408040904804C0C801B7010E943E
:1023C0002D151F910F91FF90EF900895A0E0B0E0C0
:1023D000ECEEF1E10C9472178C017B015A01DC01E7
:1023E0008C91823058F0FB019081923010F4A7015B
:1023F0000BC1843029F4943009F4A6C0A80104C1AB
:102400009430A9F3923009F4A9C0823081F3F80125
:10241000C280D380FB0162817381F8012481358100
:1024200046815781F7016480758086809780C60158
:10243000861B970B97FDD8C080970CF46CC06C1569
:102440007D050CF0ADC0662477244301F80161815D
:10245000F7018181681709F499C0662309F491C0D6
:10246000621A730A840A950AA401930157FDC0C039
:10247000F5011182B60119012A0179018A01390198
:102480004A0108946108710881089108FFEF6F16EE
:10249000FFEF7F06FFEF8F06FFE39F06F0F4A80132
:1024A0009701220F331F441F551F19012A01B6013E
:1024B000615070406B0179018A0139014A01089429
:1024C00061087108810891088FEF68168FEF780610
:1024D0008FEF88068FE3980610F383E0D5018C9385
:1024E00057FC64C0F5012483358346835783738387
:1024F0006283A50189C06F5F7F4FD401C3018170E2
:102500009070A070B0709694879477946794682ABE
:10251000792A8A2A9B2A6C157D056CF311C00894D0
:10252000C11CD11CDA01C90181709070A070B0701B
:102530005695479537952795282B392B4A2B5B2B9A
:10254000C616D70664F382CFF8019181FB01818121
:10255000981709F453CF4DE750E056C0823009F088
:102560004DCF88E0DA01F80101900D928A95E1F7EC
:10257000F8018181FB0191818923FA018183A50101
:1025800043C0261937094809590970CFF5016183FD
:10259000B601260D371D481D591D19012A019DCF71
:1025A0006B0120E030E040E050E050CFD201C101AB
:1025B000B695A7959795879521E030E040E050E0EB
:1025C0002222332244225522282A392A4A2A5B2AE7
:1025D000F50124823582468257820894C11CD11CA1
:1025E000D382C282A50110C0909581959F4F24CFC0
:1025F00081E0F5018183B601509540953095219594
:102600003F4F4F4F5F4F37CFCA01E2E1CDB7DEB743
:102610000C948E17A0E2B0E0E0E1F3E10C94801797
:10262000DC01CB01898F9A8FAB8FBC8F2D8F3E8FB2
:102630004F8F58A3BE016F5F7F4FCE0149960E9416
:1026400067168E01075F1F4FB801CE014D960E949D
:102650006716AE014F5E5F4FB801CE0101960E9432
:10266000E6110E947F15DC01CB01BC01CD01E4E045
:10267000A0960C949C17A0E2B0E0E1E4F3E10C9486
:102680008017DC01CB01898F9A8FAB8FBC8F2D8F88
:102690003E8F4F8F58A3BE016F5F7F4FCE0149968B
:1026A0000E9467168E01075F1F4FB801CE014D963D
:1026B0000E9467168A8591E089278A87AE014F5E5E
:1026C0005F4FB801CE0101960E94E6110E947F156E
:1026D000DC01CB01BC01CD01E4E0A0960C949C1779
:1026E000A0E2B0E0E6E7F3E10C947217DC01CB0165
:1026F000898F9A8FAB8FBC8F2D8F3E8F4F8F58A3B2
:10270000BE016F5F7F4FCE0149960E94671669E058
:1027100070E06C0F7D1FCE014D960E946716FE0182
:102720003196662477244301130124018981823084
:1027300098F09985923058F420E091818A85981319
:1027400021E02A8769E070E06C0F7D1FD9C08430DA
:1027500059F4923009F45BC020E091818A85981386
:1027600021E02183BF01CCC0943009F44DC08230F8
:1027700099F3923009F3ED80FE800F8118852D8545
:102780003E854F855889640153016FE170E00CC0AC
:10279000220F331F441F551F16950795F794E79492
:1027A0006150704077FD36C0D801C70181709070CC
:1027B000A070B070892BC9F080E090E0220E331E2B
:1027C000441E551E221633064406550610F481E0B9
:1027D00090E0AA2797FDA095BA2F8A0D9B1DAC1DEE
:1027E000BD1D680E791E8A1E9B1EAA0CBB1CCC1C2C
:1027F000DD1C57FFCDCF81E090E0A0E0B0E0A82A3B
:10280000B92ACA2ADB2AC4CF823009F095CF6DE7F6
:1028100070E076C0228133818B859C85280F391F1B
:102820002E5F3F4FA90160E091818A85981361E096
:102830006A8B97FE0FC02FC0CA010197AC019C01A3
:10284000660C771C881C991C57FC41C0220C331C59
:10285000441C551C90E0691690E0790690E08906CA
:1028600090E4990648F33C8B2B8BD401C3018F77FE
:102870009070A070B07080349105A105B10581F110
:102880006D8A7E8A8F8A988E83E0898B61E170E001
:102890006C0F7D1F35C02F5F3F4FA901D401C301CD
:1028A00081709070A070B070892B61F0569447943D
:1028B0003794279480E090E0A0E0B0E8282A392AF5
:1028C0004A2A5B2A9694879477946794C3CF81E0D1
:1028D00090E0A0E0B0E0682A792A8A2A9B2AB6CF45
:1028E00067FC05C0211431044104510449F280E41D
:1028F00090E0A0E0B0E0680E791E8A1E9B1EC0CF5B
:10290000CB010E947F15DC01CB01BC01CD01E2E1CE
:10291000A0960C948E17A8E1B0E0E1E9F4E10C94E4
:102920008017DC01CB01898B9A8BAB8BBC8B2D8BF9
:102930003E8B4F8B588FBE016F5F7F4FCE0141960C
:102940000E9467168E01075F1F4FB801CE014596A2
:102950000E9467168981823018F08985823018F4C8
:102960002FEF3FEF09C0B801CE0101960E94E1169A
:10297000282F332727FD3095C901E4E068960C9491
:102980009C17A8E1B0E0E7ECF4E10C948017DC01BF
:10299000CB01898B9A8BAB8BBC8B2D8B3E8B4F8B5A
:1029A000588FBE016F5F7F4FCE0141960E94671620
:1029B0008E01075F1F4FB801CE0145960E94671632
:1029C0008981823018F08985823018F42FEF3FEF2B
:1029D00009C0B801CE0101960E94E116282F3327C5
:1029E00027FD3095C901E4E068960C949C17A8E196
:1029F000B0E0EDEFF4E10C948017DC01CB01898BA2
:102A00009A8BAB8BBC8B2D8B3E8B4F8B588FBE0123
:102A10006F5F7F4FCE0141960E9467168E01075F60
:102A20001F4FB801CE0145960E94671689818230FA
:102A300018F08985823018F421E030E009C0B8012F
:102A4000CE0101960E94E116282F332727FD3095ED
:102A5000C901E4E068960C949C17ACE0B0E0E3E3B5
:102A6000F5E10C948217DC01CB0189879A87AB874B
:102A7000BC87BE016F5F7F4FCE0109960E9467162B
:102A80008981823011F0823028F460E070E080E0CB
:102A900090E031C0843039F02B813C8137FDF5CF97
:102AA0002F3131056CF08A81882329F060E070E0D5
:102AB00080E090E820C06FEF7FEF8FEF9FE71BC0B3
:102AC0008EE190E0821B930B2D813E814F815885D2
:102AD00004C056954795379527958A95D2F78A81F0
:102AE000882339F050954095309521953F4F4F4FB1
:102AF0005F4FCA01B901E2E02C960C949E17A0E04A
:102B0000B0E0E5E8F5E10C947817882499245401A5
:102B1000DC01FC0124813581468157818181082FA8
:102B2000112760E070E08C91823020F46FEF70E04C
:102B30004061A4C0843009F464C0823009F463C0E9
:102B4000211531054105510509F498C0FD01828127
:102B50009381FFEF82389F070CF050C0A2E8EA2E65
:102B6000AFEFFA2EE81AF90A8AE1E816F1040CF040
:102B70006BC06B0181E090E0A0E0B0E00E2C04C0DF
:102B8000880F991FAA1FBB1F0A94D2F70197A109AA
:102B9000B10982239323A423B5230097A105B1058E
:102BA00019F0F1E0CF2ED12C04C0569547953795FA
:102BB0002795EA94D2F7C601AA2797FDA095BA2FC8
:102BC000282B392B4A2B5B2BDA01C9018F779070A8
:102BD000A070B07080349105A105B105D1F1215CE0
:102BE0003F4F4F4F5F4F2030E0E03E07E0E04E07A1
:102BF000E0E45E0708F161E070E01EC080389105F6
:102C00003CF06FEF70E020E030E040E050E036C094
:102C1000BC0161587F4FDA01C9018F779070A070B5
:102C2000B07080349105A105B105D1F0215C3F4F12
:102C30004F4F5F4F57FD1BC097E05695479537950F
:102C400027959A95D1F71AC020E030E040E050E097
:102C5000BBCF27FFC8CF205C3F4F4F4F5F4FC3CF45
:102C600027FFE8CF205C3F4F4F4F5F4FE3CF569594
:102C70004795379527956F5F7F4FDECF822E932E36
:102C8000942F9F778A2D8078A82EA92A962F979522
:102C9000992797958A2D8F77A82EA92A76956795DB
:102CA000962F9F778B2D8078B82EB92A902F9795E5
:102CB000992797958B2D8F77B82EB92AD501C40106
:102CC000BC01CD01ECE0CDB7DEB70C949417CF93E7
:102CD000DF93FC01DB01408151812281622F6F77FC
:102CE00070E0221F2227221F9381892F880F822BB9
:102CF000282F3327991F9927991FED0199832115B3
:102D0000310541F44115510561057105E1F482E099
:102D10008C9354C02F3F310509F441C02F573040E8
:102D2000FD013383228383E08C9387E0440F551F9A
:102D3000661F771F8A95D1F77064ED014C835D8320
:102D40006E837F833BC022E83FEFF901C7E0440F69
:102D5000551F661F771FCA95D1F783E08C934030CB
:102D600080E0580780E0680780E4780778F4440F33
:102D7000551F661F771F21503040F9014030C0E0D9
:102D80005C07C0E06C07C0E47C0788F3ED01FB83BF
:102D9000EA83FD0144835583668377830FC0411521
:102DA00051056105710519F484E08C9307C064FF37
:102DB00003C081E08C93C1CF1C92BFCFDF91CF9134
:102DC00008950F931F93CF93DF93FC01DB01808164
:102DD000823018F09C91923018F461E070E05EC08F
:102DE0008430C1F0843001F1943009F447C082305E
:102DF00009F44BC0823009F44EC09230A9F04181F1
:102E0000ED0189814817B9F0442389F08FEF9FEFD6
:102E1000BC0144C0943031F7EB018981682F7727DA
:102E20008181681B71093AC08181882379F781E02B
:102E300090E0BC0133C022813381ED018A819B8106
:102E4000821793070CF3281739079CF0048115812A
:102E500026813781FD0164817581868197816017A4
:102E600071078207930780F20617170728073907AB
:102E700078F4442359F281E090E0DBCFFD018181B9
:102E8000882321F281E090E0D4CF923009F0B2CFD4
:102E900060E070E003C0ED018981F2CFCB01DF91EA
:102EA000CF911F910F910895DC0140FF03C001C035
:102EB0006D936D9342505040D8F70895AA1BBB1BE9
:102EC00051E107C0AA1FBB1FA617B70710F0A61B2A
:102ED000B70B881F991F5A95A9F780959095BC014B
:102EE000CD0108952F923F924F925F926F927F9201
:102EF0008F929F92AF92BF92CF92DF92EF92FF920A
:102F00000F931F93CF93DF93CDB7DEB7CA1BDB0BB5
:102F10000FB6F894DEBF0FBECDBF09942A8839885A
:102F200048885F846E847D848C849B84AA84B98461
:102F3000C884DF80EE80FD800C811B81AA81B9816D
:102F4000CE0FD11D0FB6F894DEBF0FBECDBFED0181
:022F50000895E2
:102F5200020001020001010702020109000002024F
:102F62000304010101004059232905020800000061
:062F720000000000000059
:00000001FF
