:100000000C94A6010C94C1010C94C1010C94C10183
:100010000C94DA110C94C1010C94C1010C94C1012F
:100020000C94C1010C94C1010C94C1010C94C10148
:100030000C94C1010C94C1010C94C1010C94C10138
:100040000C94C1010C94C1010C94C1010C94C10128
:100050000C94C10107800FC03FE038707070703899
:1000600070386038E038E038E038E038E038603840
:100070007038703070703CE01FE00F8006000300A5
:100080001F00FF00FF00C700070007000700070070
:100090000700070007000700070007000700070028
:1000A000070007007FF87FF80FC03FF03FF83038B7
:1000B000003800180018003800380038007000E0E0
:1000C00001C0038007000E001C00380070007FF89C
:1000D0007FF81F803FE03FF0207800380038007044
:1000E00000E01FC01FC01FF0003800380038003883
:1000F0000038003860F07FF07FC00E0001E001E0C2
:1001000003E003E006E00EE01CE018E030E070E001
:1001100060E0E0E0C0E0FFF8FFF8FFF800E000E09A
:1001200000E000E000E03FF83FF83FF8380038001A
:10013000380038003F803FE03FF00078003800385A
:10014000001800180018003870F07FF03FC00E0053
:1001500003C00FE01FF03C0070007000E000E7C03B
:10016000FFE0FFF0F078E038E038E038E038E038E1
:10017000707878703FE01FC00700FFF8FFF8FFF0CD
:1001800000700070006000E000C001C001C003808A
:1001900003800300070007000E000E001C001C0077
:1001A0001C0038000F803FE07FF07070E070E0705E
:1001B000707079E01FC01F803FE070F0E070E038A1
:1001C000C038E038E038F0F07FF03FC006001F8014
:1001D0003FC07FE0E070E070C030C038E038E078C9
:1001E000F0F87FF83FB8003000300070007000E099
:1001F00043E07FC07F001C007C82828282828282F8
:10020000827C103050101010101010FE3844828282
:100210000408102040FE7C8202023C020282827CA2
:10022000060C14244484FE040404FE8080FC0202B4
:100230000282827C7C828080FC828282827C7E82BE
:1002400002040810202020207C8282827C8282820C
:10025000827C7C828282827E0202827C407E887ED8
:100260004848FE0808087E42427E42427E4246825C
:100270007E92BA92BA82BAAABA86087E547E5C404E
:100280005C54489600000000FF00000000000000E1
:10029000007E000000FF000000007E00003C000027
:1002A00000FF00FFA9A9A9A9CD81FF81007E101040
:1002B0007C141414FF00001008FF00242462C20004
:1002C0007F4141417F414141417F000000000000EA
:1002D000000018180000000000000000000002E20A
:1002E000BFA2EAAAA2AAE60238242442BD242424FA
:1002F000448C10FF3C243CFF813C2447203E40BE00
:100300002AFF327E020400101010FE1010100000B0
:100310005C14D476405C545468567E5A7EFF7E420C
:100320007E7E42FF000000000060600060601010F0
:100330007E427E427E427E42047E087E08FF08089E
:10034000281804046F05F54555750B1111241FBEBF
:10035000CFE5D4E0DEBFCDBF10E0A0E6B0E0EAEA32
:10036000F1E302C005900D92A838B107D9F712E069
:10037000A8E8B0E001C01D92AF39B107E1F70C94D5
:100380007B120C940000CF93DF93CDB7DEB7249798
:100390000FB6F894DEBF0FBECDBF9A8389838981E3
:1003A0009A818230910598F01C821B828B819C81FE
:1003B0008531910530F48B819C8101969C838B83E0
:1003C000F5CF89819A8101979A838983E8CF249612
:1003D0000FB6F894DEBF0FBECDBFDF91CF91089569
:1003E000CF93DF93CDB7DEB721970FB6F894DEBF7A
:1003F0000FBECDBF80915F0080939400F8948091F0
:1004000031008068809331009FE78091320089231A
:100410008093320089E190E00E94C3018091320014
:100420008068809332009FE7809131008923809318
:10043000310084E090E00E94C30190E88091300098
:100440008923898389E190E00E94C301809194000F
:1004500088230CF4789421960FB6F894DEBF0FBE73
:10046000CDBFDF91CF910895CF93DF93CDB7DEB7A6
:1004700022970FB6F894DEBF0FBECDBF1A828091CF
:100480005F0080939400F89488E0898389818823B1
:1004900081F18A8186958A8380913100806880937A
:1004A00031009FE78091320089238093320081E000
:1004B00090E00E94C30180913200806880933200F6
:1004C0009FE78091310089238093310081E090E0A3
:1004D0000E94C3018091300088231CF48A818068C7
:1004E0008A8383E090E00E94C301898181508983DF
:1004F000CDCF8091940088230CF478948A81992739
:1005000022960FB6F894DEBF0FBECDBFDF91CF911C
:100510000895CF93DF93CDB7DEB722970FB6F89447
:10052000DEBF0FBECDBF898380915F0080939400B2
:10053000F89488E08A838A81882351F18091310080
:100540008068809331009FE78091320089238093F7
:10055000320081E090E00E94C30189819927817077
:100560009070009729F0809132008068809332006B
:1005700084E090E00E94C301809132008068809303
:1005800032008981869589838A8181508A83D3CF7D
:100590008091940088230CF4789422960FB6F894F6
:1005A000DEBF0FBECDBFDF91CF910895CF93DF9314
:1005B000CDB7DEB70E94F0018CEC0E94890284E482
:1005C0000E948902DF91CF9108950F931F93CF93DB
:1005D000DF93CDB7DEB72A970FB6F894DEBF0FBE14
:1005E000CDBF0E94F0018CEC0E9489028EEB0E942C
:1005F00089021A82198289819A818230910598F440
:1006000029813A81CE010196820F931F8C01085FE8
:100610001F4F0E943402F801808389819A810196DC
:100620009A838983E8CF8A8599279A8389838981E8
:100630009A81982F88279A8389838985282F332741
:1006400089819A81822B932B9A83898389819A81CC
:100650008F70907098878F832F81388581E792E023
:10066000289FA001299F500D389F500D1124CA01C9
:1006700028EE33E0B9010E948A18CB0198878F8356
:1006800029813A81C901880F991F880F991F880F06
:10069000991F820F931F820F931F929582958F70DF
:1006A00089279F7089279A83898389819A8128EE77
:1006B00033E0B9010E948A189A83898389819A81DB
:1006C00024E630E0B9010E948A18CB019C838B8319
:1006D0008B8180936F0089819A8124E630E0B90193
:1006E0000E948A189A83898389819A812AE030E05E
:1006F000B9010E948A18CB019E838D838D818093DE
:1007000070008F81809371002A960FB6F894DEBF37
:100710000FBECDBFDF91CF911F910F910895CF9361
:10072000DF93CDB7DEB780913700886080933700C4
:10073000809137008160809337008091370082601C
:1007400080933700809137008460809337008091D8
:100750003700806180933700809131008061809301
:1007600031008091310080628093310080913100AE
:1007700084608093310080913100886080933100E3
:1007800010928A02109288021092870210928902B7
:1007900010928B0210929300109292001092960287
:1007A00010929502DF91CF910895CF93DF93CDB74B
:1007B000DEB740E051E060E070E085E990E00E9443
:1007C0007418DF91CF910895CF93DF93CDB7DEB743
:1007D00040E051E06FEF70E085E990E00E9474180E
:1007E000DF91CF910895CF93DF93CDB7DEB72197F7
:1007F0000FB6F894DEBF0FBECDBF898389818823F1
:10080000E9F18091B900806C8093B9008091C100BA
:10081000806C8093C1008091C900806C8093C90076
:100820008091B80081608093B8008091C0008160A1
:100830008093C0008091C80081608093C80080913F
:100840000101806C8093010180910901806C80938B
:10085000090180911101806C809311018091000148
:10086000816080930001809108018160809308017C
:100870008091100181608093100142C08091B90085
:100880008F738093B9008091C1008F738093C100F2
:100890008091C9008F738093C9009EEF8091B8004A
:1008A00089238093B8009EEF8091C00089238093B4
:1008B000C0009EEF8091C80089238093C80080917A
:1008C00001018F7380930101809109018F738093DF
:1008D0000901809111018F73809311019EEF809126
:1008E00000018923809300019EEF809108018923F4
:1008F000809308019EEF809110018923809310015D
:1009000021960FB6F894DEBF0FBECDBFDF91CF9119
:100910000895CF93DF93CDB7DEB728970FB6F8943D
:10092000DEBF0FBECDBF89836A834B831D828D815D
:100930008A3078F59B818AE0989F900111248D81FF
:100940009927820F931F88509E4F9F838E83EE813D
:10095000FF818491888788858C838A81282F33271B
:100960008D819927280F391F8981482F5527C90163
:10097000880F991F880F991F880F991F840F951F43
:10098000FC01EB56FF4F8C8180838D818F5F8D83BF
:10099000CECF28960FB6F894DEBF0FBECDBFDF9145
:1009A000CF910895CF93DF93CDB7DEB728970FB6D9
:1009B000F894DEBF0FBECDBF89836A834B831D824F
:1009C0008D818A30B0F59B818AE0989F9001112437
:1009D0008D819927820F931F88509E4F9F838E830E
:1009E000EE81FF818491888788858C838A81482F56
:1009F00055278D81282F3327C901880F991F820F12
:100A0000931F9C01240F351F8981482F5527C90149
:100A1000880F991F880F991F880F991F840F951FA2
:100A2000FC01EB56FF4F8C8180838D818F5F8D831E
:100A3000C7CF28960FB6F894DEBF0FBECDBFDF91AB
:100A4000CF910895CF93DF93CDB7DEB729970FB637
:100A5000F894DEBF0FBECDBF89836A834B831E82AD
:100A60008E81853108F08CC08B81282F332785E15A
:100A700090E0289FA001299F500D389F500D112410
:100A80009A018E819927280F391FC901820F931F60
:100A90008C5A9F4F98878F83EF81F885849189873F
:100AA00089858C838E81282F33278981482F55276C
:100AB000C901880F991F880F991F880F991F840FEC
:100AC000951FFC01EB56FF4F8C81282F33278A811D
:100AD000992702C0359527958A95E2F7C901808349
:100AE0008B81282F332785E190E0289FA001299F43
:100AF000500D389F500D11249A018E819927280F8F
:100B0000391FC901820F931F8B5A9F4F98878F837C
:100B1000EF81F8858491898789858D838E81282F3F
:100B200033278981482F5527C901880F991F880FBE
:100B3000991F880F991F840F951FFC01EA56FF4FDC
:100B40008C81482F55278A81282F332788E090E011
:100B5000821B930B02C0440F551F8A95E2F78D81CB
:100B6000282F33278A81992702C0359527958A95A2
:100B7000E2F7C901842B80838E818F5F8E8370CFD3
:100B800029960FB6F894DEBF0FBECDBFDF91CF918F
:100B90000895CF93DF93CDB7DEB725970FB6F894BE
:100BA000DEBF0FBECDBF9A8389837C836B834D8369
:100BB0000E94D5034CE160E080E00E9489044DE191
:100BC00060E081E00E9489044EE160E082E00E94E2
:100BD0008904E981FA81408160E083E00E94220576
:100BE000EB81FC81408160E085E00E9422054D811F
:100BF0006BE087E00E94890425960FB6F894DEBF6B
:100C00000FBECDBFDF91CF910895CF93DF93CDB7C6
:100C1000DEB74AE063E670E082E690E00E94C90534
:100C2000DF91CF910895CF93DF93CDB7DEB74BE03F
:100C300065E670E084E690E00E94C905DF91CF91FF
:100C40000895CF93DF93CDB7DEB744E167E670E058
:100C500086E690E00E94C905DF91CF910895CF9379
:100C6000DF93CDB7DEB747E169E670E088E690E054
:100C70000E94C905DF91CF910895CF93DF93CDB73F
:100C8000DEB748E16BE670E08AE690E00E94C905B5
:100C9000DF91CF910895CF93DF93CDB7DEB70E9458
:100CA000D5034CE160E080E00E9489044DE160E002
:100CB00081E00E9489044EE160E082E00E948904A4
:100CC0004CE06BE083E00E94890440916E0060E09C
:100CD00085E00E942205DF91CF910895CF93DF93A5
:100CE000CDB7DEB70E94D5034CE160E080E00E9402
:100CF00089044DE160E081E00E9489044EE160E0FA
:100D000082E00E94890480917200882361F0409102
:100D1000720060E083E00E94220540E260E085E02E
:100D20000E9489040BC04091720060E083E00E9441
:100D300022054FE160E085E00E94890441E260E025
:100D400087E00E94890449E16DE085E00E94890402
:100D50004DE06DE087E00E948904DF91CF91089516
:100D6000CF93DF93CDB7DEB70E94D5034CE160E0AF
:100D700080E00E9489044DE160E081E00E948904E6
:100D80004EE160E082E00E9489044AE16BE080E08D
:100D90000E9489044BE06BE081E00E94890480910D
:100DA0007600882331F04BE16BE082E00E948904F9
:100DB00005C04EE06BE082E00E948904409177001C
:100DC00060E083E00E9422054091780060E085E0C9
:100DD0000E94220548E16BE087E00E948904DF91D0
:100DE000CF910895CF93DF93CDB7DEB70E94D5039F
:100DF0004091680060E080E00E9422054091690017
:100E000060E082E00E94220540916A0063E084E095
:100E10000E94220540916B0063E086E00E9422055B
:100E20004091600067E180E00E94D204409161003F
:100E300067E181E00E94D2044091620067E182E0B4
:100E40000E94D2044091630067E183E00E94D204D3
:100E50004AE067E184E00E94D2044091640067E1C7
:100E600085E00E94D2044091650067E186E00E941F
:100E7000D2044BE067E187E00E94D2044091660013
:100E800068E180E00E94D2044091670068E181E05F
:100E90000E94D20444E168E182E00E94D2044CE066
:100EA00068E184E00E94D20480916E00835F482F45
:100EB00068E185E00E94D20440916F0068E187E01C
:100EC0000E94D2044091700069E180E00E94D20447
:100ED00045E169E181E00E94D2044091710069E13D
:100EE00082E00E94D2044DE069E183E00E94D204D6
:100EF000DF91CF910895CF93DF93CDB7DEB72D97D4
:100F00000FB6F894DEBF0FBECDBF809192009091D6
:100F100093000196909393008093920080917400C7
:100F2000282F332789E090E0821B930B9C01C90195
:100F3000880F991F880F991F880F991F820F931F81
:100F4000280F391F8091920090919300281739073C
:100F500078F4109293001092920080918B028F5F30
:100F600080938B0280918B02813C10F010928B0257
:100F700080917500882329F58091870290918802DD
:100F800001969093880280938702809187029091C6
:100F9000880222E0853E9207A0F01092880210920B
:100FA000870280918902882331F01092890280E0C3
:100FB0000E94F30306C081E08093890281E00E94D1
:100FC000F30380918A02863008F48EC08091750008
:100FD000882309F06EC080918B0286958695869550
:100FE000888780918B028295880F807E898789858A
:100FF000829586958770898790918A0288E1989F6B
:101000009001112488859927820F931F80969B87D2
:101010008A8780918A029927880F991F880F991FC4
:10102000880F991F8B569F4F9D838C831B828B81CA
:101030008830D0F58B819927DC01A657BF4F8B8173
:10104000282F33278A859B85820F931FFC01EB563F
:10105000FF4F8081282F332789859927B90102C046
:10106000660F771F8A95E2F78B81282F33278A85B1
:101070009B85820F931FFC01EA56FF4F8081482F0A
:1010800055278985282F332788E090E0821B930B12
:1010900002C0559547958A95E2F7CA01862B8C9335
:1010A0008B818F5F8B83C3CF8AE890E09F838E8391
:1010B00035C080918A029927880F991F880F991F40
:1010C000880F991F8B569F4F9D838C8380918A0236
:1010D0009927880F991F880F991F880F991F8B5E7A
:1010E0009E4F9F838E831AC080918A029927880F12
:1010F000991F880F991F880F991F8B569F4F9D83AB
:101100008C8380918A029927880F991F880F991FD5
:10111000880F991F8B5E9E4F9F838E8319828981D2
:10112000883008F05CC087E08A838A8188230CF4C9
:1011300048C08091320080618093320080913200FB
:10114000806280933200EC81FD818081282F3327DB
:101150008A81992787FD909502C0359527958A95B4
:10116000E2F7C90181709070009729F080913200F8
:101170008F7E80933200EE81FF818081282F33277C
:101180008A81992787FD909502C0359527958A9584
:10119000E2F7C90181709070009729F080913200C8
:1011A0008F7D8093320080913200877F8093320060
:1011B000809132008860809332008A8181508A83D6
:1011C000B4CF8C819D8101969D838C838E819F817C
:1011D00001969F838E8389818F5F8983A0CF8091C1
:1011E00032008B7F80933200809132008460809344
:1011F000320080918A02282F33273D872C878C85E7
:101200009D858730910509F4F3C02C853D852830F4
:10121000310554F58C859D858330910509F494C082
:101220002C853D852430310594F48C859D85813055
:10123000910509F45FC02C853D85223031050CF005
:101240006EC08C859D85009709F43FC08EC12C85AA
:101250003D852530310509F4A1C08C859D858630FA
:1012600091050CF0B0C085C02C853D852B30310533
:1012700009F412C18C859D858C3091056CF42C8508
:101280003D852930310509F4DDC08C859D858A3086
:1012900091050CF0ECC0C1C02C853D852D30310589
:1012A00009F424C18C859D858D3091050CF409C10C
:1012B0002C853D852E30310509F42DC18C859D8509
:1012C0008F30910509F43CC150C1809138008F7E68
:1012D00080933800809138008B7F80933800809114
:1012E00038008D7F80933800809138008E7F809306
:1012F00038003DC1809138008F7E80933800809106
:1013000038008B7F80933800809138008D7F8093E8
:1013100038008091380081608093380028C1809126
:1013200038008F7E80933800809138008B7F8093C7
:1013300038008091380082608093380080913800B6
:101340008E7F8093380013C1809138008F7E809308
:101350003800809138008B7F80933800809138006E
:1013600082608093380080913800816080933800DB
:10137000FEC0809138008F7E8093380080913800C5
:10138000846080933800809138008D7F809338008E
:10139000809138008E7F80933800E9C080913800BA
:1013A0008F7E80933800809138008460809338006D
:1013B000809138008D7F8093380080913800816063
:1013C00080933800D4C0809138008F7E809338009D
:1013D000809138008460809338008091380082606A
:1013E00080933800809138008E7F80933800BFC092
:1013F000809138008F7E809338008091380084601F
:10140000809338008091380082608093380080910A
:101410003800816080933800AAC0809138008061D4
:1014200080933800809138008B7F809338008091C2
:1014300038008D7F80933800809138008E7F8093B4
:10144000380095C080913800806180933800809189
:1014500038008B7F80933800809138008D7F809397
:1014600038008091380081608093380080C080917E
:101470003800806180933800809138008B7F8093A2
:101480003800809138008260809338008091380065
:101490008E7F809338006BC080913800806180938C
:1014A0003800809138008B7F80933800809138001D
:1014B000826080933800809138008160809338008A
:1014C00056C0809138008061809338008091380048
:1014D000846080933800809138008D7F809338003D
:1014E000809138008E7F8093380041C08091380011
:1014F0008061809338008091380084608093380048
:10150000809138008D7F8093380080913800816011
:10151000809338002CC0809138008061809338001F
:101520008091380084608093380080913800826018
:1015300080933800809138008E7F8093380017C0E8
:1015400080913800806180933800809138008460F9
:1015500080933800809138008260809338008091B9
:10156000380081608093380002C010928A02809116
:101570008A028F5F80938A0280918A02803111F4FF
:1015800010928A022D960FB6F894DEBF0FBECDBF23
:10159000DF91CF910895CF93DF93CDB7DEB710924F
:1015A000560084E6809320001092210010922200C1
:1015B00084E080935600DF91CF910895CF93DF931D
:1015C000CDB7DEB784EA8093560080915600882319
:1015D0000CF0FBCFDF91CF910895CF93DF93CDB780
:1015E000DEB721970FB6F894DEBF0FBECDBF89835B
:1015F00089818093230084E880935600809156006F
:1016000088230CF0FBCF000080912100992728EF60
:1016100030E08223932321960FB6F894DEBF0FBEED
:10162000CDBFDF91CF910895CF93DF93CDB7DEB7D4
:1016300084EC809356008091560088230CF0FBCFF9
:10164000809123009927DF91CF910895CF93DF9365
:10165000CDB7DEB784E980935600DF91CF9108952E
:10166000CF93DF93CDB7DEB723970FB6F894DEBFE5
:101670000FBECDBF9A8389836B838B81882361F0F2
:10168000E981FA81108289819A8101969A838983FE
:101690008B8181508B83F1CF23960FB6F894DEBFF8
:1016A0000FBECDBFDF91CF910895CF93DF93CDB71C
:1016B000DEB724970FB6F894DEBF0FBECDBF9A8376
:1016C00089836B8389819A81892F99278C838C8167
:1016D000880F8C830E94DE0A92EA8C81890F0E9417
:1016E000ED0A883139F489810E94ED0A8B810E94CC
:1016F000ED0A03C081E0809394020E94260B249699
:101700000FB6F894DEBF0FBECDBFDF91CF91089525
:10171000CF93DF93CDB7DEB726970FB6F894DEBF31
:101720000FBECDBF9A8389837C836B834D83898170
:101730009A81892F99278E838E81880F8E830E94AC
:10174000DE0A92EA8E81890F0E94ED0A8831A9F49F
:1017500089810E94ED0A8D81882391F0EB81FC81C3
:1017600080810E94ED0A8B819C8101969C838B83F2
:1017700000008D8181508D83EECF81E080939402B3
:101780000E94260B26960FB6F894DEBF0FBECDBF83
:10179000DF91CF910895CF93DF93CDB7DEB7269732
:1017A0000FB6F894DEBF0FBECDBF9A8389837C83CA
:1017B0006B834D8389819A81892F99278E838E81AE
:1017C000880F8E830E94DE0A92EA8E81890F0E9422
:1017D000ED0A883121F489810E94ED0A03C081E07D
:1017E000809394020E94DE0A93EA8E81890F0E9400
:1017F000ED0A883121F489810E94ED0A03C081E05D
:10180000809394028D81882371F00E94140BEB81E8
:10181000FC8180838B819C8101969C838B838D814D
:1018200081508D83EFCF26960FB6F894DEBF0FBEA2
:10183000CDBFDF91CF910895CF93DF93CDB7DEB7C2
:1018400068E087E992E00E94300B68E08CE892E063
:101850000E94300B60E280E090E00E94550B60E057
:1018600080E090E00E94550BDF91CF910895CF93D7
:10187000DF93CDB7DEB747E069E770E082E090E044
:101880000E94CB0B809179008F77809379008091B3
:101890007A008F7780937A0080917B008F7380939A
:1018A0007B0080917C008F7380937C0080917D0011
:1018B000877080937D0080917E008F7180937E0081
:1018C000809179008F7080936D008091790082956E
:1018D0008F7080936C0080917A008F7080936B0082
:1018E00080917A0082958F7080936A0080917B004E
:1018F0008F708093690080917B0082958F708093B8
:10190000680080917C008F708093670080917C00DC
:1019100082958F708093660080917E008F70809397
:10192000650080917E0082958F7080936400809125
:101930007F008F708093630080917F0082958F700D
:101940008093620080917D008F708F5F80936E0026
:10195000DF91CF910895CF93DF93CDB7DEB727976F
:101960000FB6F894DEBF0FBECDBF198280916A001A
:10197000992782959295907F9827807F982720912C
:101980006B00822B8A8380916800992782959295BB
:10199000907F9827807F982720916900822B8B83E6
:1019A00080916600992782959295907F9827807FF5
:1019B000982720916700822B8C8380916E00815044
:1019C0008D8380916400992782959295907F9827C6
:1019D000807F982720916500822B8E838091620002
:1019E000992782959295907F9827807F98272091BC
:1019F0006300822B8F8347E0BE016F5F7F4F82E0E1
:101A000090E00E94880B27960FB6F894DEBF0FBEB9
:101A1000CDBFDF91CF910895CF93DF93CDB7DEB7E0
:101A200080913500806480933500809134008F7BF5
:101A300080933400809135008068809335009FE763
:101A4000809134008923809334008091320081603A
:101A500080933200809131008E7F80933100DF913E
:101A6000CF9108950F931F93CF93DF93CDB7DEB738
:101A700069970FB6F894DEBF0FBECDBF89836A8326
:101A80005C834B833E832D8318870F8380913300C3
:101A9000992780749070009709F086C080E090E0EC
:101AA000A0E2B1E489879A87AB87BC8720E030E069
:101AB0004AE755E469857A858B859C850E94901458
:101AC000DC01CB018F87988BA98BBA8B20E030E0AB
:101AD00040E85FE36F85788989899A890E941716A3
:101AE00088230CF005C081E090E09E878D871AC0A6
:101AF00020E03FEF4FE757E46F85788989899A891D
:101B00000E94AB1518160CF003C01E861D860AC075
:101B10006F85788989899A890E94DC12DC01CB0162
:101B20009E878D878D859E859C8B8B8B8B899C89D1
:101B30000197F1F79C8B8B8B8091330099278074F0
:101B40009070009749F5EB81FC8190818AE0989F25
:101B500090011124ED81FE818081820F8D8B8D8912
:101B60008F5F8D8B9D898981891710F48A818D8B78
:101B7000EB81FC818D899AE0692F0E947E18808319
:101B8000ED81FE818D899AE0692F0E947E18892F50
:101B90008083EF81F88509958091330099278074BF
:101BA0009070009709F4F8CF8091330088230CF4EB
:101BB00099C080E090E0A0E2B1E48F87988BA98B78
:101BC000BA8B20E030E04AE755E46F85788989894F
:101BD0009A890E949014DC01CB0189879A87AB8790
:101BE000BC8720E030E040E85FE369857A858B853B
:101BF0009C850E94171688230CF005C081E090E0B8
:101C00009C8B8B8B1AC020E03FEF4FE757E4698530
:101C10007A858B859C850E94AB1518160CF003C045
:101C20001C8A1B8A0AC069857A858B859C850E94DF
:101C3000DC12DC01CB019C8B8B8B8B899C899E8772
:101C40008D878D859E850197F1F79E878D87809181
:101C5000330088230CF441C0EB81FC8190818AE041
:101C6000989F90011124ED81FE818081820F8D8BE0
:101C70008D8981508D8B1F8A1E8A9D898981891744
:101C800020F421E030E03F8B2E8B198E188E9D8939
:101C90008A81981720F481E090E0998F888F8E894F
:101CA0009F89288D398D822B932B009711F0898184
:101CB0008D8BEB81FC818D899AE0692F0E947E18C3
:101CC0008083ED81FE818D899AE0692F0E947E18C4
:101CD000892F8083EF81F8850995809133008823CF
:101CE0000CF0FBCF69960FB6F894DEBF0FBECDBFE8
:101CF000DF91CF911F910F9108950F931F93CF9371
:101D0000DF93CDB7DEB761970FB6F894DEBF0FBE95
:101D1000CDBF80917500882309F0E3C08091330026
:101D2000992780749070009709F072C080E090E06D
:101D3000A0E2B1E489839A83AB83BC8320E030E0E6
:101D40004AE755E469817A818B819C810E949014D5
:101D5000DC01CB018F839887A987BA8720E030E028
:101D600040E85FE36F81788589859A850E94171620
:101D700088230CF005C081E090E09E838D831AC01B
:101D800020E03FEF4FE757E46F81788589859A859A
:101D90000E94AB1518160CF003C01E821D820AC0EB
:101DA0006F81788589859A850E94DC12DC01CB01E0
:101DB0009E838D838D819E819C878B878B859C855F
:101DC0000197F1F79C878B87809133009927807466
:101DD00090700097A9F4809173008F5F80937300D7
:101DE00080917300893018F081E0809373009091A6
:101DF000730089E1989FC0011124885180935C0091
:101E000080913300992780749070009709F4F8CF7F
:101E10008091330088230CF4C5C180E090E0A0E2FB
:101E2000B1E48F839887A987BA8720E030E04AE73A
:101E300055E46F81788589859A850E949014DC012C
:101E4000CB0189839A83AB83BC8320E030E040E8F8
:101E50005FE369817A818B819C810E9417168823B8
:101E60000CF005C081E090E09C878B871AC020E0D1
:101E70003FEF4FE757E469817A818B819C810E9413
:101E8000AB1518160CF003C01C861B860AC06981AE
:101E90007A818B819C810E94DC12DC01CB019C87C2
:101EA0008B878B859C859E838D838D819E810197F9
:101EB000F1F79E838D8380913300882364F08091B5
:101EC00074008F5F8093740080917400893018F0E3
:101ED00081E0809374008091330088230CF462C108
:101EE000FACF80917500813059F405E016E023E6C1
:101EF00030E042E650E060E083E60E94320D52C1DD
:101F000080917500823059F403E116E025E630E057
:101F100044E650E061E08CE00E94320D43C18091C4
:101F20007500833059F401E216E027E630E046E61A
:101F300050E061E08FE10E94320D34C18091750064
:101F4000843059F40FE216E029E630E048E650E02C
:101F500060E087E10E94320D25C1809175008530D7
:101F600059F40DE316E02BE630E04AE650E060E07D
:101F70008BE30E94320D16C180917500863069F4A2
:101F80001D86CE010D960BE416E02EE630E0AC0186
:101F900061E087E00E94320D05C1809175008730B5
:101FA00069F41E86CE010E960EE616E022E730E0BA
:101FB000AC0160E081E00E94320DF4C080917500B8
:101FC000883009F0EFC080913300992780749070B9
:101FD000009709F07FC080E090E0A0E2B1E48F8339
:101FE0009887A987BA8720E030E04AE755E46F81F7
:101FF000788589859A850E949014DC01CB018983BC
:102000009A83AB83BC8320E030E040E85FE36981E2
:102010007A818B819C810E94171688230CF005C061
:1020200081E090E09C878B871AC020E03FEF4FE76C
:1020300057E469817A818B819C810E94AB151816C7
:102040000CF003C01C861B860AC069817A818B81D3
:102050009C810E94DC12DC01CB019C878B878B85E5
:102060009C859E838D838D819E810197F1F79E8350
:102070008D8380913300992780749070009711F5BB
:10208000909177008AE0989FC001112420917800F8
:10209000820F8F878F858F5F8F878F85853108F0BF
:1020A0001F868F859AE0692F0E947E1880937700A3
:1020B0008F859AE0692F0E947E18892F809378007F
:1020C0000E94B00680913300992780749070009729
:1020D00009F4F8CF8091330088230CF463C080E0CA
:1020E00090E0A0E2B1E48F839887A987BA8720E0C7
:1020F00030E04AE755E46F81788589859A850E94AA
:102100009014DC01CB0189839A83AB83BC8320E0EC
:1021100030E040E85FE369817A818B819C810E9495
:10212000171688230CF005C081E090E09C878B8710
:102130001AC020E03FEF4FE757E469817A818B8135
:102140009C810E94AB1518160CF003C01C861B86E0
:102150000AC069817A818B819C810E94DC12DC013A
:10216000CB019C878B878B859C859E838D838D81FE
:102170009E810197F1F79E838D83809133008823A0
:1021800064F080917600882319F01092760003C0E5
:1021900081E0809376000E94B0068091330088230E
:1021A0000CF0FBCF809130009927817090700097E0
:1021B00009F0C7C080E090E0A0E2B1E48F83988787
:1021C000A987BA8720E030E04AE755E46F81788537
:1021D00089859A850E949014DC01CB0189839A83BA
:1021E000AB83BC8320E030E040E85FE369817A8123
:1021F0008B819C810E94171688230CF005C081E01A
:1022000090E09C878B871AC020E03FEF4FE757E4B0
:1022100069817A818B819C810E94AB1518160CF024
:1022200003C01C861B860AC069817A818B819C81D0
:102230000E94DC12DC01CB019C878B878B859C85FF
:102240009E838D838D819E810197F1F79E838D837F
:1022500080913000992781709070009709F069C0D3
:10226000809175008F5F8093750080917500893033
:1022700010F01092750080917500282F3327398B4C
:10228000288B888999898430910509F444C028896C
:10229000398925303105D4F48889998981309105AF
:1022A00089F128893989223031052CF48889998966
:1022B000009709F13EC0288939892230310529F17A
:1022C000888999898330910519F133C02889398922
:1022D0002630310531F18889998986309105F4F0ED
:1022E0002889398927303105F9F08889998988301A
:1022F0009105E9F01EC00E94AB0C0E94D5030E941C
:10230000F20617C00E94050614C00E94130611C0F1
:102310000E9421060EC00E942F060BC00E943D069F
:1023200008C00E944B0605C00E946E0602C00E94B3
:10233000B00680913000992781709070009709F461
:10234000F8CF61960FB6F894DEBF0FBECDBFDF9118
:10235000CF911F910F910895CF93DF93CDB7DEB743
:10236000109253001092520089E78093530080919D
:102370007200893050F49091730089E1989FC001F8
:102380001124885180935C0003C084E680935C0034
:10239000DF91CF910895CF93DF93CDB7DEB785E07E
:1023A0008093450080915900806480935900DF91AB
:1023B000CF9108951F920F920FB60F9211242F9371
:1023C0003F934F935F936F937F938F939F93AF93BD
:1023D000BF93EF93FF93CF93DF93CDB7DEB7809199
:1023E0007500882309F053C0809195029091960260
:1023F0000196909396028093950280919502909118
:10240000960222E58930920750F00E94F20610925F
:102410009602109295021092890010928800809185
:10242000880090918900019690938900809388009C
:1024300080918800909189002EE38138920730F0D6
:102440000E94370C109289001092880080918502BA
:1024500090918602019690938602809385028091E6
:102460008502909186022AEE8036920711F40E942E
:10247000D60280918502909186022FEE83349207D6
:1024800030F00E94E50210928602109285021092AE
:102490004400DF91CF91FF91EF91BF91AF919F9158
:1024A0008F917F916F915F914F913F912F910F90FD
:1024B0000FBE0F901F901895CF93DF93CDB7DEB767
:1024C000F8941092550010925B000E948F030E94B6
:1024D0000C0D0E94AC110E94CB110E941C0C10929A
:1024E0008602109285020E94F0010E94D503789422
:1024F000DF91CF910895C3E5D4E0DEBFCDBF0E9448
:102500005C120E94D60280E090E0AAE7B4E48983DE
:102510009A83AB83BC8320E030E04AE755E46981CD
:102520007A818B819C810E949014DC01CB018F8386
:102530009887A987BA8720E030E040E85FE36F81A1
:10254000788589859A850E94171688230CF005C026
:1025500081E090E09E838D831AC020E03FEF4FE73B
:1025600057E46F81788589859A850E94AB15181686
:102570000CF003C01E821D820AC06F817885898598
:102580009A850E94DC12DC01CB019E838D838D81B4
:102590009E819C878B878B859C850197F1F79C8713
:1025A0008B870E94E5020E94370C0E94F2060E946F
:1025B0007B070E947D0EFBCFEF92FF920F931F933C
:1025C0007B018C0120E030E040E05FE40E94E115F7
:1025D00088239CF020E030E040E05FECC801B701C8
:1025E0000E942A14DC01CB01BC01CD010E944D16D2
:1025F000605070408040904804C0C801B7010E94FC
:102600004D161F910F91FF90EF900895A0E0B0E05C
:10261000ECE0F3E10C949E188C017B015A01DC0183
:102620008C91823058F0FB019081923010F4A70118
:102630000BC1843029F4943009F4A6C0A80104C168
:102640009430A9F3923009F4A9C0823081F3F801E3
:10265000C280D380FB0162817381F80124813581BE
:1026600046815781F7016480758086809780C60116
:10267000861B970B97FDD8C080970CF46CC06C1527
:102680007D050CF0ADC0662477244301F80161811B
:10269000F7018181681709F499C0662309F491C094
:1026A000621A730A840A950AA401930157FDC0C0F7
:1026B000F5011182B60119012A0179018A01390156
:1026C0004A0108946108710881089108FFEF6F16AC
:1026D000FFEF7F06FFEF8F06FFE39F06F0F4A801F0
:1026E0009701220F331F441F551F19012A01B601FC
:1026F000615070406B0179018A0139014A010894E7
:1027000061087108810891088FEF68168FEF7806CD
:102710008FEF88068FE3980610F383E0D5018C9342
:1027200057FC64C0F5012483358346835783738344
:102730006283A50189C06F5F7F4FD401C30181709F
:102740009070A070B0709694879477946794682A7C
:10275000792A8A2A9B2A6C157D056CF311C008948E
:10276000C11CD11CDA01C90181709070A070B070D9
:102770005695479537952795282B392B4A2B5B2B58
:10278000C616D70664F382CFF8019181FB018181DF
:10279000981709F453CF40E850E056C0823009F052
:1027A0004DCF88E0DA01F80101900D928A95E1F7AA
:1027B000F8018181FB0191818923FA018183A501BF
:1027C00043C0261937094809590970CFF5016183BB
:1027D000B601260D371D481D591D19012A019DCF2F
:1027E0006B0120E030E040E050E050CFD201C10169
:1027F000B695A7959795879521E030E040E050E0A9
:102800002222332244225522282A392A4A2A5B2AA4
:10281000F50124823582468257820894C11CD11C5E
:10282000D382C282A50110C0909581959F4F24CF7D
:1028300081E0F5018183B601509540953095219551
:102840003F4F4F4F5F4F37CFCA01E2E1CDB7DEB701
:102850000C94BA18A0E2B0E0E0E3F4E10C94AC18F8
:10286000DC01CB01898F9A8FAB8FBC8F2D8F3E8F70
:102870004F8F58A3BE016F5F7F4FCE0149960E94D4
:1028800087178E01075F1F4FB801CE014D960E943A
:102890008717AE014F5E5F4FB801CE0101960E94CF
:1028A00006130E949F16DC01CB01BC01CD01E4E0C0
:1028B000A0960C94C818A0E2B0E0E1E6F4E10C9414
:1028C000AC18DC01CB01898F9A8FAB8FBC8F2D8F19
:1028D0003E8F4F8F58A3BE016F5F7F4FCE01499649
:1028E0000E9487178E01075F1F4FB801CE014D96DA
:1028F0000E9487178A8591E089278A87AE014F5EFB
:102900005F4FB801CE0101960E9406130E949F16E8
:10291000DC01CB01BC01CD01E4E0A0960C94C81809
:10292000A0E2B0E0E6E9F4E10C949E18DC01CB01F2
:10293000898F9A8FAB8FBC8F2D8F3E8F4F8F58A36F
:10294000BE016F5F7F4FCE0149960E94871769E0F5
:1029500070E06C0F7D1FCE014D960E948717FE011F
:102960003196662477244301130124018981823042
:1029700098F09985923058F420E091818A859813D7
:1029800021E02A8769E070E06C0F7D1FD9C0843098
:1029900059F4923009F45BC020E091818A85981344
:1029A00021E02183BF01CCC0943009F44DC08230B6
:1029B00099F3923009F3ED80FE800F8118852D8503
:1029C0003E854F855889640153016FE170E00CC06A
:1029D000220F331F441F551F16950795F794E79450
:1029E0006150704077FD36C0D801C701817090708A
:1029F000A070B070892BC9F080E090E0220E331EE9
:102A0000441E551E221633064406550610F481E076
:102A100090E0AA2797FDA095BA2F8A0D9B1DAC1DAB
:102A2000BD1D680E791E8A1E9B1EAA0CBB1CCC1CE9
:102A3000DD1C57FFCDCF81E090E0A0E0B0E0A82AF8
:102A4000B92ACA2ADB2AC4CF823009F095CF60E8C0
:102A500070E076C0228133818B859C85280F391FD9
:102A60002E5F3F4FA90160E091818A85981361E054
:102A70006A8B97FE0FC02FC0CA010197AC019C0161
:102A8000660C771C881C991C57FC41C0220C331C17
:102A9000441C551C90E0691690E0790690E0890688
:102AA00090E4990648F33C8B2B8BD401C3018F77BC
:102AB0009070A070B07080349105A105B10581F1CE
:102AC0006D8A7E8A8F8A988E83E0898B61E170E0BF
:102AD0006C0F7D1F35C02F5F3F4FA901D401C3018B
:102AE00081709070A070B070892B61F056944794FB
:102AF0003794279480E090E0A0E0B0E8282A392AB3
:102B00004A2A5B2A9694879477946794C3CF81E08E
:102B100090E0A0E0B0E0682A792A8A2A9B2AB6CF02
:102B200067FC05C0211431044104510449F280E4DA
:102B300090E0A0E0B0E0680E791E8A1E9B1EC0CF18
:102B4000CB010E949F16DC01CB01BC01CD01E2E16B
:102B5000A0960C94BA18A8E1B0E0E1EBF5E10C9472
:102B6000AC18DC01CB01898B9A8BAB8BBC8B2D8B8A
:102B70003E8B4F8B588FBE016F5F7F4FCE014196CA
:102B80000E9487178E01075F1F4FB801CE0145963F
:102B90000E9487178981823018F08985823018F465
:102BA0002FEF3FEF09C0B801CE0101960E94011836
:102BB000282F332727FD3095C901E4E068960C944F
:102BC000C818A8E1B0E0E7EEF5E10C94AC18DC0120
:102BD000CB01898B9A8BAB8BBC8B2D8B3E8B4F8B18
:102BE000588FBE016F5F7F4FCE0141960E948717BD
:102BF0008E01075F1F4FB801CE0145960E948717CF
:102C00008981823018F08985823018F42FEF3FEFE8
:102C100009C0B801CE0101960E940118282F332760
:102C200027FD3095C901E4E068960C94C818A8E126
:102C3000B0E0EDE1F6E10C94AC18DC01CB01898B3E
:102C40009A8BAB8BBC8B2D8B3E8B4F8B588FBE01E1
:102C50006F5F7F4FCE0141960E9487178E01075FFD
:102C60001F4FB801CE0145960E9487178981823097
:102C700018F08985823018F421E030E009C0B801ED
:102C8000CE0101960E940118282F332727FD309589
:102C9000C901E4E068960C94C818ACE0B0E0E3E544
:102CA000F6E10C94AE18DC01CB0189879A87AB87DB
:102CB000BC87BE016F5F7F4FCE0109960E948717C8
:102CC0008981823011F0823028F460E070E080E089
:102CD00090E031C0843039F02B813C8137FDF5CF55
:102CE0002F3131056CF08A81882329F060E070E093
:102CF00080E090E820C06FEF7FEF8FEF9FE71BC071
:102D00008EE190E0821B930B2D813E814F8158858F
:102D100004C056954795379527958A95D2F78A81AD
:102D2000882339F050954095309521953F4F4F4F6E
:102D30005F4FCA01B901E2E02C960C94CA18A0E0DA
:102D4000B0E0E5EAF6E10C94A41888249924540133
:102D5000DC01FC0124813581468157818181082F66
:102D6000112760E070E08C91823020F46FEF70E00A
:102D70004061A4C0843009F464C0823009F463C0A7
:102D8000211531054105510509F498C0FD018281E5
:102D90009381FFEF82389F070CF050C0A2E8EA2E23
:102DA000AFEFFA2EE81AF90A8AE1E816F1040CF0FE
:102DB0006BC06B0181E090E0A0E0B0E00E2C04C09D
:102DC000880F991FAA1FBB1F0A94D2F70197A10968
:102DD000B10982239323A423B5230097A105B1054C
:102DE00019F0F1E0CF2ED12C04C0569547953795B8
:102DF0002795EA94D2F7C601AA2797FDA095BA2F86
:102E0000282B392B4A2B5B2BDA01C9018F77907065
:102E1000A070B07080349105A105B105D1F1215C9D
:102E20003F4F4F4F5F4F2030E0E03E07E0E04E075E
:102E3000E0E45E0708F161E070E01EC080389105B3
:102E40003CF06FEF70E020E030E040E050E036C052
:102E5000BC0161587F4FDA01C9018F779070A07073
:102E6000B07080349105A105B105D1F0215C3F4FD0
:102E70004F4F5F4F57FD1BC097E0569547953795CD
:102E800027959A95D1F71AC020E030E040E050E055
:102E9000BBCF27FFC8CF205C3F4F4F4F5F4FC3CF03
:102EA00027FFE8CF205C3F4F4F4F5F4FE3CF569552
:102EB0004795379527956F5F7F4FDECF822E932EF4
:102EC000942F9F778A2D8078A82EA92A962F9795E0
:102ED000992797958A2D8F77A82EA92A7695679599
:102EE000962F9F778B2D8078B82EB92A902F9795A3
:102EF000992797958B2D8F77B82EB92AD501C401C4
:102F0000BC01CD01ECE0CDB7DEB70C94C018CF9377
:102F1000DF93FC01DB01408151812281622F6F77B9
:102F200070E0221F2227221F9381892F880F822B76
:102F3000282F3327991F9927991FED019983211570
:102F4000310541F44115510561057105E1F482E057
:102F50008C9354C02F3F310509F441C02F573040A6
:102F6000FD013383228383E08C9387E0440F551F58
:102F7000661F771F8A95D1F77064ED014C835D83DE
:102F80006E837F833BC022E83FEFF901C7E0440F27
:102F9000551F661F771FCA95D1F783E08C93403089
:102FA00080E0580780E0680780E4780778F4440FF1
:102FB000551F661F771F21503040F9014030C0E097
:102FC0005C07C0E06C07C0E47C0788F3ED01FB837D
:102FD000EA83FD0144835583668377830FC04115DF
:102FE00051056105710519F484E08C9307C064FFF5
:102FF00003C081E08C93C1CF1C92BFCFDF91CF91F2
:1030000008950F931F93CF93DF93FC01DB01808121
:10301000823018F09C91923018F461E070E05EC04C
:103020008430C1F0843001F1943009F447C082301B
:1030300009F44BC0823009F44EC09230A9F04181AE
:10304000ED0189814817B9F0442389F08FEF9FEF94
:10305000BC0144C0943031F7EB018981682F772798
:103060008181681B71093AC08181882379F781E0E9
:1030700090E0BC0133C022813381ED018A819B81C4
:10308000821793070CF3281739079CF004811581E8
:1030900026813781FD016481758186819781601762
:1030A00071078207930780F2061717072807390769
:1030B00078F4442359F281E090E0DBCFFD01818177
:1030C000882321F281E090E0D4CF923009F0B2CF92
:1030D00060E070E003C0ED018981F2CFCB01DF91A8
:1030E000CF911F910F910895DC0140FF03C001C0F3
:1030F0006D936D9342505040D8F70895991B79E035
:1031000004C0991F961708F0961B881F7A95C9F777
:1031100080950895AA1BBB1B51E107C0AA1FBB1FC6
:10312000A617B70710F0A61BB70B881F991F5A9553
:10313000A9F780959095BC01CD0108952F923F92FB
:103140004F925F926F927F928F929F92AF92BF92B7
:10315000CF92DF92EF92FF920F931F93CF93DF9363
:10316000CDB7DEB7CA1BDB0B0FB6F894DEBF0FBEC0
:10317000CDBF09942A88398848885F846E847D840D
:103180008C849B84AA84B984C884DF80EE80FD800F
:103190000C811B81AA81B981CE0FD11D0FB6F89485
:0A31A000DEBF0FBECDBFED010895A4
:1031AA0002000102000101070202010900000202F5
:1031BA000304010101000000004059232905020807
:0831CA000000000000000000FD
:00000001FF
