:100000000C940A080C9427080C9427080C942708D1
:100010000C94D0160C9427080C9427080C942708ED
:100020000C9427080C9427080C9427080C94270894
:100030000C9427080C9427080C9427080C94270884
:100040000C9427080C9427080C9427080C94270874
:100050000C942708A311A511A711AC11AE11B01172
:10006000B211B411B611B911BC11BE11C111C51133
:10007000C911CC11391C4A1C4D1C501C531C561C58
:10008000591C5C1C5F1C621C651C07800FC03FE094
:1000900038707070703870386038E038E038E038A8
:1000A000E038E03860387038703070703CE01FE045
:1000B0000F80060003001F00FF00FF00C7000700BD
:1000C00007000700070007000700070007000700F8
:1000D000070007000700070007007FF87FF80FC040
:1000E0003FF03FF83038003800180018003800386A
:1000F0000038007000E001C0038007000E001C0003
:10010000380070007FF87FF81F803FE03FF02078D4
:1001100000380038007000E01FC01FC01FF000381A
:100120000038003800380038003860F07FF07FC0B9
:100130000E0001E001E003E003E006E00EE01CE059
:1001400018E030E070E060E0E0E0C0E0FFF8FFF8C9
:10015000FFF800E000E000E000E000E03FF83FF8DA
:100160003FF838003800380038003F803FE03FF06B
:10017000007800380038001800180018003870F0B7
:100180007FF03FC00E0003C00FE01FF03C00700086
:100190007000E000E7C0FFE0FFF0F078E038E03802
:1001A000E038E038E038707878703FE01FC0070032
:1001B000FFF8FFF8FFF000700070006000E000C082
:1001C00001C001C0038003800300070007000E0088
:1001D0000E001C001C001C0038000F803FE07FF068
:1001E0007070E070E070707079E01FC01F803FE0B9
:1001F00070F0E070E038C038E038E038F0F07FF0C0
:100200003FC006001F803FC07FE0E070E070C0305C
:10021000C038E038E078F0F87FF83FB800300030C0
:100220000070007000E043E07FC07F001C00FFF81A
:10023000FFF8FFF8E038E038E038E038E038E03840
:10024000E038E038E038E038E038E038E038E038EE
:10025000E038FFF8FFF8FFF8070007000700070085
:100260000700070007000700070007000700070056
:100270000700070007000700070007000700070046
:100280000700FFF8FFF8FFF80038003800380038A2
:1002900000380038FFF8FFF8FFF8E000E000E00069
:1002A000E000E000E000FFF8FFF8FFF8FFF8FFF8DB
:1002B000FFF8003800380038003800380038FFF800
:1002C000FFF8FFF8003800380038003800380038F0
:1002D000FFF8FFF8FFF8E038E038E038E038E038C1
:1002E000E038E038E038E038FFF8FFF8FFF8003891
:1002F000003800380038003800380038003800383E
:10030000FFF8FFF8FFF8E000E000E000E000E000A8
:10031000E000FFF8FFF8FFF8003800380038003838
:1003200000380038FFF8FFF8FFF8FFF8FFF8FFF893
:10033000E000E000E000E000E000E000FFF8FFF88F
:10034000FFF8E038E038E038E038E038E038FFF82F
:10035000FFF8FFF8FFF8FFF8FFF800380038003822
:1003600000380038003800380038003800380038CD
:100370000038003800380038003800380038FFF8FE
:10038000FFF8FFF8E038E038E038E038E038E038EF
:10039000FFF8FFF8FFF8E038E038E038E038E03800
:1003A000E038FFF8FFF8FFF8FFF8FFF8FFF8E03853
:1003B000E038E038E038E038E038FFF8FFF8FFF8E0
:1003C000003800380038003800380038FFF8FFF8EF
:1003D000FFF83FE07FF0FFF8E038E038E038E03841
:1003E000E038E038E038E038E038E038E038E0384D
:1003F000E038E038E038FFF87FF03FE007000F001A
:100400001F001F001F00070007000700070007006C
:1004100007000700070007000700070007000700A4
:10042000FFF8FFF8FFF83FE07FF0FFF8E038003812
:1004300000380038003800383FF87FF0FFE0E00077
:10044000E000E000E000E000E000FFF8FFF8FFF867
:100450003FE07FF0FFF8E03800380038003800381F
:1004600000381FF01FE01FF0003800380038003857
:100470000038E038FFF87FF03FE0E1C0E1C0E1C0C4
:10048000E1C0E1C0E1C0E1C0E1C0E1C0FFF8FFF8B8
:10049000FFF801C001C001C001C001C001C001C01E
:1004A00001C001C0FFF8FFF8FFF8E000E000E00045
:1004B000E000E000E000FFE0FFF0FFF80038003867
:1004C000003800380038E038FFF87FF03FE0E00007
:1004D000E000E000E000E000E000E000E000E0001C
:1004E000FFE0FFF0FFF8E038E038E038E038E038CF
:1004F000E038FFF87FF03FE0FFF8FFF8FFF8003842
:10050000003800380038003800380038003800382B
:10051000003800380038003800380038003800381B
:1005200000383FE07FF0FFF8E038E038E038E038AE
:10053000E03870703FE01FC03FE07070E038E03896
:10054000E038E038E038FFF87FF03FE03FE07FF050
:10055000FFF8E038E038E038E038E038E038FFF81D
:100560007FF83FF80038003800380038003800388D
:100570000038003800387C82828282828282827CCB
:10058000103050101010101010FE384482820408F1
:10059000102040FE7C8202023C020282827C060C19
:1005A00014244484FE040404FE8080FC02020282BF
:1005B000827C7C828080FC828282827C7E820204B9
:1005C0000810202020207C8282827C828282827C91
:1005D0007C828282827E0202827C407E887E4848C3
:1005E000FE0808087E42427E42427E4246827E9259
:1005F000BA92BA82BAAABA86087E547E5C405C542B
:10060000489600000000FE00000000000000007E90
:10061000000000FF0000007E0000003C000000FF22
:10062000FFA9A9A9A9A9C781FF817E1010107C1478
:10063000141414FF301808FF0024246666C27F419A
:1006400041417F414141417F000000000000000026
:1006500018180000000000000000000002E2BFA225
:10066000EAAAA2AAE60238242442BD242424448C07
:1006700010FF3C243CFF813C2447203E40BE2AFF23
:10068000327E0204404040F75555555750B05C1437
:10069000D476405C545468567E5A7EFF7E427E7EFD
:1006A00042FF0000000000606000606010107E42A9
:1006B0007E427E427E42047E087E08FF080828189B
:1006C0000202BF623A227ABB224548487ED4625475
:1006D000D448546210FE92FE9292FE10121EFE0446
:1006E0000810FE1010105030FE40507E52525252F0
:1006F00052A4000000007E7E000000007E414141C7
:100700007E414141417E414122140814222241414F
:1007100041414122140808080808FE828282FE82B4
:10072000828282FE845FC45F555F444E55BF08FFDE
:10073000817E04FF080838082444FF4E55555F6544
:1007400044447C82828282828282827C1030501079
:100750001010101010FE384482820408102040FE51
:100760007C8202023C020282827C060C14244484B5
:10077000FE040404FE8080FC02020282827C7C82F1
:100780008080FC828282827C7E820204081020208B
:1007900020207C8282827C828282827C7C82828215
:1007A000827E0202827C407E887E4848FE080808DD
:1007B0007E42427E42427E4246827E92BA92BA8215
:1007C000BAAABA86087E547E5C405C544896000003
:1007D0000000FE00000000000000007E000000FF9E
:1007E0000000007E0000003C000000FFFFA9A9A956
:1007F000A9A9C781FF817E1010107C14141414FF66
:10080000301808FF0024246666C27F4141417F41C1
:100810004141417F00000000000000001818000066
:100820000000000000000000FE828282828282823C
:1008300082FE10101010101010101010FE02020294
:1008400002FE808080FEFE02020202FE020202FE22
:100850008282828282FE02020202FE80808080FE0C
:10086000020202FEFE80808080FE828282FEFE0204
:100870000202020202020202FE82828282FE828260
:1008800082FEFE82828282FE020202FE80FE887E5C
:100890004848FE0808087E42427E42427E42424666
:1008A000FE92BA92BA82BAAABA86DFD0101010109D
:1008B0001010101F00000000FE0000000000007C6F
:1008C00000000000000000FEFE0000007C000000B0
:1008D00000FEFEAAAAAAAAEE828282FEFE202020A4
:1008E000FC24242424FE201010FE444444444444A8
:1008F0007E4242427E424242427E000000000000B0
:1009000000001818000000000000000000007C82B9
:10091000828282828282827C1030501010101010ED
:1009200010FE7C820202027C808080FE7C820202B9
:10093000027C0202827C8888888888FE0808080871
:10094000FE80808080FC0202827C8080808080FC2F
:100950008282827CFE0202020202020202027C8287
:100960008282827C8282827C7C828282827E02027D
:100970000202407E887E4848FE0808087E42427E89
:1009800042427E4246827E92BA92BA82BAAABA861F
:10099000BC42404040404040423C00000000FE005D
:1009A000000000000000007E000000FF0000007E4C
:1009B0000000003C000000FFFFA9A9A9A9A9C78168
:1009C000FF817E1010107C14141414FF2010FE0000
:1009D0004444444444827E4242427E424242427EF9
:1009E00000000000000000001818000000000000D7
:1009F00000000000084049402A400884FFFE190812
:100A00002C884A881088FE90225022201450188882
:100A1000250E4204020001003FFC200440081FE0B4
:100A2000004000800104FFFE010001000100010000
:100A300005000200000804087E08440847FE440838
:100A400044087C8844484448440844087C08444896
:100A5000002800101020102010201C2421FE21242A
:100A60007D2491241124FDFC112410201420182031
:100A70001020002000047FFE44084808482851F850
:100A80004928492845284528452869E8512840082B
:100A900040284010020002000208FFFC0400090088
:100AA00011083FFC51089108110811081128111074
:100AB000010001000200020002107FF84210421003
:100AC0007FF0421042107FF0421002000204020444
:100AD00001FC000000003FF00010002000400180F9
:100AE0000104FFFE010001000100010001000100FE
:100AF0000500020001F02110111011100110020E6A
:100B0000F40013F811081110109010A0144018B040
:100B1000130E0C043FF824483FF801007FFC01004D
:100B20001FF010101FF010101FF010101FF0101405
:100B3000FFFE00000040404437FE104007FC044424
:100B4000F44417FC144410E011581248144028468D
:100B500047FC0000010000843FFE222022283FFCC9
:100B6000222023E020002FF022202140208043601B
:100B70008C1E300401087FFC00101FF810101010AC
:100B80001FF000007FFE40228FF40820082008227A
:100B90001022601E000804087E08440847FE44082E
:100BA00044087C8844484448440844087C08444835
:100BB0000028001020041BFE080440244FF44824A1
:100BC000482448244FE44824482448244FE4482437
:100BD00040144008080008081FFC110021004110C3
:100BE0001FF8110011001104FFFE010001000100B7
:100BF0000100010000100FF80810081008100FF095
:100C00000810081008100FF008100810101010102D
:100C10002050402000101FF810101010101010105D
:100C200010101FF0101010101010101010101FF0E6
:100C300010100000008004800440084008201010BC
:100C400020084FEE842404200420042004200820DF
:100C50001140208004200E207820082008A8FEA63D
:100C600008A21D201A24282428284810882008407B
:100C700008800B0008200920092011101210320EE4
:100C800054049BF0111011101110111012101210B9
:100C900014A0104000083FFC20083FF820083FF84F
:100CA000010021083FFC21004110BFF801000104B0
:100CB000FFFE00002204227E22447F4422443E7C28
:100CC00022443E442244227CFFC400442444228423
:100CD0004114820800083FFC210821482FE8210820
:100CE00021283FF8204827E824482448244847C8BA
:100CF000842800100100020004101FF810101010CA
:100D00001FF01010101010101FF010101010101005
:100D10001FF01010001000F87F00010001103FF8D4
:100D2000010001000104FFFE0100010001000100BB
:100D300005000200004008407C40004405FEFE44DF
:100D400010441044204424444284FE84410401049D
:100D500002280410020001003FFC200440081FE0AC
:100D6000004000800104FFFE0100010001000100BD
:100D70000500020010801080108020882FFC62A0E7
:100D8000A2A02490249028882BEE308420802080FC
:100D90002080208010401020100413FEFC001088DA
:100DA00031063A8A548850509050102010501088C4
:100DB000130E1C04100010001004127EFF44124495
:100DC00012441244124422442244224422444A7CC3
:100DD0008444000000104018301417FE0410041062
:100DE0000DD0141425D4E5542554255825D0252A92
:100DF00008461082100010081FFC20105FF8121027
:100E000011101014FFFE1210211020103FF80020C6
:100E100000A00040100409FE7F20224414FE7F84BD
:100E200044944894529444A448A452A444A44848E6
:100E3000908621020400040007F0082008481FFCE7
:100E40002888488808880FF808080800080208025F
:100E500007FE00001010082004483FFC210821086C
:100E60003FF8210821083FF821000104FFFE01009E
:100E7000010001001000100823FC20204420F8206D
:100E8000102020204020FC20402000201C20E024B6
:100E900047FE0000100813FC200821F84408FFFE5C
:100EA00010402244414CF95000E001501A48E44EF1
:100EB00041440080044004503FF804400444FFFED5
:100EC00001101FF811101FF011101FF01000046026
:100ED00018186004020001043FFE200020702F80DB
:100EE000288028882FFC2880288028404A404DA44C
:100EF0008894000C00084FFC2100211007F8021014
:100F0000E2143FFE2000200827FC24082C083408A7
:100F100027F80408020001103FF8082004200444C8
:100F2000FFFE00101FF8101010101FF0101010100E
:100F30001FF01010100811FC11081108FD281110E5
:100F4000150019F83108D190115011201150118E4F
:100F50005104210000087FFC010001000100010094
:100F6000111011F8110011001100110011001104ED
:100F7000FFFE00000100111009207FFE40028FE4F7
:100F800008200FE001101FF811101110111011505E
:100F9000012001001000100010041FFE24444444EE
:100FA0008444084408840884108411042104420401
:100FB000042808101040105010481040FC4413FE44
:100FC0001440186030A0D0A010A010A0112211224F
:100FD000521E240010100818042004487FFC010051
:100FE00001000104FFFE010002800280044008307D
:100FF000300EC00420041BFE0804408440A45FF4AB
:10100000408441844284448448845084408442849F
:101010004114400811241FBECFE5D4E0DEBFCDBF90
:1010200010E0A0E6B0E0EEE3FBE302C005900D9215
:10103000A438B107D9F712E0A4E8B0E001C01D92CE
:10104000A83BB107E1F70E946D1C0C949D1D0C9408
:10105000000006C020E000002F5F2930E1F7019773
:101060000097C1F70895CF93DF93EC0105C080E1AD
:1010700097E20E94290821972097C9F7DF91CF9125
:1010800008958FB780939000F8948F9A97988CE387
:1010900090E00E942908979A8F9885E090E00E943E
:1010A000290880B382E390E00E9429088091900093
:1010B00087FF01C0789408950F931F938FB7809393
:1010C0009000F89408E010E016958F9A979881E0C8
:1010D00090E00E942908979A8F9881E090E00E9402
:1010E00029088799106883E090E00E942908015040
:1010F00059F78091900087FF01C07894812F1F914C
:101100000F9108950F931F93082F8FB7809390002E
:10111000F89418E08F9A979881E090E00E9429084F
:1011200000FD979A84E090E00E942908979A115058
:1011300011F00695EFCF8091900087FF01C0789461
:101140001F910F9108950E9441088CEC0E94820823
:1011500084E40E94820808951F930E9441088CEC49
:101160000E9482088EEB0E9482080E945C08182F61
:101170000E945C08382F20E0E12FF0E0E22BF32BF7
:10118000CF018070907F8050904F11F040E004C0FC
:10119000F095E195FF4F41E0CF01880F991F9F0126
:1011A00053E0220F331F5A95E1F7820F931F24E07B
:1011B000969587952A95E1F768EE73E00E94301DB9
:1011C0009C01413021F48EE080936F0006C064E6FC
:1011D00070E00E94301D60936F00C90164E670E00A
:1011E0000E94301D6AE070E00E94301D6093700024
:1011F000EF70F07081E792E09C01E29FC001E39FF5
:10120000900DF29F900D112468EE73E00E94301D46
:10121000609371001F910895BB9AB89AB99ABA9ACF
:10122000BC9A8C9A8D9AD19AD29AD39AD49A8A9A45
:101230008B9A10929B0210929A0210929F02109227
:101240008F0010928E0008958823D9F18091B50007
:10125000806C8093B5008091BD00806C8093BD0050
:101260008091C500806C8093C5008091B40081603E
:101270008093B4008091BC0081608093BC00809119
:10128000C40081608093C4008091FD00806C8093D5
:10129000FD0080910501806C8093050180910D0116
:1012A000806C80930D018091FC0081608093FC0034
:1012B0008091040181608093040180910C01816020
:1012C0003AC08091B5008F738093B5008091BD00C6
:1012D0008F738093BD008091C5008F738093C5008C
:1012E0008091B4008E7F8093B4008091BC008E7F8B
:1012F0008093BC008091C4008E7F8093C400809155
:10130000FD008F738093FD00809105018F738093A2
:10131000050180910D018F7380930D018091FC0078
:101320008E7F8093FC00809104018E7F8093040166
:1013300080910C018E7F80930C010895242F30E062
:10134000F5E0220F331FFA95E1F72C50364F70E08D
:10135000E3E0660F771FEA95E1F790E0DB01A80F65
:10136000B91FAF56BF4F680F791F6F5E7E4FF901EF
:1013700084918C932F5F3F4FF901849111968C9348
:1013800011972F5F3F4F1896A617B70781F708955B
:101390009AE0499F900111242A583A4F70E0A3E047
:1013A000660F771FAA95E1F790E0DB01A80FB91F40
:1013B000AF56BF4F680F791F6F517F4FF90184916E
:1013C0008C932F5F3F4F1896A617B707B9F708956C
:1013D000282F80917B00882309F58AE0489FA0018F
:1013E00011244E5B584F862F90E073E0880F991FB1
:1013F0007A95E1F730E0DC01A20FB31FAF56BF4F83
:10140000280F391F2F573E4FFA0184918C934F5F5D
:101410005F4F5896A217B307B9F7089570E030E010
:101420008130F9F48AE0489FA0011124485D574FAC
:10143000CB0163E0880F991F6A95E1F7DC01A20FE9
:10144000B31FAF56BF4F280F391F2F573E4FFA011A
:1014500084918C934F5F5F4F5896A217B307B9F7EB
:1014600008958AE0489FA0011124425F564FCB01A6
:10147000B3E0880F991FBA95E1F7DC01A20FB31F03
:10148000AF56BF4F280F391F2F573E4FFA01849197
:101490008C934F5F5F4F5896A217B307B9F7089523
:1014A000CF93DF93982F80917B008823B1F58AE258
:1014B000489FF0011124E657FF4F892F90E0DC018F
:1014C000AF56BF4F70E048E050E0461B570BEC01B1
:1014D000C75CDE4F249130E0C901062E02C095950D
:1014E00087950A94E2F78C933196849190E0062ECA
:1014F00002C0959587950A94E2F7042E02C0220F48
:10150000331F0A94E2F7822B11968C931197319630
:101510001896AC17BD07F1F66BC0292F30E081306B
:10152000A1F58AE2489FF0011124E25DFD4FD90147
:10153000AF56BF4F70E048E050E0461B570BE90143
:10154000C75CDE4F249130E0C901062E02C095959C
:1015500087950A94E2F78C933196849190E0062E59
:1015600002C0959587950A94E2F7042E02C0220FD7
:10157000331F0A94E2F7822B11968C9311973196C0
:101580001896AC17BD07F1F633C08AE2489FF00108
:101590001124EE52FC4FD901AF56BF4F70E048E026
:1015A00050E0461B570BE901C75CDE4F249130E049
:1015B000C901062E02C0959587950A94E2F78C938F
:1015C0003196849190E0062E02C0959587950A94F5
:1015D000E2F7042E02C0220F331F0A94E2F7822B97
:1015E00011968C93119731961896AC17BD07F1F6AA
:1015F000DF91CF91089580917B00882309F5909128
:101600006C008AE0989FF0011124EE5BF84FA6E889
:10161000B2E084918D93319682E0A039B807C9F782
:1016200090916D008AE0989FF0011124EE5BF84FD5
:1016300084918D93319682E0AA39B807C9F708954D
:10164000813009F590916C008AE0989FF001112497
:10165000E85DF74FA6E8B2E084918D93319682E081
:10166000A039B807C9F790916D008AE0989FF00102
:101670001124E85DF74F84918D93319682E0AA3969
:10168000B807C9F7089590916C008AE0989FF0011F
:101690001124E25FF64FA6E8B2E084918D93319673
:1016A00082E0A039B807C9F790916D008AE0989F51
:1016B000F0011124E25FF64F84918D93319682E020
:1016C000AA39B807C9F708951F93CF93DF934091C4
:1016D0008E0050918F004F5F5F4F50938F0040936B
:1016E0008E002091740089E090E0821B91099C019A
:1016F00073E0220F331F7A95E1F7880F991F280FA7
:10170000391F2417350768F410928F0010928E004D
:1017100080919F028F5F80939F02813C10F0109216
:101720009F02929880919B02863008F456C0809167
:101730007500882309F051C090919F0230919B025F
:1017400010919B02292F26952695269588E1389F92
:10175000F0011124E20FF11DEF54FF4FA6E8B0E0B5
:101760009770692F70E048E050E0461B570B2181CD
:1017700030E0042E02C0359527950A94E2F7819156
:1017800090E0062E02C0880F991F0A94E2F7282BDA
:101790002D9380E0AC38B80751F7C12FD0E013E0AB
:1017A000CC0FDD1F1A95E1F7CF56DF4FFD01829177
:1017B0008E7F8083E0919B02F0E0E058FD4F8081B6
:1017C0008C93E0919B02F0E0EA57FD4F84811196E3
:1017D0008C931197FD01369716C080919B02C82FFC
:1017E000D0E0B3E0CC0FDD1FBA95E1F7CF56DF4F65
:1017F00080919B02E82FF0E0A3E0EE0FFF1FAA9577
:10180000E1F7EF5EFE4F80917A00882389F550E082
:1018100026C094989598D998DA98DB98DC98422F4E
:10182000CD01022E02C0959587950A94E2F780FDBE
:10183000949ACB0102C0959587954A95E2F780FD71
:10184000959A9398939A215030408FEF2F3F380705
:1018500001F75F5F583009F46AC521963196888197
:10186000A82FB0E08081682F70E027E030E0D1CF72
:10187000813089F550E026C094989598D998DA98E7
:10188000DB98DC98422FCD01022E02C095958795FA
:101890000A94E2F780FDD99ACB0102C0959587950D
:1018A0004A95E2F780FDDA9A9398939A2150304056
:1018B0008FEF2F3F380701F75F5F583009F437C5C6
:1018C000219631968881A82FB0E08081682F70E042
:1018D00027E030E0D1CF8230A9F550E02AC09498BB
:1018E0009598D998DA98DB98DC98422FCD01022E92
:1018F00002C0959587950A94E2F780FF02C0949AFA
:10190000D99ACB0102C0959587954A95E2F780FF59
:1019100002C0959ADA9A9398939A215030408FEFAB
:101920002F3F3807E1F65F5F583009F400C5219674
:1019300031968881A82FB0E08081682F70E027E081
:1019400030E0CDCF833089F550E026C0949895984B
:10195000D998DA98DB98DC98422FCD01022E02C08C
:10196000959587950A94E2F780FDDB9ACB0102C03A
:10197000959587954A95E2F780FDDC9A9398939A1E
:10198000215030408FEF2F3F380701F75F5F58300D
:1019900009F4CDC4219631968881A82FB0E08081CA
:1019A000682F70E027E030E0D1CF8430A9F550E017
:1019B0002AC094989598D998DA98DB98DC98422FA9
:1019C000CD01022E02C0959587950A94E2F780FF1B
:1019D00002C0D99ADB9ACB0102C0959587954A95AA
:1019E000E2F780FF02C0DA9ADC9A9398939A21502A
:1019F00030408FEF2F3F3807E1F65F5F583009F432
:101A000096C4219631968881A82FB0E08081682FF6
:101A100070E027E030E0CDCF8530A9F550E02AC056
:101A200094989598D998DA98DB98DC98422FCD0154
:101A3000022E02C0959587950A94E2F780FF02C0B6
:101A4000949ADB9ACB0102C0959587954A95E2F767
:101A500080FF02C0959ADC9A9398939A2150304067
:101A60008FEF2F3F3807E1F65F5F583009F45FC40E
:101A7000219631968881A82FB0E08081682F70E090
:101A800027E030E0CDCF8630B9F550E02CC09498F7
:101A90009598D998DA98DB98DC98422FCD01022EE0
:101AA00002C0959587950A94E2F780FF03C0949A47
:101AB000D99ADB9ACB0102C0959587954A95E2F7B2
:101AC00080FF03C0959ADA9ADC9A9398939A2150F2
:101AD00030408FEF2F3F3807D1F65F5F583009F461
:101AE00026C4219631968881A82FB0E08081682F86
:101AF00070E027E030E0CBCF873009F052C050E0F3
:101B00004AC094989598D998DA98DB98DC98422F37
:101B1000CB01022E02C0959587950A94E2F780FDCD
:101B2000949A80919B02863060F0563050F4808108
:101B300090E002C0959587954A95E2F780FF1CC01A
:101B400010C080919B02863070F0563060F080812A
:101B500090E002C0959587954A95E2F780FF0CC00A
:101B6000959ADA9A09C0808190E002C09595879590
:101B70004A95E2F780FD959A9398939A21503040C8
:101B80008FEF2F3F380709F0BCCF5F5F583009F463
:101B9000CEC3219631968881682F70E027E030E02F
:101BA000B0CF883009F052C050E04AC09498959860
:101BB000D998DA98DB98DC98422FCB01022E02C02C
:101BC000959587950A94E2F780FD949A80919B02FF
:101BD000863068F0563058F4808190E002C09595C8
:101BE00087954A95E2F780FF1CC0DA9A1AC0809167
:101BF0009B02863068F0563058F0808190E002C039
:101C0000959587954A95E2F780FF0BC0DC9A09C04D
:101C1000808190E002C0959587954A95E2F780FD16
:101C2000959A9398939A215030408FEF2F3F380721
:101C300009F0BCCF5F5F583009F479C32196319623
:101C40008881682F70E027E030E0B0CF893009F05C
:101C500053C050E04BC094989598D998DA98DB9887
:101C6000DC98422FCB01022E02C0959587950A94ED
:101C7000E2F780FDD99A80919B02863068F0563059
:101C800058F4808190E002C0959587954A95E2F7D7
:101C900080FF1DC0DC9A1BC080919B02863070F0D3
:101CA000563060F0808190E002C0959587954A9506
:101CB000E2F780FF0CC0DC9A959A09C0808190E021
:101CC00002C0959587954A95E2F780FDDA9A939838
:101CD000939A215030408FEF2F3F380709F0BBCF48
:101CE0005F5F583009F423C3219631968881682FAD
:101CF00070E027E030E0AFCF8A3009F052C050E00A
:101D00004AC094989598D998DA98DB98DC98422F35
:101D1000CB01022E02C0959587950A94E2F780FDCB
:101D2000D99A80919B02863068F0563058F48081B1
:101D300090E002C0959587954A95E2F780FF1CC018
:101D4000DC9A1AC080919B02863068F0563058F0B9
:101D5000808190E002C0959587954A95E2F780FFD3
:101D60000BC0959A08C0808190E002C09595879538
:101D70004A95E2F780FDDA9A9398939A2150304081
:101D80008FEF2F3F380709F0BCCF5F5F583009F461
:101D9000CEC2219631968881682F70E027E030E02E
:101DA000B0CF8B3009F054C030E04CC09498959877
:101DB000D998DA98DB98DC98242FCB01042E02C046
:101DC000959587950A94E2F780FDDB9A80919B02B6
:101DD000863070F0363060F4808190E002C09595D6
:101DE00087952A95E2F780FF1EC0DC9A959A1BC062
:101DF00080919B02863070F0363060F0808190E0F8
:101E000002C0959587952A95E2F780FF0CC0959AB8
:101E1000DA9A09C0808190E002C0959587952A954D
:101E2000E2F780FDDC9A9398939A415050408FEFEF
:101E30004F3F580709F0BACF3F5F383009F477C2F7
:101E4000219631968881682F70E047E050E0AECF50
:101E50008C3009F054C030E04CC094989598D998D3
:101E6000DA98DB98DC98242FCB01042E02C09595DC
:101E700087950A94E2F780FDDB9A80919B02863079
:101E800070F0363060F4808190E002C095958795BF
:101E90002A95E2F780FF1EC0DC9A959A1BC08091BC
:101EA0009B02863070F0363060F0808190E002C096
:101EB000959587952A95E2F780FF0CC0DC9ADA9A0F
:101EC00009C0808190E002C0959587952A95E2F738
:101ED00080FDDC9A9398939A415050408FEF4F3F8A
:101EE000580709F0BACF3F5F383009F420C2219675
:101EF00031968881682F70E047E050E0AECF8D309A
:101F000009F057C030E04FC094989598D998DA9866
:101F1000DB98DC98242FCB01042E02C09595879581
:101F20000A94E2F780FF02C0DB9A949A80919B02A8
:101F3000863068F0363058F4808190E002C0959584
:101F400087952A95E2F780FF1FC0959A10C080916F
:101F50009B02863070F0363060F0808190E002C0E5
:101F6000959587952A95E2F780FF0EC0DC9ADA9A5C
:101F70000BC0808190E002C0959587952A95E2F785
:101F800080FF02C0DC9A959A9398939A41505040F2
:101F90008FEF4F3F580709F0B7CF3F5F383009F454
:101FA000C6C1219631968881682F70E047E050E0E5
:101FB000ABCF8E3009F058C030E050C0949895985F
:101FC000D998DA98DB98DC98242FCB01042E02C034
:101FD000959587950A94E2F780FF02C0DB9A949A60
:101FE00080919B02863068F0363058F4808190E012
:101FF00002C0959587952A95E2F780FF20C0DC9A6C
:102000001EC080919B02863078F0363068F0808167
:1020100090E002C0959587952A95E2F780FF0FC062
:10202000DC9A959ADA9A0BC0808190E002C095956F
:1020300087952A95E2F780FF02C0DC9A959A9398DB
:10204000939A415050408FEF4F3F580709F0B6CF59
:102050003F5F383009F46BC1219631968881682F33
:1020600070E047E050E0AACF8F3009F056C030E072
:102070004EC094989598D998DA98DB98DC98242FDC
:10208000CB01042E02C0959587950A94E2F780FF54
:1020900002C0949AD99A80919B02863068F03630BB
:1020A00058F4808190E002C0959587952A95E2F7D3
:1020B00080FF1EC0DC9A1BC080919B02863068F0B6
:1020C000363058F0808190E002C0959587952A952A
:1020D000E2F780FF0DC0DC9A09C0808190E002C069
:1020E000959587952A95E2F780FF02C0959ADA9A2E
:1020F0009398939A415050408FEF4F3F580709F003
:10210000B8CF3F5F383009F412C1219631968881EB
:10211000682F70E047E050E0ACCF803109F055C047
:1021200050E04DC094989598D998DA98DB98DC984F
:10213000422FCB01022E02C0959587950A94E2F7B3
:1021400080FF02C0949AD99A80919B02863068F0F1
:10215000563058F4808190E002C0959587954A9555
:10216000E2F780FF1DC0959A1BC080919B028630CC
:1021700060F0563050F0808190E002C095958795D0
:102180004A95E2F780FF0CC00AC0808190E002C04F
:10219000959587954A95E2F780FF02C0959ADA9A5D
:1021A0009398939A215030408FEF2F3F380709F0D2
:1021B000B9CF5F5F583009F4BAC021963196888153
:1021C000682F70E027E030E0ADCF813109F058C0D2
:1021D00030E050C094989598D998DA98DB98DC98BC
:1021E000242FCB01042E02C0959587950A94E2F71F
:1021F00080FF02C0DB9AD99A80919B02863070F0F2
:10220000363060F4808190E002C0959587952A95DC
:10221000E2F780FF20C0DC9A959A1CC080919B0257
:10222000863070F0363060F0808190E002C0959585
:1022300087952A95E2F780FF0EC0DC9A959A0BC02D
:10224000808190E002C0959587952A95E2F780FFFE
:1022500002C0DC9ADA9A9398939A415050408FEFDB
:102260004F3F580709F0B6CF3F5F383009F45FC0E1
:10227000219631968881682F70E047E050E0AACF20
:10228000823109F054C050E04CC094989598D99888
:10229000DA98DB98DC98422FCB01022E02C095958C
:1022A00087950A94E2F780FF02C0DB9AD99A809161
:1022B0009B02863068F0563058F4808190E002C06E
:1022C000959587954A95E2F780FF1DC0DC9A1BC063
:1022D00080919B02863060F0563050F0808190E013
:1022E00002C0959587954A95E2F780FF0CC00AC019
:1022F000808190E002C0959587954A95E2F780FF2E
:1023000002C0DC9ADA9A9398939A215030408FEF6A
:102310002F3F380709F0B9CF5F5F583041F0219661
:1023200031968881682F70E027E030E0AECF929A36
:1023300080919B02E82FF0E0E031F10590F5E65D39
:10234000FF4F0C947B1DC49812C0C49813C0C4984E
:10235000C298C19AC09827C0C49811C0C49812C02E
:10236000C49814C0C49816C0C49817C0C49AC29820
:102370000AC0C49AC2980BC0C49AEACFC49AC29841
:102380000DC0C49AC29AC198E5CFC49AC29AC198A6
:1023900006C0C49AC29ADDCFC49AC29AC19AC09AA2
:1023A00002C010929B0280919B028F5F80939B02E0
:1023B00080919B02803111F410929B02DF91CF91AA
:1023C0001F91089516BE84E680B911B812B884E052
:1023D00086BF089584EA86BF06B607FEFDCF08953E
:1023E00083B984E886BF06B607FEFDCF000081B141
:1023F000887F089584EC86BF06B607FEFDCF83B1C3
:10240000089584E986BF0895FC0102C011926150CD
:102410006623E1F70895282F84EA86BF06B607FEF3
:10242000FDCF990F9E5593B984E886BF06B607FE87
:10243000FDCF000081B1887F883189F423B984E819
:1024400086BF06B607FEFDCF000081B163B984E800
:1024500086BF06B607FEFDCF000081B103C081E054
:102460008093AA0284E986BF0895282FFB0184EA9D
:1024700086BF06B607FEFDCF990F9E5593B984E837
:1024800086BF06B607FEFDCF000081B1887F883188
:10249000C1F423B984E886BF06B607FEFDCF00006D
:1024A00081B194E80BC0808183B996BF06B607FE60
:1024B000FDCF000081B1319600004150442399F7CF
:1024C00003C081E08093AA0284E986BF0895282F83
:1024D000FB01990F84EA86BF06B607FEFDCF9E5525
:1024E00093B9925A84E886BF06B607FEFDCF000076
:1024F00081B1887F883149F423B984E886BF06B664
:1025000007FEFDCF000081B103C081E08093AA02E5
:1025100084EA86BF06B607FEFDCF9D5593B984E8D1
:1025200086BF06B607FEFDCF000081B1887F8831E7
:1025300049F423B984E886BF06B607FEFDCF000044
:1025400081B10CC081E08093AA0208C096BF06B694
:1025500007FEFDCF83B18193415001C094EC442329
:10256000A9F70895E0EBF2E0119282E0E83BF8076A
:10257000D9F7E0EAF2E0119282E0E83AF807D9F7F9
:1025800080E090E060E20E940B1280E090E060E06A
:102590000E940B12089582E090E06DE770E047E042
:1025A0000E94671280917D00982F9F7790937D0005
:1025B00020917E00422F4F7740937E0050917F0004
:1025C000752F7F7370937F00E0918000AE2FAF7303
:1025D000A0938000F0918100F770F093810030911A
:1025E0008200632F6F71609382008F7080936D0003
:1025F00092959F7090936C002F7020936B00429582
:102600004F7040936A005F705093690072957F70BD
:1026100070936800EF70E0936700A295AF70A0938D
:1026200066003F703093650062956F706093640040
:1026300080918300982F9F709093630082958F7094
:1026400080936200FF5FF0936E000895A7E0B0E012
:10265000ECE2F3E10C94541D60916A006295607F96
:1026600080916B00682B509168005295507F80914B
:102670006900582B409166004295407F8091670029
:10268000482B70916E007150309164003295307F0C
:1026900080916500382B209162002295207F8091E7
:1026A0006300282B80916C008295807F90916D0053
:1026B000892B89836A835B834C837D833E832F834D
:1026C00082E090E0BE016F5F7F4F47E00E943512CD
:1026D0002796E2E00C94701D1F938091660088237A
:1026E00009F04EC010916700113009F049C0809187
:1026F0006800882309F044C080916900833009F0A4
:102700003FC080916A008330B9F580916B008823C7
:10271000B9F580917600882379F08091790088233B
:1027200079F520917800225E809177003AE0839FCE
:10273000C0011124280F10C080917900882301F571
:102740003EE180917800381B2091770086EF9FEF63
:10275000289F202D1124230F822F6AE00E94241D20
:1027600080936A00822F0E94241D90936B000E9428
:1027700026131093790004C0853011F4109279006B
:102780001F910895AA9AA298A39AA49A0895909145
:10279000AF029B3009F432C19C3058F5953009F4F2
:1027A000AAC0963098F4923009F458C0933038F4A7
:1027B000992309F449C0913009F0E5C148C093302C
:1027C00009F45DC0943009F0DEC182C0983009F48C
:1027D000CBC0993038F4963009F4A0C0973009F096
:1027E000D2C1B3C0993009F4DAC09A3009F0CBC134
:1027F000F2C0913109F489C1923198F49E3009F404
:1028000037C19F3038F49C3009F40FC19D3009F076
:10281000BAC11AC19F3009F446C1903109F0B3C161
:1028200057C1943109F49EC1953138F4923109F4BD
:102830007AC1933109F0A7C186C1943609F498C1D1
:10284000953609F0A0C197C11092AB02089589E1B5
:102850008093850290939C0282E00EC080919C023E
:10286000882309F090C19A9B8EC186E180938502EE
:1028700081E080939C0283E08093AF020895809171
:102880009C02882309F07FC19A9B7DC180916800DA
:102890002AE0829FC001112490916900980F97301F
:1028A000A8F0892F8750863010F48CE10AC0892F58
:1028B0008D50863010F48DE104C09351953030F482
:1028C0008EE18093850281E080939C0284E0D4CFE6
:1028D00080919C02882309F056C19A9B54C1809133
:1028E0006800823030F08F5F8093850281E08093B2
:1028F0009C0285E0C1CF80919C02882309F043C1EE
:102900009A9B41C180916800882331F08BE08093CD
:10291000850281E080939C0286E0AECF80919C028C
:10292000882309F030C19A9B2EC1909169009923A8
:1029300021F480916800882331F49F5F9093850291
:1029400081E080939C0287E097CF80919C0288234E
:1029500009F019C19A9B17C18DE08093850281E02F
:1029600080939C0288E088CF80919C02882309F0A4
:102970000AC19A9B08C180916A00882331F4809132
:102980006B00882351F48AE103C0823030F08F5FFE
:102990008093850281E080939C0289E06DCF8091D5
:1029A0009C02882309F0EFC09A9BEDC080916A00D9
:1029B000882329F480916B00882331F40AC08BE0CE
:1029C0008093850281E003C081E08093850280933B
:1029D0009C028AE051CF80919C02882309F0D3C0E9
:1029E0009A9BD1C080916B00882331F08F5F8093D8
:1029F000850281E080939C028BE03ECF80919C0217
:102A0000882309F0C0C09A9BBEC080916A008823C9
:102A100021F480916B00882331F08EE08093850251
:102A200081E080939C028CE027CF80919C028823D8
:102A300009F0A9C09A9BA7C088EE93E09093A902E1
:102A40008093A8028DE018CF8091A8029091A902EE
:102A500001979093A9028093A802892B09F093C053
:102A600087E18093850281E080939C028EE004CF11
:102A700080919C02882309F086C09A9B84C0909123
:102A80006F00892F8250883020F49F5F90938502D9
:102A900005C09B3030F08FE18093850281E0809308
:102AA0009C028FE0E9CE80919C02882309F06BC0E4
:102AB0009A9B69C080916F00882341F08E3031F07D
:102AC0008BE08093850281E080939C0280E1D4CEEC
:102AD00080919C02882309F056C09A9B54C0809133
:102AE0007000882329F08F5F8093850281E009C000
:102AF00080916F00882311F08E3029F481E080935B
:102B0000850280939C0281E1B7CE80919C0288234C
:102B1000D1F59A9B38C08DE08093850281E0809347
:102B20009C0282E1A9CE80919C02882361F59A9B48
:102B30002AC0809171008F5F8093850281E080932D
:102B40009C0283E199CE80919C028823E1F49A9BB8
:102B50001AC094E19093850281E080939C02909347
:102B6000AF02089580919C02882369F49A9B0BC060
:102B70001092AF02089580919C02882321F49A9BC1
:102B800002C01092AF02089580919C02823011F130
:102B9000833030F4882361F0813009F049C00EC0E1
:102BA000843089F1843010F1853009F041C037C09C
:102BB00082E08093AC02AC98AB980895AC98AB9A45
:102BC0008091AC0281508093AC02882389F5AB9848
:102BD00082E022C080918502882329F081E08093E1
:102BE000AC0283E019C010929C020895AC988091C9
:102BF000AC0281508093AC028823D1F481E08093B1
:102C0000AC0284E009C0AC9A8091AC028150809300
:102C1000AC02882369F485E080939C020895AC9807
:102C20008091850281508093850282E080939C028E
:102C30000895AE9AA698AF9AA798909A8898919A74
:102C400089980895A0E0B0E0E8E2F6E10C944E1D0A
:102C5000D82EC62EEA0179019E9927C080E29EE413
:102C60000197F1F79E991FC084E68093AF021092FE
:102C70009E0210929D02F90130813F5F88812AE017
:102C8000829FC0011124380FD31608F4362F832FEA
:102C90006AE00E94241D8883832F0E94241DF7016F
:102CA0009083F80109959E9BFECF9F9929C080E2F1
:102CB0009EE40197F1F79F9921C084E68093AF02CB
:102CC00010929E0210929D02F7013081315088814E
:102CD0002AE0829FC0011124380FD31610F03C1552
:102CE00008F43D2D832F6AE00E94241D8883832FE2
:102CF0000E94241DF7019083F80109959F9BFECF48
:102D0000CDB7DEB7E8E00C946A1D16B880E487B949
:102D100087ED86B9089524B145B1942F80E030E065
:102D2000822B932B9695879583976CE370E00E9496
:102D3000301D98E0892F861B80937300893018F02E
:102D40009093730005C0882319F481E08093730089
:102D50008091730029E1829FC001112489518CBFA9
:102D6000089513BE12BE89E783BF80917200893037
:102D700040F48091730029E1829FC00111248951A0
:102D800001C084E68CBF089515BC12BC83E884BDE5
:102D900082E883BD89B7806489BF84E085BD0895DA
:102DA0001F920F920FB60F9211242F933F934F93C0
:102DB0005F936F937F938F939F93AF93BF93EF93A3
:102DC000FF930E94C4150E94C71380917500882349
:102DD00009F03FC08091AF028823D9F5809183022A
:102DE000909184020196909384028093830282538F
:102DF000984C11F40E94A308809183029091840260
:102E000081569A4E30F00E94AC08109284021092C3
:102E10008302809172008823E1F480918102909175
:102E20008202019690938202809381022EE2803E7C
:102E3000920731F416B880E487B987ED86B909C0E6
:102E40008D50904330F00E948B16109282021092A7
:102E5000810280919D0290919E02019690939E0224
:102E600080939D028091AD029091AE020196909365
:102E7000AE028093AD0283E884BDFF91EF91BF91D4
:102E8000AF919F918F917F916F915F914F913F9102
:102E90002F910F900FBE0F901F901895D79A0895FD
:102EA00081E990E06FEF70E040E051E00E94811D09
:102EB000089580E091E0E1E9F0E0DF019C011D92DE
:102EC00021503040E1F70895F89415BE1BBE0E94D2
:102ED0000C090E9419160E94C2130E94B1160E948A
:102EE000C4160E94B212D79A1092840210928302E2
:102EF000109282021092810210929E0210929D0204
:102F00000E94410880E091E0E1E9F0E0DF019C01EE
:102F10001D9221503040E1F778940895CF93DF93CC
:102F20008CE18093750080E060E040E00E949E09A3
:102F300082E060E041E00E949E0984E060E042E0BF
:102F40000E949E0986E060E043E00E949E0980E0C6
:102F500060E144E00E949E0982E060E145E00E9459
:102F60009E0984E060E146E00E949E0986E060E1FF
:102F700047E00E949E09C0E0D0E00E94640B8AE016
:102F800090E00E942908219623E1C838D207A9F7CA
:102F900080E091E0E1E9F0E0DF019C011D92215029
:102FA0003040E1F710927500DF91CF91089580E0F5
:102FB00091E0E1E9F0E0DF019C011D9221503040F9
:102FC000E1F780E060E0409168000E94500A82E0F2
:102FD00060E0409169000E94500A84E063E0409103
:102FE0006A000E94500A86E063E040916B000E94F4
:102FF000500A80E067E1409160000E94E80981E0AA
:1030000067E1409161000E94E80982E067E1409138
:1030100062000E94E80983E067E1409163000E943A
:10302000E80984E067E14AE00E94E80985E067E199
:10303000409164000E94E80986E067E140916500E4
:103040000E94E80987E067E14BE00E94E80980E020
:1030500068E1409166000E94E80981E068E14091E2
:1030600067000E94E80982E068E144E10E94E80903
:1030700084E068E14CE00E94E80940916E00435F03
:1030800085E068E10E94E80987E068E140916F000F
:103090000E94E80980E069E1409170000E94E8091F
:1030A00081E069E145E10E94E80982E069E140913F
:1030B00071000E94E80983E069E14DE00E94E8099F
:1030C000089580E091E0E1E9F0E0DF019C011D92CC
:1030D00021503040E1F780E060E04DE10E949E0920
:1030E00080E060E14DE00E949E0986E066E14AE1F1
:1030F0000E94C80987E066E14BE00E94C809809100
:103100007600882321F082E066E14BE103C082E093
:1031100066E141E20E94C80983E060E040917700E7
:103120000E94500A85E060E0409178000E94500AB9
:1031300087E06BE048E10E94C809089580E091E0D3
:10314000E1E9F0E0DF019C011D9221503040E1F700
:1031500080E060E048E00E949E0982E060E049E093
:103160000E949E0980E060E14BE10E949E0982E09E
:1031700060E14CE10E949E0984E066E14EE10E941C
:10318000C80985E060E043E00E94500A089580E0AD
:1031900091E0E1E9F0E0DF019C011D922150304017
:1031A000E1F780E060E048E00E949E0982E060E094
:1031B00049E00E949E0980E060E14CE00E949E0987
:1031C00082E060E14BE00E949E0984E066E14EE10E
:1031D0000E94C80980917200882321F086E060E097
:1031E00049E103C086E060E048E10E949E0986E074
:1031F00060E14AE10E949E09089580E091E0E1E9E2
:10320000F0E0DF019C011D9221503040E1F78091F8
:103210007200882301F180E060E048E00E949E098E
:1032200082E060E049E00E949E0980E060E14CE0BD
:103230000E949E0982E060E14BE00E949E0984E0CA
:1032400066E14EE10E94C80985E060E040917300AC
:103250000E94500A08950E94C718089580E091E0E6
:10326000E1E9F0E0DF019C011D9221503040E1F7DF
:1032700080E060E048E20E949E0982E060E049E26E
:103280000E949E0980E060E14AE20E949E0982E07D
:1032900060E14DE00E949E0984E066E14EE10E94FB
:1032A000C80980917C00882349F486E060E04BE205
:1032B0000E949E0986E060E14CE213C0813049F42F
:1032C00086E060E04DE20E949E0986E060E14EE209
:1032D00008C086E060E04FE20E949E0986E060E15F
:1032E00040E30E949E09089580E091E0E1E9F0E06A
:1032F000DF019C011D9221503040E1F780E060E049
:1033000048E00E949E0982E060E049E00E949E0938
:1033100080E060E14AE00E949E0982E060E14BE0CB
:103320000E949E0984E066E14EE10E94C80985E0A2
:1033300060E0409174000E94500A089580E091E09E
:10334000E1E9F0E0DF019C011D9221503040E1F7FE
:1033500080E060E048E00E949E0982E060E049E091
:103360000E949E0980E060E145E10E949E0982E0A2
:1033700060E146E10E949E0984E066E14EE10E9420
:10338000C80985E060E040916E000E94500A0895EF
:10339000DF92EF92FF920F931F938C017B01D42E4B
:1033A00080E091E0E1E9F0E0DF019C011D92215015
:1033B0003040E1F780E060E048E00E949E0980E054
:1033C00060E149E00E949E0982E060E0D8014C91F2
:1033D0000E94500A84E060E0F70140810E94500A98
:1033E00086E060E14D2D0E949E091F910F91FF9094
:1033F000EF90DF9008956AE670E0CB016F5F7F4F3A
:1034000042E10E94C819089568E670E0CB016F5F41
:103410007F4F4DE00E94C819089566E670E0CB0129
:103420006F5F7F4F41E10E94C819089564E670E024
:10343000CB016F5F7F4F40E10E94C819089562E69B
:1034400070E0CB016F5F7F4F4FE00E94C819089575
:10345000F894E19944C080E090E00E94881D8C3C83
:10346000B1F581E090E00E94881D8093720082E0B7
:1034700090E00E94881D8093730083E090E00E949A
:10348000881D8093740085E090E00E94881D8093E1
:10349000760086E090E00E94881D8093770087E0A8
:1034A00090E00E94881D8093780088E090E00E9460
:1034B000881D80937A0089E090E00E94881D8093A7
:1034C0007B0080E190E00E94881D80937C008091C9
:1034D000730029E1829FC001112489518CBF789427
:1034E0000895F894E19941C080E090E06CEC0E946E
:1034F000901D81E090E0609172000E94901D82E03A
:1035000090E0609173000E94901D83E090E06091D4
:1035100074000E94901D84E090E0609175000E940C
:10352000901D85E090E0609176000E94901D86E0FD
:1035300090E0609177000E94901D87E090E060919C
:1035400078000E94901D88E090E060917A000E94CF
:10355000901D89E090E060917B000E94901D80E1C9
:1035600090E060917C000E94901D78940895A1E005
:10357000B0E0EDEBFAE10C94521D809175008823C8
:10358000E9F08B31D9F08A31C9F080919D02909198
:103590009E028950924590F0109275000E94261369
:1035A0000E94711A80E091E0E1E9F0E0DF019C0106
:1035B0001D9221503040E1F70E94D717809175008D
:1035C0008A51823068F48091AD029091AE02855F9D
:1035D000914030F0109275000E94711A0E94D71726
:1035E000819916C080E29EE40197F1F781990EC09F
:1035F00081E08093AF0280917A008F5F80937A00A0
:10360000833110F010927A000E94711A819BFECFD4
:1036100080917500882329F08B3119F08A3109F0E7
:103620004DC09E992AC080E29EE40197F1F79E99D1
:1036300022C084E68093AF0280917200882391F0CB
:10364000809173008F5F80937300893018F081E060
:10365000809373008091730029E1829FC00111243F
:1036600089518CBF8BE1809375001092AE0210924D
:10367000AD020E94FD189E9BFECF9F99D7C080E2AD
:103680009EE40197F1F79F9916C084E68093AF02FC
:10369000809174008F5F80937400893018F081E00E
:1036A000809374008AE1809375001092AE021092AC
:1036B000AD020E9474199F9BFECFB8C0813049F4BF
:1036C00083E660E042E650E023E630E00FE11AE1F5
:1036D000ABC0823049F48CE061E044E650E025E67E
:1036E00030E006E11AE1A0C0833049F48FE161E0E7
:1036F00046E650E027E630E00DE01AE195C0843060
:1037000049F487E160E048E650E029E630E004E073
:103710001AE18AC0853049F48BE360E04AE650E064
:103720002BE630E00BEF19E17FC0863059F41982A7
:1037300087E061E0AE014F5F5F4F2EE630E00EE9BB
:1037400019E172C0873059F4198281E060E0AE015E
:103750004F5F5F4F22E730E007EC18E165C088302B
:1037600059F4198282E060E0AE014F5F5F4F2BE7B2
:1037700030E00EE918E158C0893009F049C09E993F
:1037800029C080E29EE40197F1F79E9921C0109232
:103790009E0210929D0284E68093AF0230917800E1
:1037A0003F5F809177002AE0829FC0011124380F8B
:1037B000353108F030E0832F6AE00E94241D8093A9
:1037C0007700832F0E94241D909378000E94611837
:1037D0009E9BFECF9F992AC080E29EE40197F1F75D
:1037E0009F9913C010929E0210929D0284E68093CE
:1037F000AF0280917600882319F01092760003C002
:1038000081E0809376000E9461189F9BFECF0EC0DE
:103810008A3061F4198282E060E0AE014F5F5F4F51
:103820002CE730E00EE219E10E942216809951C087
:1038300080E29EE40197F1F7809949C084E6809385
:10384000AF0210929E0210929D02809175008F5FD0
:10385000809375008B3010F0109275008091750088
:10386000E82FF0E0EB30F10590F5E65CFF4F0C94AB
:103870007B1D0E9426130E94711A80E091E0E1E90D
:10388000F0E0DF019C011D9221503040E1F70E94E1
:10389000D7171DC00E941F1A1AC00E94161A17C0FF
:1038A0000E940D1A14C00E94041A11C00E94FB1934
:1038B0000EC00E949E190BC00E94C71808C00E942B
:1038C0009E1805C00E94611802C00E942E19809B9C
:1038D000FECF2196E4E00C946E1DDF92EF92FF92F2
:1038E0000F931F930E9464170E94A30886E090E044
:1038F0000E9433080E94AC0880991CC080E29EE4BC
:103900000197F1F7809916C081E08093720080934F
:1039100073008093740010927500109276001092DC
:1039200077001092780010927A0010927B001CBEF3
:103930000E94711A0E94281A0E948E170E94CB12B0
:103940000E94D71781E08093AF0201E0FF2410E0CE
:10395000FAE0DF2EEE24E39480917500882309F0CD
:103960006EC0112319F0DF9A10E002C0DF9811E059
:103970000E94CB120E94FB0A80916C00882359F4AC
:1039800080916D00882339F4002329F00E946C1384
:103990000E94D71700E080916C00853029F4809157
:1039A0006D00893009F401E080916D00F81629F06E
:1039B00081700E942409F0906D0030917C003323C7
:1039C000C9F480916A008823D1F580916B00882327
:1039D000B1F580916C00882391F580916D008A305B
:1039E00070F58091AB02882351F5E092AB02E09232
:1039F000AF0225C0313019F5209169002750809120
:103A000068008D9DC0011124280F2131C0F48091E0
:103A10006A008823A1F480916B00882381F480914F
:103A20006C00882361F480916D008A3040F48091AD
:103A3000AB02882321F43093AB023093AF020E9493
:103A4000640B0E94B71A88CF991B79E004C0991FB4
:103A5000961708F0961B881F7A95C9F780950895E8
:103A6000AA1BBB1B51E107C0AA1FBB1FA617B707A4
:103A700010F0A61BB70B881F991F5A95A9F78095C0
:103A80009095BC01CD0108952F923F924F925F9285
:103A90006F927F928F929F92AF92BF92CF92DF925E
:103AA000EF92FF920F931F93CF93DF93CDB7DEB7C3
:103AB000CA1BDB0B0FB6F894DEBF0FBECDBF099457
:103AC0002A88398848885F846E847D848C849B84AE
:103AD000AA84B984C884DF80EE80FD800C811B81BC
:103AE000AA81B981CE0FD11D0FB6F894DEBF0FBEEB
:103AF000CDBFED010895EE0FFF1F0590F491E02D6D
:103B00000994DC0101C06D9341505040E0F70895E5
:103B1000E199FECF9FBB8EBBE09A99278DB30895A4
:103B2000262FE199FECF9FBB8EBB2DBB0FB6F8941D
:0E3B3000E29AE19A0FBE01960895F894FFCF35
:103B3E000200010200010107020201090000020257
:103B4E00030400070100000000000000004059239C
:043B5E00290502082B
:00000001FF
